:020000040800F2
:10000000B80600202D02000853410008550A0008D8
:1000100051410008210700083D4D00080000000084
:1000200000000000000000000000000083470008FE
:100030002307000800000000FB43000845480008B3
:10004000470200084702000847020008470200086C
:10005000470200084702000847020008470200085C
:10006000470200084702000847020008470200084C
:10007000470200084702000847020008470200083C
:10008000470200084702000847020008470200082C
:1000900047020008470200084702000869070008F5
:1000A000470200084702000847020008470200080C
:1000B00047020008994800082D4900084702000837
:1000C00047020008470200084702000847020008EC
:1000D00047020008A14B0008470200084702000839
:1000E00047020008470200084702000847020008CC
:1000F00047020008470200084702000847020008BC
:100100004702000847020008694900084702000842
:100110004702000847020008F149000847020008AA
:10012000470200084702000847020008470200088B
:1001300000F002F800F06BF80AA090E8000C82448E
:100140008344AAF10107DA4501D100F060F8AFF26B
:10015000090EBAE80F0013F0010F18BFFB1A43F0A5
:100160000103184710790000307900000A444FF06D
:10017000000C10F8013B13F0070408BF10F8014B06
:100180001D1108BF10F8015B641E05D010F8016B4B
:10019000641E01F8016BF9D113F0080F1EBF10F8AF
:1001A000014BAD1C0C1B09D16D1E58BF01F801CBD2
:1001B000FAD505E014F8016B01F8016B6D1EF9D555
:1001C0009142D6D37047000000230024002500266A
:1001D000103A28BF78C1FBD8520728BF30C148BFAA
:1001E0000B607047642900F09D80752900F09A80AB
:1001F000782900F0D380632900F02782732900F06A
:100200002C82002070471FB51FBD10B510BD00F037
:1002100057FA1146FFF7F7FF04F086FE00F075FA73
:1002200003B4FFF7F2FF03BC04F090FD09488047D8
:1002300009480047FEE7FEE7FEE7FEE7FEE7FEE7C8
:10024000FEE7FEE7FEE7FEE704480549034A054BE3
:10025000704700004948000831010008B80200203A
:10026000B8060020B8020020704700000FB404490F
:1002700010B503AA029800F0F5F910BC5DF814FB64
:100280002400002070B5044685690068C10601D5C8
:10029000302600E02026C00707D070BDD4E9012138
:1002A00030469047206A401C20626D1EF6D570BD16
:1002B00070B5044685690078C00707D170BDD4E9E0
:1002C000012120209047206A401C20626D1EF6D537
:1002D00070BD70B50C460546012A05D02878800609
:1002E00000D5EA69002302E0012305E05B1C93428C
:1002F00002D2E05C0028F9D1A869E618C01AA8610A
:10030000286A184428622846FFF7BCFF04E0D5E9B4
:10031000012114F8010B9047B442F8D32846FFF7A7
:10032000C7FF70BD2DE9F04106460024106875290D
:10033000314616A510D0AFF30080002802DA404203
:1003400013A507E031688A0701D512A502E0490725
:1003500004D511A5012401E0AFF3008000210A2299
:1003600006F1240709E0B0FBF2FCB0FBF2F302FB5C
:100370001C00303078541846491C0028F3D123461D
:100380002A463046BDE8F04100F0FCB8000000000D
:100390002D0000002B0000002000000070B5044676
:1003A0000D4621461068AFF300802188090502D56B
:1003B0000F4A7A4402E00E4A7A440E32002104F1D8
:1003C000240305E000F00F060009965D5E54491C09
:1003D0000028F7D120780023000704D5702D02D023
:1003E00009B1022311322046BDE8704000F0CAB8BE
:1003F000B67500002DE9F05F894604464FF0000A0B
:10040000DFF874B1FB44C0F820A02046E1688847BB
:10041000002874D0252806D0D4E901219047206A0D
:10042000401C2062F1E700265F462046E1688847CD
:100430002028054607DB312D05D2781910F8200C4D
:1004400008B10643F1E7B00701D526F00406C4F869
:100450001CA00027C4F818A02A2D09D0284604F0B3
:100460006EFC38B304EB8708303DC8F8185019E02B
:1004700059F8041B204604EB87029161E168884724
:10048000012F054618D1E069002820DA26F0200661
:100490001DE0D8F8180000EB800005EB4000303874
:1004A000C8F818002046E1688847054604F047FC74
:1004B0000028EED1012F0AD02E2D08D12046E16868
:1004C00088477F1C0546022F46F02006C4DBA06942
:1004D000002803DA404246F00106A061F00701D08F
:1004E00026F010066C2D0BD0682D09D04C2D39D07C
:1004F0006A2D35D0742D35D07A2D33D016E038E002
:10050000E1682F4620468847B842054609D16C2F3E
:1005100026D04FF48060E1680643204688470546B0
:1005200004E06C2F1AD04FF4807006430DB3A5F190
:100530004100192802D8203546F400664A4629466B
:10054000204626604E46FFF74DFE80B101280BD0B5
:10055000F61D26F0070000F1080956E74020E4E701
:100560008020D8E70020D6E706F104094DE72846A9
:1005700052E7206ABDE8F09F8C7500007047704715
:10058000704770472DE9F0470D469946924604465C
:1005900000F124080168880604D5E06921F0100103
:1005A000216000E00120A84201DD471B00E0002798
:1005B000A1697A1902EB0900081AA0612078C00627
:1005C00002D42046FFF75EFE002608E0D4E90121B0
:1005D0001AF806009047206A401C761C20624E459F
:1005E000F4DB2078C0060AD52046FFF74BFE06E074
:1005F000D4E9012130209047206A401C2062381E37
:10060000A7F10107F4DC07E0D4E9012118F805009F
:100610009047206A401C2062281EA5F10105F3DCEA
:100620002046FFF745FE2078000602D50220BDE8EF
:10063000F0870120FBE710B5436913B1AFF30080E9
:1006400001E0FFF746FE012010BD127800F1240101
:100650000A7000224A700122EDE711684FF0FF3264
:10066000E9E70000074B70B50D467B4400F011F838
:100670000446284600F020F810B14FF0FF3070BD5E
:10068000204670BDA348000001694A1C0261087839
:10069000704700B58FB0CDE90131002105910549C2
:1006A0007944CDE9031011466846FFF7A3FE0FB069
:1006B00000BD0000E5FFFFFF007B00F080007047F9
:1006C000754600F029F8AE4605006946534620F00D
:1006D0000700854618B020B5FFF7B6FDBDE82040FD
:1006E0004FF000064FF000074FF000084FF0000BEE
:1006F00021F00701AC46ACE8C009ACE8C009ACE8A1
:10070000C009ACE8C0098D4670470446AFF30080CD
:100710002046FFF785FD0000004870475402002086
:10072000FEE770473EB50821002000F003F94FF4C2
:100730008070002400908DF8044008208DF805009A
:1007400001258DF80650684600F048F817208DF80E
:1007500008008DF809408DF80A408DF80B5002A86A
:1007600003F0F8FC3EBD000010B54FF48074204645
:1007700000F024F8012806D10A4B0B4A0021187812
:1007800030B1C2F88C112046BDE8104000F010B81E
:100790000648C0F898110121C0F89811C2F88C11D0
:1007A0001970F0E7180000200080214200802242EA
:1007B000014908607047000014040140064A0146E0
:1007C00000201268044B0A4014331B680B4202D00D
:1007D000002A00D0012070470004014030B51A4AB9
:1007E0008379016853B313688B431360111D0B6841
:1007F0000468A3430B60017911440B680468234328
:100800000B60114B083319680468A14319601C1D63
:1008100021680568A94321604179102905D0114458
:100820000A68006802430A6030BD19680268114313
:100830001960216800680143216030BD00791044CF
:1008400002688A43026030BD000401408000A0F1CC
:10085000C0400029016802D041F0010101E0024AD4
:100860001140016070470000FEFF0F0010B5D0E995
:1008700001121143D0E903231A4311434269114382
:1008800082691143C2691143026A1143426A1143EA
:10089000826A1143C26A1143026B114302689200DB
:1008A000A2F1C04211608168082907D1016889005E
:1008B000A1F1C0410A6842F040020A60416BD1E9EF
:1008C000002342EA03128B688C891B0243EA04432B
:1008D0001A430B8A42EA03520B7D896942EA03629A
:1008E0000A4301688900A1F1C0414A60C16AB1F5BB
:1008F000804F08D000686FF070418000A0F1C040C8
:10090000C0F8041110BD816BD1E9002342EA031243
:100910008B680C8A1B0243EA04531A430B7D8969D6
:1009200042EA036200680A438000A0F1C040C0F8B8
:10093000042110BD10B58A0721F003040649120FE7
:1009400021440F238C6893409C438C608B689040BB
:1009500003438B6010BD000000000140F0B5CC786F
:10096000002204F00F03E40601D58C7823430C78B1
:100970004FF00F0C14F0FF0F4FF0010E1BD0056865
:100980000E880EFA02F42640A64210D196000CFA08
:1009900006F725EA070703FA06F5CE783D43282E29
:1009A00002D0482E02D002E0446100E00461521CF3
:1009B000082AE5D305600A88FF2A1CD9446800226A
:1009C00002F108060EFA06F50E882E40AE420ED150
:1009D00096000CFA06F7BC4303FA06F7CE783C43C0
:1009E000282E00D14561CE78482E00D10561521CD9
:1009F000082AE5D34460F0BDF0B5144C002801DAB4
:100A0000E36900E06368450D2E0185B2C0F301572C
:100A1000B540C0F30342032F05D0C6020AD5032612
:100A20009640B34307E023F07062636823F070637D
:100A3000636002E0AB4343F0706201B12A430028D7
:100A400001DAE261F0BD6260F0BD0000000001402B
:100A500001617047FEE700002DE9F043174F06469D
:100A6000002438887D884543B888A0F5D0410439F2
:100A700002D1B879012807D00021084603F05EF9B9
:100A800003F054FB0E4815E00020B8714FF02A091E
:100A9000A7F80A904FF02B08A7F80C80014603F046
:100AA0004DF90120B871A7F80A80A7F80C90E7E784
:100AB0000680641CAC42FBD3BDE8F0837C010020BF
:100AC0000008006C2DE9F04F4A492A232B2489881D
:100AD00045F2105A4FF4305B4FF4285E4FF44875DE
:100AE0004FF0F00C49F241394FF4A07745F210363F
:100AF0004FF4F07280B13F484FF00108494580F84B
:100B000006800780A0F802C001D0B1423ED12C255A
:100B100005814381848157E036484FF000084945FC
:100B200080F80680A0F800C0478006D0A1F5D04C20
:100B3000BCF1040C01D0B1420CD12C2505814381BC
:100B4000A1F5D0438481043B01D0B14244D1078058
:100B5000428041E0514507D1A0F808B0A0F80AE072
:100B60004FF42C5181810EE0A1F5C856633E06D0AA
:100B70002221018120214181212181812CE02C2110
:100B80000181448183810280458025E0A1F5D04C1C
:100B9000BCF1040C09D051450BD1A0F808B0A0F865
:100BA0000AE04FF42C53838121E02C2505814481F8
:100BB00009E0A1F5C85CBCF1630C12D022230381CB
:100BC0002123438120238381A1F5D043043B01D01D
:100BD000B14201D102804780BDE8F04F002002F011
:100BE000D9BF4FF02C0CA0F808C043818481058048
:100BF0004280E9E77C0100202DE9F04FDFF80C810D
:100C0000934642460B46B8F804500C0ADFF800A1A0
:100C10009189060A5289A5F513470AF10209413F55
:100C200018D0A5F5A647103F14D0B7F500771CD013
:100C30004746A5F5C85CBE793F883F1A7F1EBCF1C8
:100C4000630C27D0A5F5D04CBCF1040C3AD0012E92
:100C50004AD04AE0AAF800204A46A9F80060C0B28B
:100C6000A9F80000AAF800103AE0AAF80020A9F8B4
:100C70000060521CAAF80020C0B2A9F80000AAF82F
:100C80000010A9F80040491CAAF80010D8B2A9F831
:100C9000000033E006B9B8B2AAF80020050A4A46B7
:100CA000A9F80050C7B2A9F80070A9F80050C0B266
:100CB000A9F80000AAF80010A9F80040D8B2A9F8D5
:100CC00000000DE0012E00D1B8B2AAF80020050AFC
:100CD0004A46A9F80050C0B2A9F80000AAF80010CE
:100CE0001480D8B2108009E0B8B20146104603F073
:100CF00027FAB8F80C00194603F022FAB8F80810E1
:100D0000AAF80010A9F800B0BDE8F08F7C0100201F
:100D1000FE07006C2DE9F04F01210E029FB0304616
:100D200003F06CFB01214FF4B47003F07FFB01274B
:100D3000ADF83C704FF010088DF83F8003248DF81B
:100D40003E400FA9FE48FFF709FE4CF23370ADF8A4
:100D50003C0018258DF83F508DF83E400FA9F9480A
:100D6000FFF7FCFD4FF68070ADF83C008DF83F506A
:100D70008DF83E400FA9F448FFF7F0FD41F2010065
:100D8000ADF83C008DF83F508DF83E400FA9EF487C
:100D9000FFF7E4FD00200F21CDE918011A901B9008
:100DA0001C901D901090CDE91104CDE91607149008
:100DB00006211590CDE90010CDE9020813900490AA
:100DC0003101CDE908010690059007908900CDE931
:100DD0000A010C9017A80D9010A80E906846FFF716
:100DE00045FD01210620FFF731FD322004F05CF8BB
:100DF000002002F0A5FED64DD64C49F24139A8801C
:100E000046F6040A45F2103B45F210574FF6FF78BC
:100E1000FF2804D3404502D0B0F5134F70D1D32042
:100E2000208002F083FEA88002F080FEA88002F0FD
:100E30007DFE08EA00204146A88002F077FEAA88DD
:100E40001043A88048455BD0BF20208002F06EFE92
:100E5000A88002F06BFEA88002F068FEA88002F075
:100E600065FE01EA0020A88002F060FEAA88104317
:100E7000A880504544D0D420208002F057FEA8809E
:100E800002F054FEA88002F051FE01EA0020A88082
:100E900002F04CFEAA881043A880584530D04FF489
:100EA0005A40208002F042FEA8804FF45B40208030
:100EB00002F03CFE01EA0020A8804FF45C40208054
:100EC00002F034FEAA881043A880B0F5004F7DD010
:100ED000B84215D0A120208002F028FEA88002F0A0
:100EE00025FE01EA0020A88002F020FEA988084320
:100EF000A0F5AE41A880613902D141F66310A88007
:100F0000A98895A0FFF7B2F9A888924DAD1C484575
:100F10007ED1CF20208000202880C1202880302052
:100F20002880ED2020806420288003202880122043
:100F3000288081202880E82020808520288010209B
:100F400028807A202880CB202080392028802C20DF
:100F50002880002028803420288002202880F72044
:100F6000208020202880EA202080002028802880DF
:100F7000C02020801B202880C120208001202880C4
:100F8000C5202080302028802880C7202080B720DE
:100F9000288036202080482028803A202080552034
:100FA0002880B1202080002028801A202880B620A8
:100FB00020800A202880A2202880F2202080002083
:100FC0002880262020800120288000E051E0E020B9
:100FD00020800F2028802A20288028202880082090
:100FE00028800E2028800820288054202880A920CE
:100FF0002880432028800A2028800F202880002075
:101000002880288028802880E1202080002000E09F
:1010100031E028801520288017202880072028808C
:1010200011202880062028802B2028805620288008
:101030003C20288005202880102028800F20288030
:101040003F20288028800F2028802B20208000200F
:1010500028802880012028803F2028802A20208086
:101060000020288028802880EF20288011202080E0
:1010700084E0AF8044E7504576D1112020801420D1
:1010800003F012FFD02020800720288042202880F3
:101090001D202880D1202080002028801A20288030
:1010A00009202880D220208001202880222028802A
:1010B000C0202080102028803B202880002028800D
:1010C0000220288011202880C5202080032028802D
:1010D000C8202080002028802520288021202880EA
:1010E00005202880002028800A202880652028806C
:1010F0002520288077202880502028800F202880D5
:1011000000202880F820208001202880FE202080D8
:101110000020288002202880202020803620208067
:10112000082028803A202080552028802B202080ED
:10113000002028802880012028803F20288014E07B
:10114000000C014000140140001801400020014043
:101150007C010020FE07006C204C43442049443AA7
:1011600025780D0A000000000EE02A2020800020D3
:101170002880288001202880DF202880782003F024
:1011800093FE292001F02DBC58457DD1ED20208013
:1011900001202880FE202880EE202080DE2028806C
:1011A00021202880F120208001202880DF2020803D
:1011B00010202880C42020808F202880C6202080F6
:1011C00000202880E220288028802880BF202080DE
:1011D000AA202880B02020800D2028800020288090
:1011E0000D202880002028801120288000202880C1
:1011F0001920288000202880212028800020288095
:101200002D202880002028803D2028800020288054
:101210005D202880002028805D20288000202880F4
:10122000B120208080202880002028808B202880EA
:10123000002028809620288000202880B22020804E
:101240000020288028800220288000202880032079
:10125000288000202880B32020800020288028803B
:10126000288028802880288028802880288028803E
:10127000288028802880288028802880288028802E
:1012800028802880288000E0FEE3288028802880AD
:10129000B42020808B202880002028809620288061
:1012A00000202880A120288000202880B5202080D0
:1012B0000220288000202880032028800020288009
:1012C0000420288000202880B6202080002028804C
:1012D0002880B72020800020288028803F20288078
:1012E000002028805E20288000202880642028801C
:1012F000002028808C20288000202880AC20288096
:1013000000202880DC202880002028807020288071
:10131000002028809020288000202880EB20288032
:1013200000202880DC20288000202880B820208011
:1013300000202880288028802880288028802880F5
:101340002880BA202080242028800020288028801F
:101350002880C12020802020288000202880542040
:10136000288000202880FF20288000202880C2209C
:1013700020800A2028800020288004202880002047
:101380002880C32020803C202880002028803A200C
:1013900028800020288039202880002028803720BD
:1013A0002880002028803C202880002028803620AB
:1013B00028800020288032202880002028802F20AC
:1013C0002880002028802C202880002028802920A8
:1013D00028800020288026202880002028802420A3
:1013E0002880002028802420288000202880232096
:1013F0002880002028803C2028800020288036205B
:1014000028800020288032202880002028802F205B
:101410002880002028802C20288000202880292057
:101420002880002028802620288000202880242052
:101430002880002028802420288000202880232045
:10144000288000202880C42020806220288000205E
:1014500028800520288000202880842028800020E3
:101460002880F02028800020288018202880002054
:101470002880A42028800020288018202880002090
:10148000288050202880002028800C2028800020E0
:101490002880172028800020288095202880002080
:1014A0002880F320288000202880E6202880002043
:1014B0002880C520208032202880002028804420D9
:1014C0002880002028806520288000202880762021
:1014D0002880002028808820288000202880C6209E
:1014E00020802020288000202880172028800020AD
:1014F00028800120288000202880C720208000200C
:101500002880288028802880C820208000202880EB
:10151000288028802880C9202080002028802880DA
:10152000288028802880288028802880288028807B
:10153000288028802880288028802880E02020801B
:1015400016202880002028801C2028800020288049
:101550002120288000202880362028800020288014
:1015600046202880002028805220288000202880C3
:1015700064202880002028807A202880002028806D
:101580008B20288000202880992028800020288017
:10159000A820288000202880B920288000202880CA
:1015A000C420288000202880CA202880002028808D
:1015B000D220288000202880D92028800020288060
:1015C000E020288000202880F32028800020288028
:1015D000E120208016202880002028801C202880E0
:1015E0000020288022202880002028803620288083
:1015F0000020288045202880002028805220288034
:101600000020288064202880002028807A202880DC
:10161000002028808B202880002028809920288086
:1016200000202880A820288000202880B920288039
:1016300000202880C420288000202880CA202880FC
:1016400000202880D220288000202880D8202880D0
:1016500000202880E020288000202880F320288097
:1016600000202880E220208005202880002028807B
:101670000B202880002028801B2028800020288024
:1016800034202880002028804420288000202880C2
:101690004F2028800020288061202880002028807A
:1016A0007920288000202880882028800020288019
:1016B0009720288000202880A620288000202880CD
:1016C000B720288000202880C22028800020288081
:1016D000C720288000202880D12028800020288052
:1016E000D620288000202880DD2028800020288027
:1016F000F320288000202880E320208005202880F7
:10170000002028800A202880002028801C20288093
:101710000020288033202880002028804420288032
:1017200000202880502028800020288062202880E7
:101730000020288078202880002028808820288089
:10174000002028809720288000202880A62028803C
:1017500000202880B720288000202880C2202880F0
:1017600000202880C720288000202880D1202880C1
:1017700000202880D520288000202880DD20288097
:1017800000202880F320288000202880E42020806A
:101790000120288000202880012028800020288027
:1017A00002202880002028802A20288000202880ED
:1017B0003C202880002028804B2028800020288082
:1017C0005D20288000202880742028800020288028
:1017D00084202880002028809320288000202880D2
:1017E000A220288000202880B32028800020288084
:1017F000BE20288000202880C42028800020288047
:10180000CD20288000202880D32028800020288018
:10181000DD20288000202880F320288000202880D8
:10182000E520208000202880288028802880022031
:1018300028800020288029202880002028803C2023
:101840002880002028804B202880002028805D20D0
:101850002880002028807420288000202880842070
:101860002880002028809320288000202880A22023
:10187000288000202880B320288000202880BE20D7
:10188000288000202880C420288000202880CD20A7
:10189000288000202880D320288000202880DC2079
:1018A000288000202880F320288000202880E6203F
:1018B00020801120288000202880342028800020CB
:1018C000288056202880002028807620288000202C
:1018D000288077202880002028806620288000200B
:1018E00028808820288000202880992028800020B7
:1018F0002880BB2028800020288099202880002074
:1019000028806620288000202880552028800020FC
:10191000288055202880002028804520288000200D
:101920002880432028800020288044202880002010
:101930002880E72020803220288000202880552021
:10194000288000202880762028800020288066209B
:101950002880002028806720288000202880672099
:101960002880002028808720288000202880992037
:10197000288000202880BB202880002028809920F3
:10198000288000202880772028800020288044207C
:1019900028800020288056202880002028802320AE
:1019A000288000202880332028800020288045209F
:1019B000288000202880E82020800020288028809F
:1019C00099202880002028808720288000202880D7
:1019D00088202880002028807720288000202880E8
:1019E00066202880002028808820288000202880E9
:1019F000AA20288000202880BB2028800020288062
:101A000099202880002028806620288000202880B7
:101A100055202880002028805520288000202880FC
:101A2000442028800020288044202880002028800E
:101A30005520288000202880E9202080AA202880A6
:101A400000202880288028802080AA202880CF207D
:101A500020800020288028802880288028802880D6
:101A60002880288028802880288028802880288036
:101A7000288028802880F020208000202880502086
:101A800028800020288000E02CE028802880F32097
:101A9000208000202880F920208006202880102027
:101AA000288029202880002028803A202080552066
:101AB000288011202080642003F0F6F9292020805E
:101AC000352020800020288051202080FF20288081
:101AD000532020802C2028805520208082202880A0
:101AE0002C20FCE3B8427DD14FF4704355211846B9
:101AF00002F026FB4FF20105AA21284602F020FB46
:101B00006E1C5221304602F01BFBAF1C08213846E8
:101B100002F016FB4FF204090121484602F010FBC7
:101B20000D214FF4304002F00BFB0D214BF2010070
:101B300002F006FB0D214BF2020002F001FB4FF414
:101B4000364A3421504602F0FBFA34214BF2016050
:101B500002F0F6FA34214BF2026002F0F1FA4FF48F
:101B6000314B0D21584602F0EBFA0D214BF20110DA
:101B700002F0E6FA0D214BF2021002F0E1FA3421F4
:101B80004FF4374002F0DCFA34214BF2017002F0DE
:101B9000D7FA34214BF2027002F0D2FA00214FF44E
:101BA000324002F0CDFA00214BF2012002F0C8FAD7
:101BB00000214BF2022002F0C3FA24214FF43840F6
:101BC00002F0BEFA24214BF6010002F0B9FA2421FA
:101BD0004BF6020002F0B4FA01214FF43F4002F04C
:101BE000AFFA00E0FEE30F214FF4334002F0A8FA11
:101BF0000F214BF2013002F0A3FA0F214BF2023019
:101C000002F09EFA34214FF4394002F099FA34215F
:101C10004BF6011002F094FA34214BF6021002F058
:101C20008FFA08214FF4354002F08AFA08214BF26E
:101C3000015002F085FA08214BF2025002F080FABE
:101C400003214FF4424002F07BFA24214FF43A4042
:101C500002F076FA24214BF6012002F071FA2421D9
:101C60004BF6022002F06CFA00214FF43C4002F0E7
:101C700067FA78214BF6014002F062FA00214BF638
:101C8000024002F05DFA00214FF43D4002F058FAA4
:101C900078214BF6015002F053FA00214BF6025026
:101CA00002F04EFA00214FF43E4002F049FA64215E
:101CB0004BF6016002F044FA00214FF4514002F06B
:101CC0003FFA33214DF2011002F03AFA00214DF2B1
:101CD000021002F035FA34214DF2031002F030FA0E
:101CE00000214DF2041002F02BFA3A214DF20510BA
:101CF00002F026FA00214DF2061002F021FA4A21E4
:101D00004DF2071002F01CFA00214DF2081002F00B
:101D100017FA5C214DF2091002F012FA00214DF27F
:101D20000A1002F00DFA81214DF20B1002F008FAB0
:101D300000214DF20C1002F003FAA6214DF20D1015
:101D400002F0FEF900214DF20E1002F0F9F9E52142
:101D50004DF20F1002F0F4F901214DF2101002F0D3
:101D6000EFF913214DF2111002F0EAF901214DF2C1
:101D7000121002F0E5F954214DF2131002F0E0F9CF
:101D800001214DF2141002F0DBF982214DF2151001
:101D900002F0D6F901214DF2161002F0D1F9CA2154
:101DA0004DF2171002F0CCF902214DF2181002F09A
:101DB000C7F900214DF2191002F0C2F902214DF2CB
:101DC0001A1002F0BDF901214DF21B1002F0B8F912
:101DD00002214DF21C1002F0B3F934214DF21D1016
:101DE00002F0AEF902214DF21E1002F0A9F96721AE
:101DF0004DF21F1002F0A4F902214DF2201002F062
:101E00009FF984214DF2211002F09AF902214DF23E
:101E1000221002F095F9A4214DF2231002F090F95E
:101E200002214DF2241002F08BF9B7214DF225105A
:101E300002F086F902214DF2261002F081F9CF213D
:101E40004DF2271002F07CF902214DF2281002F029
:101E500077F9DE214DF2291002F072F902214DF2DC
:101E60002A1002F06DF9F2214DF22B1002F068F900
:101E700002214DF22C1002F063F9FE214DF22D10DB
:101E800002F05EF903214DF22E1002F059F91021F3
:101E90004DF22F1002F054F903214DF2301002F0F0
:101EA0004FF933214DF2311002F04AF903214DF27E
:101EB000321002F045F96D214DF2331002F040F975
:101EC00000214FF4524002F03BF933214DF2012042
:101ED00002F036F900214DF2022002F031F93421EE
:101EE0004DF2032002F02CF900214DF2042002F003
:101EF00027F93A214DF2052002F022F900214DF296
:101F0000062002F01DF94A214DF2072002F018F9CF
:101F100000214DF2082002F013F95C214DF2092056
:101F200002F00EF900214DF20A2002F009F9812198
:101F30004DF20B2002F004F900214DF20C2002F0CA
:101F4000FFF8A6214DF20D2002F0FAF800214DF223
:101F50000E2002F0F5F8E5214DF20F2002F0F0F826
:101F600001214DF2102002F0EBF813214DF2112067
:101F700002F0E6F801214DF2122002F0E1F85421BE
:101F80004DF2132002F0DCF801214DF2142002F092
:101F9000D7F882214DF2152002F0D2F801214DF23E
:101FA000162002F0CDF8CA214DF2172002F0C8F831
:101FB00002214DF2182002F0C3F800214DF2192041
:101FC00002F0BEF802214DF21A2002F0B9F8012108
:101FD0004DF21B2002F0B4F802214DF21C2002F059
:101FE000AFF834214DF21D2002F0AAF802214DF283
:101FF0001E2002F0A5F867214DF21F2002F0A0F884
:1020000002214DF2202002F09BF884214DF2212084
:1020100002F096F802214DF2222002F091F8A4215C
:102020004DF2232002F08CF802214DF2242002F020
:1020300087F8B7214DF2252002F082F802214DF2F7
:10204000262002F07DF8CF214DF2272002F078F80B
:1020500002214DF2282002F073F8DE214DF22920F2
:1020600002F06EF802214DF22A2002F069F8F22106
:102070004DF22B2002F064F802214DF22C2002F0E8
:102080005FF8FE214DF22D2002F05AF803214DF2A7
:102090002E2002F055F810214DF22F2002F050F8BA
:1020A00003214DF2302002F04BF833214DF2312064
:1020B00002F046F803214DF2322002F041F86D2182
:1020C0004DF2332002F03CF800214FF4534002F06F
:1020D00037F833214DF2013002F032F800214DF291
:1020E000023002F02DF834214DF2033002F028F8CE
:1020F00000214DF2043002F023F83A214DF2053070
:1021000002F01EF800214DF2063002F019F84A21C3
:102110004DF2073002F014F800214DF2083002F0C1
:102120000FF85C214DF2093002F00AF800214DF25F
:102130000A3002F005F881214DF20B3002F000F870
:1021400000214DF20C3001F0FBFFA6214DF20D30C5
:1021500001F0F6FF00214DF20E3001F0F1FFE52114
:102160004DF20F3001F0ECFF01214DF2103001F083
:10217000E7FF13214DF2113001F0E2FF01214DF292
:10218000123001F0DDFF54214DF2133001F0D8FF81
:1021900001214DF2143001F0D3FF82214DF21530B0
:1021A00001F0CEFF01214DF2163001F0C9FFCA2126
:1021B0004DF2173001F0C4FF02214DF2183001F04A
:1021C000BFFF00214DF2193001F0BAFF02214DF29C
:1021D0001A3001F0B5FF01214DF21B3001F0B0FFC4
:1021E00002214DF21C3001F0ABFF34214DF21D30C5
:1021F00001F0A6FF02214DF21E3001F0A1FF672180
:102200004DF21F3001F09CFF02214DF2203001F011
:1022100097FF84214DF2213001F092FF02214DF20F
:10222000223001F08DFFA4214DF2233001F088FF10
:1022300002214DF2243001F083FFB7214DF2253009
:1022400001F07EFF02214DF2263001F079FFCF210F
:102250004DF2273001F074FF02214DF2283001F0D9
:102260006FFFDE214DF2293001F06AFF02214DF2AD
:102270002A3001F065FFF2214DF22B3001F060FFB2
:1022800002214DF22C3001F05BFFFE214DF22D308A
:1022900001F056FF03214DF22E3001F051FF1021C5
:1022A0004DF22F3001F04CFF03214DF2303001F0A0
:1022B00047FF33214DF2313001F042FF03214DF24F
:1022C000323001F03DFF6D214DF2333001F038FF27
:1022D00000214FF4544001F033FF332100E080E34C
:1022E0004DF2014001F02CFF00214DF2024001F0BF
:1022F00027FF34214DF2034001F022FF00214DF26F
:10230000044001F01DFF3A214DF2054001F018FF95
:1023100000214DF2064001F013FF4A214DF2074023
:1023200001F00EFF00214DF2084001F009FF5C2191
:102330004DF2094001F004FF00214DF20A4001F086
:10234000FFFE81214DF20B4001F0FAFE00214DF21B
:102350000C4001F0F5FEA6214DF20D4001F0F0FE1B
:1023600000214DF20E4001F0EBFEE5214DF20F4051
:1023700001F0E6FE01214DF2104001F0E1FE1321D3
:102380004DF2114001F0DCFE01214DF2124001F04E
:10239000D7FE54214DF2134001F0D2FE01214DF23F
:1023A000144001F0CDFE82214DF2154001F0C8FE2F
:1023B00001214DF2164001F0C3FECA214DF2174033
:1023C00001F0BEFE02214DF2184001F0B9FE0021DD
:1023D0004DF2194001F0B4FE02214DF21A4001F015
:1023E000AFFE00E0FFE201214DF21B4001F0A8FE2C
:1023F00002214DF21C4001F0A3FE34214DF21D409C
:1024000001F09EFE02214DF21E4001F099FE67216F
:102410004DF21F4001F094FE02214DF2204001F0E8
:102420008FFE84214DF2214001F08AFE02214DF2FF
:10243000224001F085FEA4214DF2234001F080FEF0
:1024400002214DF2244001F07BFEB7214DF22540E0
:1024500001F076FE02214DF2264001F071FECF21FF
:102460004DF2274001F06CFE02214DF2284001F0B0
:1024700067FEDE214DF2294001F062FE02214DF29D
:102480002A4001F05DFEF2214DF22B4001F058FE92
:1024900002214DF22C4001F053FEFE214DF22D4061
:1024A00001F04EFE03214DF22E4001F049FE1021B5
:1024B0004DF22F4001F044FE03214DF2304001F077
:1024C0003FFE33214DF2314001F03AFE03214DF23F
:1024D000324001F035FE6D214DF2334001F030FE07
:1024E00000214FF4554001F02BFE33214DF20150F5
:1024F00001F026FE00214DF2025001F021FE3421B0
:102500004DF2035001F01CFE00214DF2045001F089
:1025100017FE3A214DF2055001F012FE00214DF256
:10252000065001F00DFE4A214DF2075001F008FE61
:1025300000214DF2085001F003FE5C214DF20950DC
:1025400001F0FEFD00214DF20A5001F0F9FD81215C
:102550004DF20B5001F0F4FD00214DF20C5001F052
:10256000EFFDA6214DF20D5001F0EAFD00214DF2E4
:102570000E5001F0E5FDE5214DF20F5001F0E0FDB8
:1025800001214DF2105001F0DBFD13214DF21150ED
:1025900001F0D6FD01214DF2125001F0D1FD542180
:1025A0004DF2135001F0CCFD01214DF2145001F019
:1025B000C7FD82214DF2155001F0C2FD01214DF2FF
:1025C000165001F0BDFDCA214DF2175001F0B8FDC3
:1025D00002214DF2185001F0B3FD00214DF21950C7
:1025E00001F0AEFD02214DF21A5001F0A9FD0121CA
:1025F0004DF21B5001F0A4FD02214DF21C5001F0E0
:102600009FFD34214DF21D5001F09AFD02214DF243
:102610001E5001F095FD67214DF21F5001F090FD15
:1026200002214DF2205001F08BFD84214DF221500A
:1026300001F086FD02214DF2225001F081FDA4211E
:102640004DF2235001F07CFD02214DF2245001F0A7
:1026500077FDB7214DF2255001F072FD02214DF2B8
:10266000265001F06DFDCF214DF2275001F068FD9D
:1026700002214DF2285001F063FDDE214DF2295078
:1026800001F05EFD02214DF22A5001F059FDF221C8
:102690004DF22B5001F054FD02214DF22C5001F06F
:1026A0004FFDFE214DF22D5001F04AFD03214DF268
:1026B0002E5001F045FD10214DF22F5001F040FD4C
:1026C00003214DF2305001F03BFD33214DF23150EA
:1026D00001F036FD03214DF2325001F031FD6D2144
:1026E0004DF2335001F02CFD00214FF4564001F023
:1026F00027FD33214DF2016001F022FD00214DF252
:10270000026001F01DFD34214DF2036001F018FD5F
:1027100000214DF2046001F013FD3A214DF20560F5
:1027200001F00EFD00214DF2066001F009FD4A2185
:102730004DF2076001F004FD00214DF2086001F048
:10274000FFFC5C214DF2096001F0FAFC00214DF222
:102750000A6001F0F5FC81214DF20B6001F0F0FC04
:1027600000214DF20C6001F0EBFCA6214DF20D6052
:1027700001F0E6FC00214DF20E6001F0E1FCE521E4
:102780004DF20F6001F0DCFC01214DF2106001F010
:10279000D7FC13214DF2116001F0D2FC01214DF262
:1027A000126001F0CDFC54214DF2136001F0C8FC21
:1027B00001214DF2146001F0C3FC82214DF215603D
:1027C00001F0BEFC01214DF2166001F0B9FCCA21F6
:1027D0004DF2176001F0B4FC02214DF2186001F0D7
:1027E000AFFC00214DF2196001F0AAFC02214DF26C
:1027F0001A6001F0A5FC01214DF21B6001F0A0FC64
:1028000002214DF21C6001F09BFC34214DF21D6051
:1028100001F096FC02214DF21E6001F091FC67214F
:102820004DF21F6001F08CFC02214DF2206001F09E
:1028300087FC84214DF2216001F082FC02214DF2DF
:10284000226001F07DFCA4214DF2236001F078FCB0
:1028500002214DF2246001F073FCB7214DF2256096
:1028600001F06EFC02214DF2266001F069FCCF21DF
:102870004DF2276001F064FC02214DF2286001F066
:102880005FFCDE214DF2296001F05AFC02214DF27D
:102890002A6001F055FCF2214DF22B6001F050FC52
:1028A00002214DF22C6001F04BFCFE214DF22D6017
:1028B00001F046FC03214DF22E6001F041FC102195
:1028C0004DF22F6001F03CFC03214DF2306001F02D
:1028D00037FC33214DF2316001F032FC03214DF21F
:1028E000326001F02DFC6D214DF2336001F028FCC7
:1028F0005521184601F024FCAA21284601F020FCAD
:102900005221304601F01CFC0821384601F018FC29
:102910000021484601F014FCCC21584601F010FC7F
:1029200000214BF2011001F00BFC0521504601F093
:1029300007FC70214FF4374001F002FC70214BF28C
:10294000017001F0FDFB01214FF4384001F0F8FB6C
:1029500003214BF6010001F0F3FB03214BF60200CB
:1029600001F0EEFB03214BF6030001F0E9FB02212D
:102970004FF43C4001F0E4FB00214BF6014001F034
:10298000DFFB00214BF6024001F0DAFBD0214FF4CF
:10299000494001F0D5FB02214CF6011001F0D0FBBB
:1029A00050214CF6021001F0CBFB50214CF60310E5
:1029B00001F0C6FB50214CF6041001F0C1FB0021D0
:1029C0004FF4545001F0BCFB55214FF4685001F016
:1029D000B7FB4FF488502080782002F07FFA4FF444
:1029E00024502080FEE3A0F513414FF4E06940F24B
:1029F000022A4FF4274B253924D040F20777C91E0D
:102A00007ED04FF4887B08317BD011397AD0A0F585
:102A1000A841083977D0A0F5A8514FF4407B05397B
:102A200072D0B1F5204170D0B1F580516ED0A0F5D3
:102A30008A4131396BD0091F6AD0A0F5C85163397A
:102A400067D0CFE747F6F001E52001F079FB31468A
:102A5000012001F075FB4946022001F071FB41F2B3
:102A60003001032001F06CFB0021042001F068FB21
:102A70005146082001F064FB0021092001F060FBB1
:102A800000210A2001F05CFB00210C2001F058FB22
:102A900000210D2001F054FB00210F2001F050FB1C
:102AA0000021102001F04CFB0721112001F048FB10
:102AB0000021122001F044FB0021132001F040FB13
:102AC0000021072001F03CFB41F29061102001F051
:102AD00037FB40F22721112001F032FB9D2112200B
:102AE00001F02EFB4FF4C851132001F029FB2521E2
:102AF000292001F025FB0D212B2001F021FB09E00D
:102B000077E033E1D8E1AEE24AE3FDE3FDE3FDE344
:102B1000FDE3FDE30721302001F012FB40F2033119
:102B2000312001F00DFB0321322001F009FB40F2BE
:102B30000621352001F004FB0821362001F000FBBE
:102B400040F20641372001F0FBFA4FF44171382082
:102B500001F0F6FA0721392001F0F2FA40F20261A1
:102B60003C2001F0EDFA08213D2001F0E9FA0021B6
:102B7000502001F0E5FAEF21512001F0E1FA0021A7
:102B8000522001F0DDFA40F23F11532001F0D8FA53
:102B90005946602001F0D4FA0121612001F0D0FAF9
:102BA00000216A2001F0CCFA0021802001F0C8FA4F
:102BB0000021812001F0C4FA0021822001F0C0FA36
:102BC0000021832001F0BCFA0021842001F0B8FA32
:102BD0000021852001F0B4FA1021902001F0B0FA14
:102BE0004FF4C061922001F0ABFA40F2331107209C
:102BF000FDE341F28F01EC2001F0A2FA41F2342111
:102C0000EF2001F09DFA3146012001F099FA494682
:102C1000022001F095FA41F23001032001F090FA10
:102C20000021042001F08CFA5146082001F088FAB6
:102C30000021092001F084FA00210A2001F080FA25
:102C400001210C2001F07CFA00210D2001F078FA1E
:102C500000210F2001F074FA0021102001F070FA19
:102C60000721112001F06CFA0021122001F068FA0E
:102C70000021132001F064FA0121072001F060FA1D
:102C8000322002F011F941F29041102001F058FA7F
:102C900040F22721112001F053FA322002F004F90A
:102CA0008A21122001F04CFA322002F0FDF84FF494
:102CB000D051132001F044FA0621292001F040FAF6
:102CC0000D212B2001F03CFA322002F0EDF800211A
:102CD000202001F035FA0021212001F031FA3220C4
:102CE00002F0E2F80021302001F02AFA40F20461FB
:102CF000312001F025FA40F20531322001F020FAAE
:102D00000021352001F01CFA40F60941362001F07F
:102D100017FA4FF40171372001F012FA40F2013135
:102D2000382001F00DFA3946392001F009FA002166
:102D30003C2001F005FA40F60A213D2001F000FA9E
:102D4000322002F0B1F80021502001F0F9F9EF2112
:102D5000512001F0F5F90021522001F0F1F940F283
:102D60003F11532001F0ECF9594651E1002108468A
:102D700001F0E6F93146012001F0E2F9494602206E
:102D800001F0DEF941F23001032001F0D9F9002110
:102D9000042001F0D5F95146082001F0D1F90021B5
:102DA000092001F0CDF900210A2001F0C9F9012123
:102DB0000C2001F0C5F900210D2001F0C1F900211E
:102DC0000F2001F0BDF9322002F06EF840F201113F
:102DD000072001F0B5F9322002F066F84FF4865171
:102DE000102001F0ADF90721112001F0A9F95B468F
:102DF0005946122001F0A4F94FF43061132001F07C
:102E00009FF90021292001F09BF944F210012B20A9
:102E100001F096F90021502001F092F9EF215120A4
:102E200001F08EF90021522001F08AF940F23F11A1
:102E3000532001F085F94FF41C51602001F080F916
:102E40000121612001F07CF900216A2001F078F96C
:102E50000021802001F074F90021812001F070F937
:102E60000021822001F06CF90021832001F068F933
:102E70000021842001F064F90021852001F060F92F
:102E80001021902001F05CF90021922001F058F906
:102E90000121932001F054F91946952001F050F9D1
:102EA0000021972001F04CF90021982001F048F909
:102EB00040F27311072085E341F21401E72001F08D
:102EC0003FF93146012001F03BF94FF40071022037
:102ED00001F036F941F23801032001F031F9514691
:102EE000082001F02DF90021092001F029F9002125
:102EF0000A2001F025F900210C2001F021F9002120
:102F00000D2001F01DF900210F2001F019F9002119
:102F1000102001F015F90721112001F011F900210D
:102F2000122001F00DF90021132001F009F9C82049
:102F300001F0BAFF41F29061102001F001F940F276
:102F40002721112001F0FCF8322001F0ADFF0C2107
:102F5000122001F0F5F8322001F0A6FF4FF40061D5
:102F6000132001F0EDF81121292001F0E9F80B21DF
:102F70002B2001F0E5F8322001F096FF00212020FF
:102F800001F0DEF840F23F131946212001F0D8F895
:102F90000021302001F0D4F84FF483742146312011
:102FA00001F0CEF80021322001F0CAF84FF401718F
:102FB000352001F0C5F841F20A61362001F0C0F871
:102FC0003946372001F0BCF82146382001F0B8F826
:102FD0003946392001F0B4F840F202413C2001F0BA
:102FE000AFF840F60F413D2001F0AAF80021502033
:102FF00001F0A6F8EF21512001F0A2F800215220A3
:1030000001F09EF81946532001F09AF84FF41C5134
:10301000602001F095F80121612001F091F8002174
:103020006A2001F08DF80021802001F089F800214C
:10303000812001F085F80021822001F081F8002133
:10304000832001F07DF80021842001F079F800212F
:10305000852001F075F81021902001F071F84FF4EF
:10306000C0619220FDE33146012001F069F8494634
:10307000022001F065F841F23001032001F060F810
:103080000021042001F05CF840F20721082001F043
:1030900057F80021092001F053F800210A2001F01F
:1030A0004FF800210C2001F04BF800210D2001F019
:1030B00047F800210F2001F043F8142001F0F4FE3E
:1030C00041F2B061102001F03BF80121112001F024
:1030D00037F80121172001F033F84FF49C711220CA
:1030E00001F02EF84FF40061132001F029F80921B6
:1030F000292001F025F809212A2001F021F80021DA
:10310000A42001F01DF80021502001F019F8EF2152
:10311000512001F015F80021522001F011F840F281
:103120003F11532001F00CF84FF41C51602001F0C6
:1031300007F80121612001F003F800216A2000F066
:10314000FFFF0021802000F0FBFF0021812000F024
:10315000F7FF0021822000F0F3FF0021832000F020
:10316000EFFF0021842000F0EBFF0021852000F01C
:10317000E7FF1321902000F0E3FF0021922000F0F0
:10318000DFFF0321932000F0DBFF5946952000F07C
:10319000D7FF40F27311072000F0D2FF322010E178
:1031A0000021072000F0CCFF322001F07DFE4FF41B
:1031B0008E71122000F0C4FF0121A42000F0C0FF96
:1031C0000F21082000F0BCFF08210A2000F0B8FF02
:1031D00008210D2000F0B4FF3946302000F0B0FF88
:1031E000072100E06FE3312000F0AAFF40F2036105
:1031F000322000F0A5FF4C464946332000F0A0FFE6
:103200005146342000F09CFF0221352000F098FF49
:1032100041F60F71362000F093FF3946372000F059
:103220008FFF0021382000F08BFF0021392000F0B3
:1032300087FF39463A2000F083FF00213B2000F051
:103240007FFF07213C2000F07BFF00213D2000F0A4
:1032500077FF322001F028FE0121072000F070FFE7
:103260000121172000F06CFF322001F01DFE4FF409
:10327000BD51102000F064FF40F21721112000F032
:103280005FFF4FF48F71122000F05AFF4FF470610E
:10329000132000F055FF00212A2000F051FF0A21E1
:1032A000292000F04DFF4FF49F71122000F048FFDD
:1032B0000021502000F044FFEF21512000F040FF9A
:1032C0000021522000F03CFF40F23F11532000F05B
:1032D00037FF4FF41C51602000F032FF01216120C4
:1032E00000F02EFF00216A2000F02AFF002180203C
:1032F00000F026FF0021812000F022FF0021822023
:1033000000F01EFF002104E05EE05CE125E2DBE26C
:1033100082E3832000F014FF0021842000F010FFDE
:103320000021852000F00CFF1321902000F008FF01
:103330005946922000F004FF0521932000F000FF81
:103340000021952000F0FCFE0021972000F0F8FEFF
:103350000021982000F0F4FE3146012000F0F0FE3C
:103360002146022000F0ECFE41F23801032000F07B
:10337000E7FE0021042000F0E3FE00210C2000F015
:10338000DFFE00210F2000F0DBFE0021202000F0F6
:10339000D7FE0021212000F0D3FE2121072000F0DC
:1033A000CFFE142001F080FD6121072000F0C8FE4F
:1033B000142001F079FD40F27311072000F0C0FEE7
:1033C000142001F071FDA1E30021084600F0B8FED1
:1033D0000021084600F0B4FE0021084600F0B0FECF
:1033E0000021084600F0ACFE0121A42000E0E5E049
:1033F00000F0A6FE142001F057FD4FF41C542146A6
:10340000602000F09DFE55465146082000F098FED1
:103410004FF40571302000F093FE43F21571312016
:1034200000F08EFE40F20461322000F089FE40F68A
:103430001661332000F084FE42F21121342000F0A6
:103440007FFE4FF4A851352000F07AFE48F2075174
:10345000362000F075FE41F20741372000F070FE83
:1034600041F20341382000F06BFE2021392000F0AA
:1034700067FE1A21902000F063FE0021102000F06A
:103480005FFE0721112000F05BFE0021122000F0FA
:1034900057FE0021132000F053FE142001F004FD1C
:1034A0004FF4E661102000F04BFE40F2371111207E
:1034B00000F046FE142001F0F7FC4FF4DC711220FE
:1034C00000F03EFE142001F0EFFC4FF47061132079
:1034D00000F036FE80212A2000F032FE482129200B
:1034E00000F02EFE142001F0DFFC3146012000F038
:1034F00027FE4946022000F023FE41F23801032056
:1035000000F01EFE2946082000F01AFE00210A20C5
:1035100000F016FE00210C2000F012FE00210D200C
:1035200000F00EFE30210E2000F00AFE0021502097
:1035300000F006FEEF21512000F002FE0021522093
:1035400000F0FEFD40F23F11532000F0F9FD21464E
:10355000602000F0F5FD0121612000F0F1FD002167
:103560006A2000F0EDFD1121902000F0E9FD4FF4FC
:10357000C061922000F0E4FD40F20241932000F08F
:10358000DFFD0221942000F0DBFD142001F08CFC13
:103590000121072000F0D4FD142001F085FC6121F9
:1035A000072000F0CDFD40F27311072000F0C8FDA8
:1035B0000021202000F0C4FD0021212000F0C0FDEA
:1035C000222100207DE10021084600F0B9FD002104
:1035D000084600F0B5FD142001F066FC0021084605
:1035E00000F0AEFD0021084600F0AAFD00210846CB
:1035F00000F0A6FD0021084600F0A2FD0121A42054
:1036000000F09EFD142001F04FFC4FF41C5160208F
:1036100000F096FD40F60601082000F091FD40F212
:1036200003731946302000F08BFD0121312000F09A
:1036300087FD0421322000F083FD4FF48171332097
:1036400000F07EFD5C465946342000F079FD40F2E2
:103650000311352000F074FD1F21362000F070FDAD
:103660001946372000F06CFD0121382000F068FD7C
:103670000421392000F064FD1521902000F060FD48
:103680004FF48261102000F05BFD40F247211120D1
:1036900000F056FD4FF4DE71122000F051FD4FF4A2
:1036A0006061132000F04CFD782001F0FDFB3146F5
:1036B000012000F045FD4FF40071022000F040FDB4
:1036C00041F23001032000F03BFD08210A2000F008
:1036D00037FD00210C2000F033FD20210E2000F0EA
:1036E0002FFD00210F2000F02BFD0021202000F0F5
:1036F00027FD0021212000F023FD3D212A2000F09C
:103700001FFD142001F0D0FB2D21292000F018FD11
:103710000021502000F014FD4DF2EF01512000F087
:103720000FFD0021522000F00BFD40F23F1153200D
:1037300000F006FD0021612000F002FD00216A205A
:1037400000F0FEFC2146922000F0FAFC05219320B7
:1037500000F0F6FC3146FFF7ADBB0121002000F080
:10376000EFFC0A2001F0A0FB41F22861102000F0DC
:10377000E7FC0E21122000F0E3FC40F63921132073
:1037800000F0DEFC0A2001F08FFB4021112000F048
:10379000D7FC5021152000F0D3FC0A2001F084FB57
:1037A0001E21122000F0CCFC0A2001F07DFB4FF41A
:1037B000B151102000F0C4FC42F63921132000F072
:1037C000BFFC0A2001F070FB3146012000F0B8FC7C
:1037D0005946022000F0B4FC41F23801032000F009
:1037E000AFFC5146082000F0ABFC08210A2000F095
:1037F000A7FC0021302000F0A3FC40F20241312060
:1038000000F09EFC4FF48371322000F099FC40F2EE
:103810000351332000F094FC4FF48271342000F007
:103820008FFC40F20131352000F08AFC3946362009
:1038300000F086FC40F20531372000F081FC4FF4A7
:103840000271382000F07CFC40F60B71392000F04A
:1038500077FC0221412000F073FC4FF41C516020E2
:1038600000E0D4E000F06CFC0121612000F068FC75
:103870004FF40471902000F063FC4FF485719220A6
:1038800000F05EFC0421932000F05AFC3146A02099
:1038900000F056FC0121072000F052FC21210720F6
:1038A00000F04EFC2321072000F04AFC33210720C2
:1038B00000F046FC40F23311072000F041FC0021EB
:1038C000A02000F03DFC21E13021152000F038FC63
:1038D00010219A2000F034FC2021112000F030FC4F
:1038E00043F22841102000F02BFC0221122000F0AE
:1038F00027FC41F23801132000F022FC282001F0BF
:10390000D3FA1221084600F01BFC282001F0CCFA63
:1039100043F22041102000F013FC43F23801132041
:1039200000F00EFC462001F0BFFA0021302000F02C
:1039300007FC40F20241312000F002FC40F2073166
:10394000322000F0FDFB4FF44171332000F0F8FB12
:103950000421342000F0F4FB40F20141352000F056
:10396000EFFB3946362000F0EBFB40F20531372003
:1039700000F0E6FB4FF4C2631946382000F0E0FB8C
:103980001946392000F0DCFB3146012000F0D8FB5D
:103990005946022000F0D4FB41F23001032000F030
:1039A000CFFB40F60801082000F0CAFB08210A20DE
:1039B00000F0C6FB4FF41C51602000F0C1FB012158
:1039C000612000F0BDFB4FF49F71902000F0B8FB28
:1039D0003146922000F0B4FB3146932000F0B0FB5A
:1039E0004FF44051A02000F0ABFB1021A32000F0C9
:1039F000A7FB0121072000F0A3FB2121072000F0F5
:103A00009FFB2321072000F09BFB3321072000F0C0
:103A100097FB40F233119EE6E22020801D20288093
:103A20000220288004202880642001F057FAE0203A
:103A30002080012028800A2001F036FAE020208032
:103A4000032028800C2001F02FFA012020800A207A
:103A500001F02AFAE62020802F202880FF202880ED
:103A60002880B0202080202028800020288003206B
:103A7000288040F21F3028800120288040F2DF108B
:103A8000288000202880B42020800420288040F254
:103A90001F402880002028802E2028800020288099
:103AA000288028802880B6202080022028804FF49B
:103AB0000370288000202880172028801520288067
:103AC000002028802880F0202080032028802920C2
:103AD0002080D020208000202880BE20208005204B
:103AE0002880FE202880012028800020288028802F
:103AF0002880B82020800320288001202880BA2038
:103B0000208001202880642000F026F80020FCF7A7
:103B1000D9FF05490120C1F880014046FCF79CFF10
:103B20001FB0BDE8F08F000000802142034808B5B7
:103B30000088ADF80000BDF8000008BD0008006C6A
:103B4000044910B50880052001F0C8F9BDE810400F
:103B5000FFF7ECBFFE07006C0C4A10B5BE211180C8
:103B6000941C0521218002F010FA4FF06632084BB8
:103B700002F01EFA02F0DCF9208001202080FF20F4
:103B8000208000202080208010BD0000FE07006CF7
:103B900066660440F0B5674E00233146B2798988E5
:103BA00046F6040741F66314012A01D02AB11DE04C
:103BB000B9421BD0A14202D118E0A14216D1082877
:103BC00014D2DFE800F00406080A0C0E10120620DA
:103BD0000CE007200AE0042008E0052006E00120B0
:103BE00004E0002002E0032000E00220A1F5134CD5
:103BF00045F2103245F21055BCF1410C07D0B942E4
:103C000005D0914203D0A94201D0A14275D1082824
:103C100012D2DFE800F0110406080A0C0E1080230F
:103C20000AE0402308E0C02306E0202304E06023EC
:103C300002E0A02300E0E023A94202D14FF4585053
:103C400000E03620914205D0A94203D0A14201D024
:103C500043F00803B94201D143F00203194600F0D2
:103C60006FFAB288A2420AD098063088718802D5CD
:103C7000884202D303E0884201D9318070802E4807
:103C8000811CAA427289028021D100230B80531C1F
:103C9000038000230B80931C038033885B1E1C0A67
:103CA0000C80D21C0280DAB20A80B2890280002322
:103CB0000B80531C038000230B80931C03807388AC
:103CC0005B1E1C0A0C80D21C0280D8B212E00022BB
:103CD0000A800A803288521E130A0B80D2B20A80F0
:103CE000B28902800020088008807088401E020A85
:103CF0000A80C0B20880F0BDFFE7082812D2DFE8D2
:103D000000F0040608110A0C0E1030230AE01023FC
:103D100008E0202306E0382304E0282302E01823EB
:103D200000E00823BDE8F040032043F4805100F098
:103D300007BA00007C010020FE07006C2DE9F04F5F
:103D40004E4F0B463A46BD880C0ADFF834B19189D4
:103D50005289A5F513464FEA102C0BF1020A413E99
:103D60001DD0A5F5A646103E19D03E46BE4696F893
:103D700006903688A5F5D047A6EB0008A8F1010803
:103D8000043F17D0A5F5C857633F28D0A5F5AA472B
:103D90007646103F51D0B9F1010F63D064E0ABF823
:103DA00000205246AAF800C0C0B2AAF80000ABF842
:103DB00000100FE0B9F1010F01D11FFA88F0ABF844
:103DC0000020050A5246AAF80050C0B2AAF8000026
:103DD000ABF800101480D8B21080BDE8F08FB9F1B4
:103DE000000F1BD0ABF800205246AAF800C0C0B2AA
:103DF000AAF80000761E300AAAF80000F0B210807F
:103E0000ABF8001011461480D8B21080BEF8020042
:103E1000401E020A0A80C0B20880DEE71FFA88F05E
:103E2000ABF8002000265246AAF80060AAF800600D
:103E3000060AAAF80060C0B2E1E7ABF80020AAF8D1
:103E400000C0521CABF80020C0B2AAF80000ABF8CA
:103E50000010AAF80040491CABF80010D8B2AAF82C
:103E60000000BAE71FFA88F00146104600F068F932
:103E7000B089BDE8F04F194600F062B97C0100201E
:103E8000FE07006C2DE9FC4F044691464844401E55
:103E900086B2C818401E83B2009004EB0900401E91
:103EA000C0F3072EDFF850C100980D46C0F3072B72
:103EB0006046BCF804204FEA112881894089A2F5A8
:103EC00013474FEA142A413F10D0A2F5A647103FEE
:103ED0000CD0A2F5D047043F08D09CF8067041F6FC
:103EE000631C0197012F13D1624511D1434F3880D4
:103EF000B81CA0F800A0E2B20280A0F800E0F2B284
:103F000002803980A0F80080E9B2018059461CE0A7
:103F1000394F62453F881DD1A7EB0902121B374C70
:103F2000009B92B29BB22080160AA01C0680D6B2DB
:103F300006804A44521E160A0680D2B202802180B0
:103F4000A0F80080E9B20180190A0180D9B201808D
:103F5000BDE8FC8FA2F5A04CBCF5A26C1FD0019867
:103F600001283FD0B04621462E4650204FF0510A3E
:103F70004FF05209532700F0E3F84146504600F055
:103F8000DFF83146484600F0DBF81946384600F0C5
:103F9000D7F829462046BDE8FC4FFFF7CFBE174AA9
:103FA0001080971CA7F800A000F1010CA2F800C037
:103FB000E4B23C80841C1480A7F800E0C01C108090
:103FC000F0B238801180A7F80080481C1080E8B259
:103FD0003880881C1080A7F800B0C91C1180D8B2A6
:103FE0003880B5E7B81B401E86B2381B9846401E85
:103FF000294683B2B9E700007C010020FE07006C6F
:104000002DE9F84F82461F460C468B46580700D0D4
:10401000012000EBD70079084843203AC0B202F0F3
:10402000FF090026009041E00C2F10D0102F12D075
:10403000182F3ED1204909EBC90001EB80004FF059
:104040000008855D28060AD51C4802880BE009EBAC
:1040500049001B49F1E71B4901EB0910EFE70A98FA
:1040600028B91648428821465046FCF7C5FD680627
:10407000050E1548641CA4B24088A04219D9A4EBCF
:104080000B00B84209D10AF101001FFA80FA0E486C
:104090005C46018851450CD906E008F1010000F0AA
:1040A000FF08B8F1080FCDD3761CF6B2009886420F
:1040B000BAD3BDE8F88F0000106C0008140000208F
:1040C000AC610008206600087C0100202DE9F84F53
:1040D000044600F0FF0810190D46DDE90A761FFAC4
:1040E00080FA58191FFA80F94FF0000B11E054457F
:1040F00002D3E819444685B24D450FD23B462946C6
:104100002046CDF800B0FFF77BFF04EB570084B2E8
:10411000761C3278A2F120005E28E8D9BDE8F88F3D
:1041200001490880704700000008006C02480349FC
:1041300000890880704700007C010020FE07006CA9
:10414000024A1080901C018070470000FE07006C3E
:10415000FEE7704730B50F23C27801780125F2B130
:10416000144A126801F1E02102F4E062C2F5E06253
:10417000120AC2F10404D3404278A24084781C4061
:104180001443220181F80024007800F01F018D40C3
:104190004009800000F1E020C0F8005130BD01F07E
:1041A0001F0085404809800000F1E020C0F88051E0
:1041B00030BD00000CED00E00249084302490860F0
:1041C000704700000000FA050CED00E0F8B5012191
:1041D00040F23D1000F02AF94FF48074ADF8004031
:1041E00048258DF8035003202C4E8DF802006946B7
:1041F0003046FCF7B3FB21463046FCF729FC18207B
:10420000ADF80000264E10248DF803406946304674
:10421000FCF7A4FB18213046FCF71AFCFF20ADF890
:1042200000008DF8035069461E48FCF797FB4020BC
:10423000ADF800001C4D8DF8034069462846FCF798
:104240008DFB40212846FCF703FC4FF44045ADF8B8
:1042500000508DF80340154C69462046FCF77EFB64
:1042600029462046FCF7F4FB01211148FCF7C4FB6A
:1042700000F032F98021122000F064FA08B1012028
:10428000F8BD322000F010FE0B2000F0B7F9212815
:1042900001D00220F8BD0020F8BD00000008014058
:1042A000000C0140001001400014014000200140BA
:1042B000000230002DE9F0470C4605464AB3C5F52B
:1042C000207000EBD070C0F34F07C4F5F07000EB26
:1042D000D070C0F34F060621122000F033FA2321DC
:1042E000172000F02FFAA021182000F02BFA072148
:1042F000192000F027FAF0211A2000F023FA0021FB
:10430000322000F01FFAA021292000F01BFAF02132
:1043100028E0C5F5A07000EBD070C0F34F07C4F1E2
:10432000F00000EBD070C0F34F064621122000F0E1
:1043300009FA3F21172000F005FA5021182000F05B
:1043400001FA0321192000F0FDF978211A2000F06C
:10435000F9F90021322000F0F5F95021292000F070
:10436000F1F978212C2000F0EDF9172000F046F942
:1043700000EB9700C1B2172000F0E4F9C5F3870104
:104380008A46182000F0DEF9192000F037F900EB1A
:104390005600C1B2192000F0D5F9C4F3470189468F
:1043A0001A2000F0CFF9322000F028F98046F007FB
:1043B000400E07F0030104F0010640EA011040EA54
:1043C000860105F00304214341EA0801322000F090
:1043D000B9F95146292000F0B5F949462C2000F0E2
:1043E000B1F92A2000F00AF944EA080444EA8601F7
:1043F000BDE8F0472A2000F0A5B97047044A00291B
:10440000516901D0014300E08143516170470000D0
:1044100000100240044A0029D16901D0014300E0A4
:104420008143D1617047000000100240044A002916
:10443000916901D0014300E0814391617047000020
:104440000010024030B5204A5168204B11F00C0199
:1044500003D0042901D0082901D0036012E051687B
:10446000536801F470114FF0020413F4803F04EB21
:10447000914102D053689B0301D5154B00E0134BCB
:104480005943016051680F2303EA1111114B5C5C21
:104490000168E14041605468072505EA14241C5D69
:1044A00021FA04F48460546805EAD4241B5DD940E1
:1044B000C1605268032303EA9232064B1B1F9A5CC9
:1044C000B1FBF2F1016130BD0010024000127A0030
:1044D00000093D002C00002038B501214FF49070F8
:1044E000FFF7A4FF4FF40055ADF8005048208DF8B9
:1044F00003000320114C8DF8020069462046FCF7AA
:104500002DFA29462046FCF7A3FA0820ADF8000052
:1045100010200B4D8DF8030069462846FCF71EFA63
:1045200008212846FCF794FA606820F47000606067
:10453000606840F44010606038BD00000020014019
:104540000014014070B5322000F0C8FC0C4D012071
:10455000C5F8B4010B4EC6F88C01322005F5DA75AA
:1045600006F5C67600F0BAFC00243460322000F074
:10457000B5FC2C60BDE87040322000F0AFBC0000FC
:1045800000002442008022422DE9F047184F002409
:10459000786820F470007860786840F400007860F3
:1045A000DFF85090144E08254FF00108A246322043
:1045B00000F094FCC6F88C816006040ED9F8340132
:1045C00008B1641CE4B2322000F088FCC6F88CA16B
:1045D0006D1E15F0FF05EAD1786820F47000786050
:1045E000786840F4401078602046BDE8F08700000D
:1045F00000200140000024420080224210B5044601
:1046000000F022F8422000F055F8642000F066FC2B
:10461000204600F04FF8642000F060FC00F02EF817
:10462000642000F05BFC00F00FF8432000F042F83B
:10463000642000F053FCFFF7A7FF0446FFF782FF5A
:1046400000F01CF8204610BD70B50A4E0120C6F8D7
:10465000B401094DC5F88C01322005F5C67506F583
:10466000DA7600F03BFC00243460322000F036FCA7
:104670002C6070BD000024420080224270B50B4CBB
:104680000020C4F8B401322004F5DA7400F026FCEE
:1046900007480125C0F88C51322000F01FFC25602E
:1046A000BDE87040322000F019BC00000000244238
:1046B000008022422DE9F04700241F4E1F4F05467F
:1046C000A0464FF00109280601D5484600E04046C3
:1046D000C6F8B4016806050E322000F0FFFBC7F8EB
:1046E0008C91322000F0FAFBC7F88C81641CE4B294
:1046F000082CE8D3124C606820F470006060606899
:1047000040F400006060322000F0E8FBC7F88C91B4
:10471000322000F0E3FBD6F8340100B10120C7F8E5
:104720008C81616821F470016160616841F440111D
:104730006160BDE8F0870000000024420080224252
:104740000020014070B50D4606460024FFF77CFFAF
:104750004220FFF7AFFF00B10124642000F0BEFB50
:104760003046FFF7A7FF00B10124642000F0B6FB3C
:104770002846FFF79FFF00B10124FFF77FFF204687
:1047800070BD70470CB50022264800920192016866
:1047900041F4803101604FF4A063016801F40031FD
:1047A00001910099491C0091019911B90099994210
:1047B000F3D10168890333D5012101911A490A68AF
:1047C00042F010020A600A6822F003020A600A68D6
:1047D00042F002020A6041684160416841604168FC
:1047E00041F480614160416821F47C11416041687D
:1047F00041F4E8114160016841F080710160016895
:104800008901FCD5416821F003014160416841F014
:10481000020141604168C1F381010229FAD10CBD56
:1048200001920CBD00100240002002404FF0E02138
:104830000428086903D020F004000861704740F0A4
:104840000400FAE7704700000F4810B5016841F016
:104850000101016041680D4A1140416001680C4A44
:1048600011400160016821F480210160416821F458
:10487000FE0141604FF41F018160FFF783FF05498E
:104880004FF00060086010BD001002400000FFF80B
:10489000FFFFF6FE08ED00E010B50A4C01212046AE
:1048A00000F0E1F800280AD00121204600F0C3F80A
:1048B0000549D1F8940118B10020C1F8940110BD48
:1048C0000120FAE700040040000023427FB50D46B6
:1048D000044601210220FFF79DFDADF80440ADF82C
:1048E00000500024104DADF80640ADF80240694676
:1048F000284600F0D7F801224121284600F0BFF8F1
:104900001D218DF80C108DF80D4003208DF80E0040
:1049100001208DF80F0003A8FFF71CFC0121284699
:1049200000F08CF87FBD00000004004010B50C4C76
:104930000121204600F097F801280AD109480169B1
:1049400088470021204600F0AAF86421204600F0A4
:10495000A4F82046BDE81040012100F06CB800002A
:10496000000800408800002070B51F4C1F4D2078C3
:10497000000633D40121284600F075F838B12178BB
:10498000480604D5C843800612D0491C2170022174
:10499000284600F068F808B3217848060FD541F0A2
:1049A00080002070284600F053F86080002112E05B
:1049B00041F0800020704FF6FF706080E7E7002034
:1049C000207060800146284600F069F820780221B6
:1049D00040F040002070284600F059F82846BDE815
:1049E0007040032100F027B81A000020000C00409E
:1049F00070B5094D0121284600F035F830B1074C5B
:104A000007A06178FBF732FC002060702846BDE803
:104A10007040012100F00FB8001000401A00002083
:104A20006672616D653A25646670730D0A00000058
:104A3000C94301827047C943018270470029018838
:104A400002D041F0010101E021F001010180704735
:104A5000808E7047808C704702460020128A0A427E
:104A600000D00120704702460020138A92890B4231
:104A700002EA010202D0002A00D001207047002A79
:104A8000828901D00A4300E08A4382817047028C08
:104A900022F002020A4302847047818570478184B4
:104AA0007047000030B502881B4C1C4DA0420DD051
:104AB000A8420BD0B0F1804F08D0194B984205D0D6
:104AC000184B984202D0184B984203D122F0700341
:104AD0004A881A43154B984206D0154B984203D08A
:104AE00022F44073CA881A4302808A8882850A8821
:104AF0000285A0420AD0A84208D00E4A904205D0B2
:104B00000D4A904202D00D4A904201D1097A0186A5
:104B10000121818230BD0000002C014000340140A1
:104B20000004004000080040000C0040001000405D
:104B30000014004000400140004401400048014092
:104B40007FB50D46044601210420FFF763FCADF854
:104B500004400020ADF80050104CADF80600ADF850
:104B6000020069462046FFF79DFF012241212046B1
:104B7000FFF785FF1E218DF80C1003218DF80D1015
:104B80008DF80E1001208DF80F0003A8FFF7E2FA50
:104B900001212046FFF752FF7FBD000000080040C2
:104BA00070B5154C40F22551204600F035F800282C
:104BB0000ED0204600F0BEF8104AC1B2108803049F
:104BC00006D444044FF0000306D50A2901D013800F
:104BD00070BD40F400400DE00D2909D0C0F30D0474
:104BE000074D401C80B229551080C728EFD870BDF2
:104BF00040F48040108070BD003801402200002049
:104C00008A0100200029818902D041F4005101E08D
:104C100021F400518181704770B501F01F05012614
:104C20000024C1F3421306FA05F2012B0FD0022B28
:104C30000FD0838A4FEA11210088134206FA01F649
:104C400000EA060001D000B10124204670BD83892E
:104C5000F0E7038AEEE710B5C1F3421301F01F0439
:104C60000121A140012B07D0022B07D01430002ACC
:104C7000026805D00A4304E00C30F8E71030F6E78C
:104C80008A43026010BD000030B50446008A85B03A
:104C90000D464CF6FF710840E98801432182A08946
:104CA0004EF6F3110840A9882A8911436A89024304
:104CB0001143A181A08A4FF6FF410840A989014311
:104CC000A1826846FFF7BEFB1948844201D10398D0
:104CD00000E00298A189090400EBC00101EB00107B
:104CE000296801D5490000E08900B0FBF1F0642299
:104CF000B0FBF2F109010B096FF018056B4300EBF3
:104D00008300A3891D044FF0320306D503EBC000D6
:104D1000B0FBF2F000F0070005E003EB0010B0FB81
:104D2000F2F000F00F000843208105B030BD000014
:104D3000003801408088C0F308007047FEE7303833
:104D40000A2801D2012070470020704770470000F8
:104D50002DE9FC5F0024DFF8FCB0009401949BF87F
:104D60000000012874D10520FEF714FF3A48802383
:104D700002884088C03A803800EBD070C0F34F0101
:104D800002EBD270C0F34F00C022FFF77BF8FFF7B1
:104D9000CDF93249A246C1F8B841314F10263E60E4
:104DA000381F06600122C1F8B8213E600660DFF8B6
:104DB000B490804600253E60D9F80800C8F800602D
:104DC000C0B23E60C8F80060602802D94FF6FF709C
:104DD00000E00020032C02D22DF8140024E0002172
:104DE000BDF80220ADF80020BDF80420491C89B2AE
:104DF000ADF80220ADF804000329F1D3BDF800009E
:104E0000BDF8021088420DD9ADF80600ADF80010CB
:104E1000BDF80410ADF80200884203D9ADF80210C5
:104E2000ADF80400BDF80200FFF77AF96D1CADB2D1
:104E3000C02DC0D3641CA4B2802CBBD34FF48070AF
:104E4000FBF7B6FC08498BF800A00878401C0870F6
:104E5000BDE8FC9F180000207C01002000002442D7
:104E6000140C0140001001401B00002010B56FF031
:104E70000400FFF7DBFC094809490068B0FBF1F0CA
:104E80000849C0B200EB40020870C2EBC0104FF6F8
:104E9000FF7202EAC000488010BD00000000002040
:104EA00000127A001E0000200B49498848434FF049
:104EB000E021486100238B61086940F0010008612E
:104EC0000869C20701D0C003FAD5086920F00100C3
:104ED00008618B61704700001E0000200B490978B3
:104EE00048434FF0E021486100238B61086940F09E
:104EF000010008610869C20701D0C003FAD508693A
:104F000020F0010008618B61704700001E00002046
:104F100004490A885206FCD5024AC1B2121D11800A
:104F200070470000003801401CB5FFF79FFF4FF4A9
:104F3000A060FFF741F94FF4165000F049F8FBF775
:104F4000E9FEFFF743F917494FF478401024088031
:104F500015A0CDE900402346C822E6213C20FFF7FA
:104F6000B5F815A0CDE900401023C822E6213C2069
:104F7000FFF7ACF800228021C020FFF79BF912490F
:104F80000020C1F8BC0141F61F414FF47A70FFF7D1
:104F90009DFCFBF7C7FB0020FBF75EFDFFF7D8FE8B
:104FA000FCE70000140000204F5637373235204907
:104FB0006E69742E2E2E00004F5637373235204939
:104FC0006E6974204F4B0000000024420068704757
:104FD00070B5054686B0012144F20400FFF726FAB9
:104FE0004FF40070ADF8100003248DF81240182023
:104FF0001D4E8DF8130004A93046FBF7AFFC3015A9
:10500000ADF8100004208DF8130004A93046FBF71A
:10501000A5FC25208DF814008DF815408DF816405C
:1050200001208DF8170005A8FFF794F80020ADF8CF
:105030000400ADF80600ADF80800ADF80C000C2037
:105040000A4CADF80A00009569462046FFF71CFEA1
:10505000012240F225512046FFF7FDFD01212046A7
:10506000FFF7D0FD06B070BD0008014000380140D8
:1050700070B594B0064613AB11AA694600F0D8F992
:10508000002824D18DF840001D4C042514E0206830
:1050900005EBC10113AB405812AA08A900F0C8F9EA
:1050A000002814D1694608A800F0EAFB88B19DF8F1
:1050B0004000401C8DF84000207D9DF84010884243
:1050C000E5D8207D9DF8401088420ED1042014B010
:1050D00070BD9DF848009DF84410884201D9022017
:1050E000F5E79DF84000A075EBE710A9304600F009
:1050F00053FA0028EBD19DF8400060750020E6E7E8
:10510000880000202DE9F0417E4E9AB0B57D307DBB
:10511000A8427CD90421306801EBC50119AB405885
:1051200018AA10A900F084F910A977A0FBF79EF83F
:1051300000240DF1180832E0308B0121A140084213
:1051400017D0222172A0FBF791F8204600F08CFACC
:10515000811970A02431FBF789F822216CA0FBF79C
:1051600085F8204600F080FA3044243048F82400C6
:105170000BE0204600F078FA3044416A48F82410E9
:10518000F07D00B364A0FBF771F89DF86000401E4D
:10519000844202D062A0FBF769F8641CE4B29DF877
:1051A00060008442C8D35FA0FBF760F800F0A6FA65
:1051B000707D0B2814D2DFE800F0080D313840482C
:1051C000525E6B78890058A0DDE7306850F83500F2
:1051D000804704E0306850F8351006988847074645
:1051E00000F054FA9DF8640001286ED04FA0FBF740
:1051F0003DF896F8EC0000280DD0D6F8F0000A2112
:10520000B0FBF1F201FB1202B0FBF1F100E002E0B1
:1052100047A0FBF72BF81AB0BDE8F081306850F8D2
:105220003520DDE906019047D9E7306806AC50F833
:10523000353094E807009847D1E7306806AF50F85A
:10524000354097E80F00A047C9E70A9800903068FA
:1052500006AF50F8354097E80F00A047BFE7DDE9FB
:105260000A01CDE90001306806AF50F8354097E8F3
:105270000F00A047B3E70AAB06AF93E807008DE83D
:105280000700306850F8354097E80F00A047A6E7C0
:105290000AAC06AF94E80F008DE80F00306850F8B4
:1052A000354097E80F00A04799E70BAC06AF94E8AC
:1052B0000F0001AC84E80F000A980090306850F8A5
:1052C000354097E80F00A04789E711E00CAC06AF26
:1052D00094E80F0002AC84E80F00DDE90A01CDE993
:1052E0000001306850F8354097E80F00A04776E796
:1052F000F07D394618B116A0FAF7B8FF79E717A084
:10530000FAE70000880000200D0A2573280000003D
:105310002563000025730000305825580000000068
:105320002C00000029000000256C75003B0D0A00D0
:1053300046756E6374696F6E2052756E2054696D88
:10534000653A25642E2531646D730D0A0000000056
:105350003D305825583B0D0A000000003D256C7576
:105360003B0D0A00F0B500252E462F462C4603784B
:105370002C2B03D0292B04D01BB103E014B9012638
:1053800000E05CB317B1222B26D026E0A3F1300C4D
:10539000BCF1090F15D9A3F1610CBCF1050F10D9AF
:1053A000A3F1410CBCF1050F0BD9582B09D0782B78
:1053B00007D0222B0CD0202B1ED02C2B1CD0FF274B
:1053C0000CE05EB9612B00D3203B01F8013B13E0F8
:1053D00026B901273C460FE0002426B100200870C2
:1053E00017702846F0BD3CB15C2B02D16D1CEDB2AC
:1053F000401C037801F8013B6D1CEDB2401CB6E780
:1054000030B5002515700AE001F8014B1478401CF6
:10541000641CE4B214709C4201D3012030BD0478B6
:10542000202C01D0002CEFD10D70002030BD0000E9
:105430002DE9FF4F002482B089469846A2462746B0
:10544000012526462246EB46029915E0202810D079
:1054500002F07F03052B0CD202B9802202F07F03F9
:10546000042B01D12A280AD1521C0BF80300D2B216
:1054700001E0852A04D0491C08780028E6D16AB1E9
:1054800002F07F0200200BF8020041A1584600F014
:10549000F7F938B1012188F8001000224FF0000818
:1054A000029B15E0002088F80000F6E708F10100F3
:1054B00000F0FF0813F8010F202801D02A2807D197
:1054C000184600F085F9282802D02A2800D0C246C4
:1054D0001878282801D00028E8D10299BAF1000FE5
:1054E00001D05144491C4FF000084346087888B168
:1054F000282804D0292806D0222810D011E083B90A
:10550000641CE4B20DE063B924B1641E14F0FF041E
:1055100002D00DE04FF00108012F27D02FE04BB152
:1055200000234CB12C280CD0202816D0282814D0C9
:105530005AB110E00123F4E7202815D009F8010B37
:1055400012E00125521CD2B207E0052E03D20BF85F
:105550000600761CF6B26D1CEDB2012C04D1022DB2
:1055600002D103257F1CFFB2491CBFE700200BF8C6
:10557000060007A1684600F083F900B900270498E7
:105580000770002089F8000006B04046BDE8F08FA3
:10559000766F6964000000002DE9F043002489461D
:1055A000304DB5B0214622466B18491CC9B29A76D7
:1055B0000A29F9D302E010F8011F99B101782829CE
:1055C000F9D1461C4FF0010833AA69463046FFF76F
:1055D000C9FE06449DF8CC0040B1012824D0FF2824
:1055E00036D10BE0012035B0BDE8F0839DF8000016
:1055F00070B334A9684600F0F3F808B10220F2E76E
:10560000204600F031F8284434994162298B08FA89
:1056100004F081432983042029198876641CE4B2AC
:105620000A2C15D90320DEE7684600F03EF9471C36
:10563000204600F019F841196846243100F02CF991
:10564000298B08FA04F00143281929838776E5E7B6
:105650003078292801D00028B6D189F800400020F0
:10566000C1E7000088000020024610B50020014676
:10567000054B05E05C18491CA47EC9B22044C0B2A9
:105680009142F7D310BD00008800002070B50B4D8B
:1056900001212846FFF7E0F9094C012806D1D4F88A
:1056A000F0004FF6FF710844C4F8F0002846FFF7F9
:1056B000D1F954F8F01F0844206070BD0008004084
:1056C0008800002000EBC00101EB00104FF0FF311B
:1056D00001EB800010B581B24FF47A70FFF730FA19
:1056E00001490120C87510BD880000200346012033
:1056F00000E05843491EC9B2FBD2704710B5094CAF
:1057000001212046FFF794F94FF6FF712046FFF77D
:10571000C4F900212046FFF7C2F903490020C1F86F
:10572000F00010BD00080040880000202DE9F04185
:10573000164E3088010426D51549C0B2154F0025F4
:105740000D54B9681248884704000FD0104800F083
:10575000B5F8012801D0040014D0012C09D0022C86
:1057600009D0032C09D0042C0CD108E0F86880473C
:1057700008E009A004E00BA002E00DA000E00FA0EB
:10578000FAF774FD3580BDE8F081000022000020AA
:105790008A01002088000020BAAFCAFDB4EDCEF324
:1057A000210D0A00B2CECAFDB4EDCEF3210D0A00E0
:1057B000B2CECAFDCCABB6E0210D0A00CEB4D5D234
:1057C000B5BDC6A5C5E4B5C4BAAFCAFD210D0A0072
:1057D00010F8011F202901D10028F9D1C8B2704763
:1057E0002DE9F0410024884605460A260C60017820
:1057F000A1F13002092A0DD9113A052A0AD95829EE
:1058000005D011F0FF0F0CD00120BDE8F081012C74
:1058100002D0F9E7412900D31026641CE4B2401CF1
:10582000E5E7102E01D084B112E0032C01D2022052
:10583000EBE72878302802D16878582801D0032077
:10584000E3E7A41EE4B2AD1C01E00420DDE70CB1E7
:10585000641EE4B22F783846303F092F01D9A0F1F9
:10586000370721463046FFF741FFD8F8001007FB05
:105870000011C8F8001015F8010F0028E7D1C4E79F
:1058800002780B789A4201D00120704712B1401C77
:10589000491CF5E70020704702780A700278002A58
:1058A00002D0401C491CF7E77047002102781AB16A
:1058B000491CC9B2401CF9E708467047F0B58DB0E5
:1058C00004461E2308AA6946FFF79AFD099000289E
:1058D00072D19DF82000271800253E4C8DF82050ED
:1058E0009DF8200054F820106846FFF7C9FF38B132
:1058F0009DF82000401CC0B28DF820000728EFD38F
:105900009DF820000426344C072855D2DFE800F02B
:105910000404395A605F5E0030A0FAF7A7FC30A09B
:10592000FAF7A4FC3EA0FAF7A1FC4DA0FAF79EFC02
:105930005BA0FAF79BFC6AA0FAF798FC78A0FAF74C
:1059400095FC85A0FAF792FC8AA0FAF78FFC8FA04D
:10595000FAF78CFC93A0FAF789FC98A0FAF786FC7A
:105960009DA0FAF783FCA3A0FAF780FCAFA0FAF79A
:105970007DFCBCA0FAF77AFCC7A0FAF777FCD3A0AD
:105980001BE016A0FAF772FCE0A0FAF76FFC8DF8A6
:1059900020500BE0216806EBC0000958EBA0FAF795
:1059A00065FC9DF82000401C8DF82000217D9DF8AD
:1059B00020008142EED84EE24FE2FAF757FC002079
:1059C0000DB0F0BD05A0FAF751FCC3E124E204E2FA
:1059D000E3E100003C000020880000200D0A0000E8
:1059E0002D2D2D2D2D2D2D2D2D2D2D2D2D2D2D2DE7
:1059F0002D2D2D2D2D2D2D2D55534D4152542056ED
:105A0000332E312D2D2D2D2D2D2D2D2D2D2D2D2DBB
:105A10002D2D2D2D2D2D2D2D2D2D2D200D0A000060
:105A20002020202055534D415254CAC7D3C9414C60
:105A300049454E54454BBFAAB7A2B5C4D2BBB8F630
:105A4000C1E9C7C9B5C4B4AEBFDAB5F7CAD4BBA5FE
:105A5000BDBBD7E9BCFE2CCDA8B9FD200D0A0000C6
:105A6000CBFC2CC4E3BFC9D2D4CDA8B9FDB4AEBF22
:105A7000DAD6FACAD6B5F7D3C3B3CCD0F2C0EFC3E7
:105A8000E6B5C4C8CEBACEBAAFCAFD2CB2A2D6B45F
:105A9000D0D02ED2F2B4CB2CC4E3BFC90D0A000083
:105AA000D2D4CBE6D2E2B8FCB8C4BAAFCAFDB5C412
:105AB000CAE4C8EBB2CECAFD28D6A7B3D6CAFDD772
:105AC000D62831302F3136BDF8D6C629A1A2D7D677
:105AD000B7FBB4AEA1A2BAAFCAFDC8EB0D0A000075
