:020000040800F2
:10000000A8F200202D020008CB3F0008550A000886
:10001000C93F000821070008B54B00080000000098
:10002000000000000000000000000000FB45000888
:10003000230700080000000073420008BD460008C6
:10004000470200084702000847020008470200086C
:10005000470200084702000847020008470200085C
:10006000470200084702000847020008470200084C
:10007000470200084702000847020008470200083C
:10008000470200084702000847020008470200082C
:1000900047020008470200084702000869070008F5
:1000A000470200084702000847020008470200080C
:1000B0004702000811470008A5470008470200084A
:1000C00047020008470200084702000847020008EC
:1000D00047020008194A00084702000847020008C2
:1000E00047020008470200084702000847020008CC
:1000F00047020008470200084702000847020008BC
:100100004702000847020008E147000847020008CC
:100110004702000847020008694800084702000833
:10012000470200084702000847020008470200088B
:1001300000F002F800F06BF80AA090E8000C82448E
:100140008344AAF10107DA4501D100F060F8AFF26B
:10015000090EBAE80F0013F0010F18BFFB1A43F0A5
:100160000103184758790000787900000A444FF0DD
:10017000000C10F8013B13F0070408BF10F8014B06
:100180001D1108BF10F8015B641E05D010F8016B4B
:10019000641E01F8016BF9D113F0080F1EBF10F8AF
:1001A000014BAD1C0C1B09D16D1E58BF01F801CBD2
:1001B000FAD505E014F8016B01F8016B6D1EF9D555
:1001C0009142D6D37047000000230024002500266A
:1001D000103A28BF78C1FBD8520728BF30C148BFAA
:1001E0000B607047642900F09D80752900F09A80AB
:1001F000782900F0D380632900F02782732900F06A
:100200002C82002070471FB51FBD10B510BD00F037
:1002100057FA1146FFF7F7FF04F0FCFD00F075FAFE
:1002200003B4FFF7F2FF03BC04F0CCFC094880479D
:1002300009480047FEE7FEE7FEE7FEE7FEE7FEE7C8
:10024000FEE7FEE7FEE7FEE704480549034A054BE3
:1002500070470000C146000831010008A8EE0020E8
:10026000A8F20020A8EE0020704700000FB4044957
:1002700010B503AA029800F0F5F910BC5DF814FB64
:100280002400002070B5044685690068C10601D5C8
:10029000302600E02026C00707D070BDD4E9012138
:1002A00030469047206A401C20626D1EF6D570BD16
:1002B00070B5044685690078C00707D170BDD4E9E0
:1002C000012120209047206A401C20626D1EF6D537
:1002D00070BD70B50C460546012A05D02878800609
:1002E00000D5EA69002302E0012305E05B1C93428C
:1002F00002D2E05C0028F9D1A869E618C01AA8610A
:10030000286A184428622846FFF7BCFF04E0D5E9B4
:10031000012114F8010B9047B442F8D32846FFF7A7
:10032000C7FF70BD2DE9F04106460024106875290D
:10033000314616A510D0AFF30080002802DA404203
:1003400013A507E031688A0701D512A502E0490725
:1003500004D511A5012401E0AFF3008000210A2299
:1003600006F1240709E0B0FBF2FCB0FBF2F302FB5C
:100370001C00303078541846491C0028F3D123461D
:100380002A463046BDE8F04100F0FCB8000000000D
:100390002D0000002B0000002000000070B5044676
:1003A0000D4621461068AFF300802188090502D56B
:1003B0000F4A7A4402E00E4A7A440E32002104F1D8
:1003C000240305E000F00F060009965D5E54491C09
:1003D0000028F7D120780023000704D5702D02D023
:1003E00009B1022311322046BDE8704000F0CAB8BE
:1003F000FE7500002DE9F05F894604464FF0000AC3
:10040000DFF874B1FB44C0F820A02046E1688847BB
:10041000002874D0252806D0D4E901219047206A0D
:10042000401C2062F1E700265F462046E1688847CD
:100430002028054607DB312D05D2781910F8200C4D
:1004400008B10643F1E7B00701D526F00406C4F869
:100450001CA00027C4F818A02A2D09D0284604F0B3
:10046000AAFB38B304EB8708303DC8F8185019E0F0
:1004700059F8041B204604EB87029161E168884724
:10048000012F054618D1E069002820DA26F0200661
:100490001DE0D8F8180000EB800005EB4000303874
:1004A000C8F818002046E1688847054604F083FB39
:1004B0000028EED1012F0AD02E2D08D12046E16868
:1004C00088477F1C0546022F46F02006C4DBA06942
:1004D000002803DA404246F00106A061F00701D08F
:1004E00026F010066C2D0BD0682D09D04C2D39D07C
:1004F0006A2D35D0742D35D07A2D33D016E038E002
:10050000E1682F4620468847B842054609D16C2F3E
:1005100026D04FF48060E1680643204688470546B0
:1005200004E06C2F1AD04FF4807006430DB3A5F190
:100530004100192802D8203546F400664A4629466B
:10054000204626604E46FFF74DFE80B101280BD0B5
:10055000F61D26F0070000F1080956E74020E4E701
:100560008020D8E70020D6E706F104094DE72846A9
:1005700052E7206ABDE8F09FD475000070477047CD
:10058000704770472DE9F0470D469946924604465C
:1005900000F124080168880604D5E06921F0100103
:1005A000216000E00120A84201DD471B00E0002798
:1005B000A1697A1902EB0900081AA0612078C00627
:1005C00002D42046FFF75EFE002608E0D4E90121B0
:1005D0001AF806009047206A401C761C20624E459F
:1005E000F4DB2078C0060AD52046FFF74BFE06E074
:1005F000D4E9012130209047206A401C2062381E37
:10060000A7F10107F4DC07E0D4E9012118F805009F
:100610009047206A401C2062281EA5F10105F3DCEA
:100620002046FFF745FE2078000602D50220BDE8EF
:10063000F0870120FBE710B5436913B1AFF30080E9
:1006400001E0FFF746FE012010BD127800F1240101
:100650000A7000224A700122EDE711684FF0FF3264
:10066000E9E70000074B70B50D467B4400F011F838
:100670000446284600F020F810B14FF0FF3070BD5E
:10068000204670BD8F47000001694A1C026108784E
:10069000704700B58FB0CDE90131002105910549C2
:1006A0007944CDE9031011466846FFF7A3FE0FB069
:1006B00000BD0000E5FFFFFF007B00F080007047F9
:1006C000754600F029F8AE4605006946534620F00D
:1006D0000700854618B020B5FFF7B6FDBDE82040FD
:1006E0004FF000064FF000074FF000084FF0000BEE
:1006F00021F00701AC46ACE8C009ACE8C009ACE8A1
:10070000C009ACE8C0098D4670470446AFF30080CD
:100710002046FFF785FD00000048704744EE0020AA
:10072000FEE770473EB50821002000F003F94FF4C2
:100730008070002400908DF8044008208DF805009A
:1007400001258DF80650684600F048F817208DF80E
:1007500008008DF809408DF80A408DF80B5002A86A
:1007600003F034FC3EBD000010B54FF48074204609
:1007700000F024F8012806D10A4B0B4A0021187812
:1007800030B1C2F88C112046BDE8104000F010B81E
:100790000648C0F898110121C0F89811C2F88C11D0
:1007A0001970F0E7180000200080214200802242EA
:1007B000014908607047000014040140064A0146E0
:1007C00000201268044B0A4014331B680B4202D00D
:1007D000002A00D0012070470004014030B51A4AB9
:1007E0008379016853B313688B431360111D0B6841
:1007F0000468A3430B60017911440B680468234328
:100800000B60114B083319680468A14319601C1D63
:1008100021680568A94321604179102905D0114458
:100820000A68006802430A6030BD19680268114313
:100830001960216800680143216030BD00791044CF
:1008400002688A43026030BD000401408000A0F1CC
:10085000C0400029016802D041F0010101E0024AD4
:100860001140016070470000FEFF0F0010B5D0E995
:1008700001121143D0E903231A4311434269114382
:1008800082691143C2691143026A1143426A1143EA
:10089000826A1143C26A1143026B114302689200DB
:1008A000A2F1C04211608168082907D1016889005E
:1008B000A1F1C0410A6842F040020A60416BD1E9EF
:1008C000002342EA03128B688C891B0243EA04432B
:1008D0001A430B8A42EA03520B7D896942EA03629A
:1008E0000A4301688900A1F1C0414A60C16AB1F5BB
:1008F000804F08D000686FF070418000A0F1C040C8
:10090000C0F8041110BD816BD1E9002342EA031243
:100910008B680C8A1B0243EA04531A430B7D8969D6
:1009200042EA036200680A438000A0F1C040C0F8B8
:10093000042110BD10B58A0721F003040649120FE7
:1009400021440F238C6893409C438C608B689040BB
:1009500003438B6010BD000000000140F0B5CC786F
:10096000002204F00F03E40601D58C7823430C78B1
:100970004FF00F0C14F0FF0F4FF0010E1BD0056865
:100980000E880EFA02F42640A64210D196000CFA08
:1009900006F725EA070703FA06F5CE783D43282E29
:1009A00002D0482E02D002E0446100E00461521CF3
:1009B000082AE5D305600A88FF2A1CD9446800226A
:1009C00002F108060EFA06F50E882E40AE420ED150
:1009D00096000CFA06F7BC4303FA06F7CE783C43C0
:1009E000282E00D14561CE78482E00D10561521CD9
:1009F000082AE5D34460F0BDF0B5144C002801DAB4
:100A0000E36900E06368450D2E0185B2C0F301572C
:100A1000B540C0F30342032F05D0C6020AD5032612
:100A20009640B34307E023F07062636823F070637D
:100A3000636002E0AB4343F0706201B12A430028D7
:100A400001DAE261F0BD6260F0BD0000000001402B
:100A500001617047FEE700002DE9F043174F06469D
:100A6000002438887D884543B888A0F5D0410439F2
:100A700002D1B879012807D00021084603F05EF9B9
:100A800003F090FA0E4815E00020B8714FF02A09E3
:100A9000A7F80A904FF02B08A7F80C80014603F046
:100AA0004DF90120B871A7F80A80A7F80C90E7E784
:100AB0000680641CAC42FBD3BDE8F0836CED0020E3
:100AC0000008006C2DE9F04F4A492A232B2489881D
:100AD00045F2105A4FF4305B4FF4285E4FF44875DE
:100AE0004FF0F00C49F241394FF4A07745F210363F
:100AF0004FF4F07280B13F484FF00108494580F84B
:100B000006800780A0F802C001D0B1423ED12C255A
:100B100005814381848157E036484FF000084945FC
:100B200080F80680A0F800C0478006D0A1F5D04C20
:100B3000BCF1040C01D0B1420CD12C2505814381BC
:100B4000A1F5D0438481043B01D0B14244D1078058
:100B5000428041E0514507D1A0F808B0A0F80AE072
:100B60004FF42C5181810EE0A1F5C856633E06D0AA
:100B70002221018120214181212181812CE02C2110
:100B80000181448183810280458025E0A1F5D04C1C
:100B9000BCF1040C09D051450BD1A0F808B0A0F865
:100BA0000AE04FF42C53838121E02C2505814481F8
:100BB00009E0A1F5C85CBCF1630C12D022230381CB
:100BC0002123438120238381A1F5D043043B01D01D
:100BD000B14201D102804780BDE8F04F002002F011
:100BE000D9BF4FF02C0CA0F808C043818481058048
:100BF0004280E9E76CED00202DE9F04FDFF80C8131
:100C0000934642460B46B8F804500C0ADFF800A1A0
:100C10009189060A5289A5F513470AF10209413F55
:100C200018D0A5F5A647103F14D0B7F500771CD013
:100C30004746A5F5C85CBE793F883F1A7F1EBCF1C8
:100C4000630C27D0A5F5D04CBCF1040C3AD0012E92
:100C50004AD04AE0AAF800204A46A9F80060C0B28B
:100C6000A9F80000AAF800103AE0AAF80020A9F8B4
:100C70000060521CAAF80020C0B2A9F80000AAF82F
:100C80000010A9F80040491CAAF80010D8B2A9F831
:100C9000000033E006B9B8B2AAF80020050A4A46B7
:100CA000A9F80050C7B2A9F80070A9F80050C0B266
:100CB000A9F80000AAF80010A9F80040D8B2A9F8D5
:100CC00000000DE0012E00D1B8B2AAF80020050AFC
:100CD0004A46A9F80050C0B2A9F80000AAF80010CE
:100CE0001480D8B2108009E0B8B20146104603F073
:100CF00063F9B8F80C00194603F05EF9B8F808106B
:100D0000AAF80010A9F800B0BDE8F08F6CED002043
:100D1000FE07006C2DE9F04F01210E029FB0304616
:100D200003F0A8FA01214FF4B47003F0BBFA0127D5
:100D3000ADF83C704FF010088DF83F8003248DF81B
:100D40003E400FA9FE48FFF709FE4CF23370ADF8A4
:100D50003C0018258DF83F508DF83E400FA9F9480A
:100D6000FFF7FCFD4FF68070ADF83C008DF83F506A
:100D70008DF83E400FA9F448FFF7F0FD41F2010065
:100D8000ADF83C008DF83F508DF83E400FA9EF487C
:100D9000FFF7E4FD00200F21CDE918011A901B9008
:100DA0001C901D901090CDE91104CDE91607149008
:100DB00006211590CDE90010CDE9020813900490AA
:100DC0003101CDE908010690059007908900CDE931
:100DD0000A010C9017A80D9010A80E906846FFF716
:100DE00045FD01210620FFF731FD322003F086FF8B
:100DF000002002F0A5FED64DD64C49F24139A8801C
:100E000046F6040A45F2103B45F210574FF6FF78BC
:100E1000FF2804D3404502D0B0F5134F70D1D32042
:100E2000208002F083FEA88002F080FEA88002F0FD
:100E30007DFE08EA00204146A88002F077FEAA88DD
:100E40001043A88048455BD0BF20208002F06EFE92
:100E5000A88002F06BFEA88002F068FEA88002F075
:100E600065FE01EA0020A88002F060FEAA88104317
:100E7000A880504544D0D420208002F057FEA8809E
:100E800002F054FEA88002F051FE01EA0020A88082
:100E900002F04CFEAA881043A880584530D04FF489
:100EA0005A40208002F042FEA8804FF45B40208030
:100EB00002F03CFE01EA0020A8804FF45C40208054
:100EC00002F034FEAA881043A880B0F5004F7DD010
:100ED000B84215D0A120208002F028FEA88002F0A0
:100EE00025FE01EA0020A88002F020FEA988084320
:100EF000A0F5AE41A880613902D141F66310A88007
:100F0000A98895A0FFF7B2F9A888924DAD1C484575
:100F10007ED1CF20208000202880C1202880302052
:100F20002880ED2020806420288003202880122043
:100F3000288081202880E82020808520288010209B
:100F400028807A202880CB202080392028802C20DF
:100F50002880002028803420288002202880F72044
:100F6000208020202880EA202080002028802880DF
:100F7000C02020801B202880C120208001202880C4
:100F8000C5202080302028802880C7202080B720DE
:100F9000288036202080482028803A202080552034
:100FA0002880B1202080002028801A202880B620A8
:100FB00020800A202880A2202880F2202080002083
:100FC0002880262020800120288000E051E0E020B9
:100FD00020800F2028802A20288028202880082090
:100FE00028800E2028800820288054202880A920CE
:100FF0002880432028800A2028800F202880002075
:101000002880288028802880E1202080002000E09F
:1010100031E028801520288017202880072028808C
:1010200011202880062028802B2028805620288008
:101030003C20288005202880102028800F20288030
:101040003F20288028800F2028802B20208000200F
:1010500028802880012028803F2028802A20208086
:101060000020288028802880EF20288011202080E0
:1010700084E0AF8044E7504576D1112020801420D1
:1010800003F03CFED02020800720288042202880CA
:101090001D202880D1202080002028801A20288030
:1010A00009202880D220208001202880222028802A
:1010B000C0202080102028803B202880002028800D
:1010C0000220288011202880C5202080032028802D
:1010D000C8202080002028802520288021202880EA
:1010E00005202880002028800A202880652028806C
:1010F0002520288077202880502028800F202880D5
:1011000000202880F820208001202880FE202080D8
:101110000020288002202880202020803620208067
:10112000082028803A202080552028802B202080ED
:10113000002028802880012028803F20288014E07B
:10114000000C014000140140001801400020014043
:101150006CED0020FE07006C204C43442049443ACB
:1011600025780D0A000000000EE02A2020800020D3
:101170002880288001202880DF202880782003F024
:10118000BDFD292001F02DBC58457DD1ED202080EA
:1011900001202880FE202880EE202080DE2028806C
:1011A00021202880F120208001202880DF2020803D
:1011B00010202880C42020808F202880C6202080F6
:1011C00000202880E220288028802880BF202080DE
:1011D000AA202880B02020800D2028800020288090
:1011E0000D202880002028801120288000202880C1
:1011F0001920288000202880212028800020288095
:101200002D202880002028803D2028800020288054
:101210005D202880002028805D20288000202880F4
:10122000B120208080202880002028808B202880EA
:10123000002028809620288000202880B22020804E
:101240000020288028800220288000202880032079
:10125000288000202880B32020800020288028803B
:10126000288028802880288028802880288028803E
:10127000288028802880288028802880288028802E
:1012800028802880288000E0FEE3288028802880AD
:10129000B42020808B202880002028809620288061
:1012A00000202880A120288000202880B5202080D0
:1012B0000220288000202880032028800020288009
:1012C0000420288000202880B6202080002028804C
:1012D0002880B72020800020288028803F20288078
:1012E000002028805E20288000202880642028801C
:1012F000002028808C20288000202880AC20288096
:1013000000202880DC202880002028807020288071
:10131000002028809020288000202880EB20288032
:1013200000202880DC20288000202880B820208011
:1013300000202880288028802880288028802880F5
:101340002880BA202080242028800020288028801F
:101350002880C12020802020288000202880542040
:10136000288000202880FF20288000202880C2209C
:1013700020800A2028800020288004202880002047
:101380002880C32020803C202880002028803A200C
:1013900028800020288039202880002028803720BD
:1013A0002880002028803C202880002028803620AB
:1013B00028800020288032202880002028802F20AC
:1013C0002880002028802C202880002028802920A8
:1013D00028800020288026202880002028802420A3
:1013E0002880002028802420288000202880232096
:1013F0002880002028803C2028800020288036205B
:1014000028800020288032202880002028802F205B
:101410002880002028802C20288000202880292057
:101420002880002028802620288000202880242052
:101430002880002028802420288000202880232045
:10144000288000202880C42020806220288000205E
:1014500028800520288000202880842028800020E3
:101460002880F02028800020288018202880002054
:101470002880A42028800020288018202880002090
:10148000288050202880002028800C2028800020E0
:101490002880172028800020288095202880002080
:1014A0002880F320288000202880E6202880002043
:1014B0002880C520208032202880002028804420D9
:1014C0002880002028806520288000202880762021
:1014D0002880002028808820288000202880C6209E
:1014E00020802020288000202880172028800020AD
:1014F00028800120288000202880C720208000200C
:101500002880288028802880C820208000202880EB
:10151000288028802880C9202080002028802880DA
:10152000288028802880288028802880288028807B
:10153000288028802880288028802880E02020801B
:1015400016202880002028801C2028800020288049
:101550002120288000202880362028800020288014
:1015600046202880002028805220288000202880C3
:1015700064202880002028807A202880002028806D
:101580008B20288000202880992028800020288017
:10159000A820288000202880B920288000202880CA
:1015A000C420288000202880CA202880002028808D
:1015B000D220288000202880D92028800020288060
:1015C000E020288000202880F32028800020288028
:1015D000E120208016202880002028801C202880E0
:1015E0000020288022202880002028803620288083
:1015F0000020288045202880002028805220288034
:101600000020288064202880002028807A202880DC
:10161000002028808B202880002028809920288086
:1016200000202880A820288000202880B920288039
:1016300000202880C420288000202880CA202880FC
:1016400000202880D220288000202880D8202880D0
:1016500000202880E020288000202880F320288097
:1016600000202880E220208005202880002028807B
:101670000B202880002028801B2028800020288024
:1016800034202880002028804420288000202880C2
:101690004F2028800020288061202880002028807A
:1016A0007920288000202880882028800020288019
:1016B0009720288000202880A620288000202880CD
:1016C000B720288000202880C22028800020288081
:1016D000C720288000202880D12028800020288052
:1016E000D620288000202880DD2028800020288027
:1016F000F320288000202880E320208005202880F7
:10170000002028800A202880002028801C20288093
:101710000020288033202880002028804420288032
:1017200000202880502028800020288062202880E7
:101730000020288078202880002028808820288089
:10174000002028809720288000202880A62028803C
:1017500000202880B720288000202880C2202880F0
:1017600000202880C720288000202880D1202880C1
:1017700000202880D520288000202880DD20288097
:1017800000202880F320288000202880E42020806A
:101790000120288000202880012028800020288027
:1017A00002202880002028802A20288000202880ED
:1017B0003C202880002028804B2028800020288082
:1017C0005D20288000202880742028800020288028
:1017D00084202880002028809320288000202880D2
:1017E000A220288000202880B32028800020288084
:1017F000BE20288000202880C42028800020288047
:10180000CD20288000202880D32028800020288018
:10181000DD20288000202880F320288000202880D8
:10182000E520208000202880288028802880022031
:1018300028800020288029202880002028803C2023
:101840002880002028804B202880002028805D20D0
:101850002880002028807420288000202880842070
:101860002880002028809320288000202880A22023
:10187000288000202880B320288000202880BE20D7
:10188000288000202880C420288000202880CD20A7
:10189000288000202880D320288000202880DC2079
:1018A000288000202880F320288000202880E6203F
:1018B00020801120288000202880342028800020CB
:1018C000288056202880002028807620288000202C
:1018D000288077202880002028806620288000200B
:1018E00028808820288000202880992028800020B7
:1018F0002880BB2028800020288099202880002074
:1019000028806620288000202880552028800020FC
:10191000288055202880002028804520288000200D
:101920002880432028800020288044202880002010
:101930002880E72020803220288000202880552021
:10194000288000202880762028800020288066209B
:101950002880002028806720288000202880672099
:101960002880002028808720288000202880992037
:10197000288000202880BB202880002028809920F3
:10198000288000202880772028800020288044207C
:1019900028800020288056202880002028802320AE
:1019A000288000202880332028800020288045209F
:1019B000288000202880E82020800020288028809F
:1019C00099202880002028808720288000202880D7
:1019D00088202880002028807720288000202880E8
:1019E00066202880002028808820288000202880E9
:1019F000AA20288000202880BB2028800020288062
:101A000099202880002028806620288000202880B7
:101A100055202880002028805520288000202880FC
:101A2000442028800020288044202880002028800E
:101A30005520288000202880E9202080AA202880A6
:101A400000202880288028802080AA202880CF207D
:101A500020800020288028802880288028802880D6
:101A60002880288028802880288028802880288036
:101A7000288028802880F020208000202880502086
:101A800028800020288000E02CE028802880F32097
:101A9000208000202880F920208006202880102027
:101AA000288029202880002028803A202080552066
:101AB000288011202080642003F020F92920208034
:101AC000352020800020288051202080FF20288081
:101AD000532020802C2028805520208082202880A0
:101AE0002C20FCE3B8427DD14FF4704355211846B9
:101AF00002F062FA4FF20105AA21284602F05CFAD0
:101B00006E1C5221304602F057FAAF1C08213846AD
:101B100002F052FA4FF204090121484602F04CFA51
:101B20000D214FF4304002F047FA0D214BF2010035
:101B300002F042FA0D214BF2020002F03DFA4FF49E
:101B4000364A3421504602F037FA34214BF2016014
:101B500002F032FA34214BF2026002F02DFA4FF417
:101B6000314B0D21584602F027FA0D214BF201109E
:101B700002F022FA0D214BF2021002F01DFA34217C
:101B80004FF4374002F018FA34214BF2017002F0A2
:101B900013FA34214BF2027002F00EFA00214FF4D6
:101BA000324002F009FA00214BF2012002F004FA5F
:101BB00000214BF2022002F0FFF924214FF43840BB
:101BC00002F0FAF924214BF6010002F0F5F9242184
:101BD0004BF6020002F0F0F901214FF43F4002F011
:101BE000EBF900E0FEE30F214FF4334002F0E4F99B
:101BF0000F214BF2013002F0DFF90F214BF20230DE
:101C000002F0DAF934214FF4394002F0D5F93421E9
:101C10004BF6011002F0D0F934214BF6021002F01D
:101C2000CBF908214FF4354002F0C6F908214BF2F8
:101C3000015002F0C1F908214BF2025002F0BCF948
:101C400003214FF4424002F0B7F924214FF43A4007
:101C500002F0B2F924214BF6012002F0ADF9242163
:101C60004BF6022002F0A8F900214FF43C4002F0AC
:101C7000A3F978214BF6014002F09EF900214BF6C2
:101C8000024002F099F900214FF43D4002F094F92E
:101C900078214BF6015002F08FF900214BF60250EB
:101CA00002F08AF900214FF43E4002F085F96421E8
:101CB0004BF6016002F080F900214FF4514002F030
:101CC0007BF933214DF2011002F076F900214DF23B
:101CD000021002F071F934214DF2031002F06CF998
:101CE00000214DF2041002F067F93A214DF205107F
:101CF00002F062F900214DF2061002F05DF94A216E
:101D00004DF2071002F058F900214DF2081002F0D0
:101D100053F95C214DF2091002F04EF900214DF209
:101D20000A1002F049F981214DF20B1002F044F93A
:101D300000214DF20C1002F03FF9A6214DF20D10DA
:101D400002F03AF900214DF20E1002F035F9E521CA
:101D50004DF20F1002F030F901214DF2101002F097
:101D60002BF913214DF2111002F026F901214DF249
:101D7000121002F021F954214DF2131002F01CF957
:101D800001214DF2141002F017F982214DF21510C5
:101D900002F012F901214DF2161002F00DF9CA21DC
:101DA0004DF2171002F008F902214DF2181002F05E
:101DB00003F900214DF2191002F0FEF802214DF254
:101DC0001A1002F0F9F801214DF21B1002F0F4F89C
:101DD00002214DF21C1002F0EFF834214DF21D10DB
:101DE00002F0EAF802214DF21E1002F0E5F8672138
:101DF0004DF21F1002F0E0F802214DF2201002F027
:101E0000DBF884214DF2211002F0D6F802214DF2C8
:101E1000221002F0D1F8A4214DF2231002F0CCF8E8
:101E200002214DF2241002F0C7F8B7214DF225101F
:101E300002F0C2F802214DF2261002F0BDF8CF21C7
:101E40004DF2271002F0B8F802214DF2281002F0EE
:101E5000B3F8DE214DF2291002F0AEF802214DF266
:101E60002A1002F0A9F8F2214DF22B1002F0A4F88A
:101E700002214DF22C1002F09FF8FE214DF22D10A0
:101E800002F09AF803214DF22E1002F095F810217D
:101E90004DF22F1002F090F803214DF2301002F0B5
:101EA0008BF833214DF2311002F086F803214DF208
:101EB000321002F081F86D214DF2331002F07CF8FF
:101EC00000214FF4524002F077F833214DF2012007
:101ED00002F072F800214DF2022002F06DF8342178
:101EE0004DF2032002F068F800214DF2042002F0C8
:101EF00063F83A214DF2052002F05EF800214DF220
:101F0000062002F059F84A214DF2072002F054F859
:101F100000214DF2082002F04FF85C214DF209201B
:101F200002F04AF800214DF20A2002F045F8812122
:101F30004DF20B2002F040F800214DF20C2002F08F
:101F40003BF8A6214DF20D2002F036F800214DF2AB
:101F50000E2002F031F8E5214DF20F2002F02CF8AE
:101F600001214DF2102002F027F813214DF211202B
:101F700002F022F801214DF2122002F01DF8542146
:101F80004DF2132002F018F801214DF2142002F056
:101F900013F882214DF2152002F00EF801214DF2C6
:101FA000162002F009F8CA214DF2172002F004F8B9
:101FB00002214DF2182001F0FFFF00214DF21920FF
:101FC00001F0FAFF02214DF21A2001F0F5FF012184
:101FD0004DF21B2001F0F0FF02214DF21C2001F018
:101FE000EBFF34214DF21D2001F0E6FF02214DF2FE
:101FF0001E2001F0E1FF67214DF21F2001F0DCFF00
:1020000002214DF2202001F0D7FF84214DF2212042
:1020100001F0D2FF02214DF2222001F0CDFFA421D8
:102020004DF2232001F0C8FF02214DF2242001F0DF
:10203000C3FFB7214DF2252001F0BEFF02214DF272
:10204000262001F0B9FFCF214DF2272001F0B4FF87
:1020500002214DF2282001F0AFFFDE214DF22920B0
:1020600001F0AAFF02214DF22A2001F0A5FFF22182
:102070004DF22B2001F0A0FF02214DF22C2001F0A7
:102080009BFFFE214DF22D2001F096FF03214DF222
:102090002E2001F091FF10214DF22F2001F08CFF36
:1020A00003214DF2302001F087FF33214DF2312022
:1020B00001F082FF03214DF2322001F07DFF6D21FE
:1020C0004DF2332001F078FF00214FF4534001F02E
:1020D00073FF33214DF2013001F06EFF00214DF20C
:1020E000023001F069FF34214DF2033001F064FF4A
:1020F00000214DF2043001F05FFF3A214DF205302E
:1021000001F05AFF00214DF2063001F055FF4A213F
:102110004DF2073001F050FF00214DF2083001F080
:102120004BFF5C214DF2093001F046FF00214DF2DA
:102130000A3001F041FF81214DF20B3001F03CFFEC
:1021400000214DF20C3001F037FFA6214DF20D3089
:1021500001F032FF00214DF20E3001F02DFFE5219C
:102160004DF20F3001F028FF01214DF2103001F047
:1021700023FF13214DF2113001F01EFF01214DF21A
:10218000123001F019FF54214DF2133001F014FF09
:1021900001214DF2143001F00FFF82214DF2153074
:1021A00001F00AFF01214DF2163001F005FFCA21AE
:1021B0004DF2173001F000FF02214DF2183001F00E
:1021C000FBFE00214DF2193001F0F6FE02214DF226
:1021D0001A3001F0F1FE01214DF21B3001F0ECFE4E
:1021E00002214DF21C3001F0E7FE34214DF21D308A
:1021F00001F0E2FE02214DF21E3001F0DDFE67210A
:102200004DF21F3001F0D8FE02214DF2203001F0D6
:10221000D3FE84214DF2213001F0CEFE02214DF299
:10222000223001F0C9FEA4214DF2233001F0C4FE9A
:1022300002214DF2243001F0BFFEB7214DF22530CE
:1022400001F0BAFE02214DF2263001F0B5FECF2199
:102250004DF2273001F0B0FE02214DF2283001F09E
:10226000ABFEDE214DF2293001F0A6FE02214DF237
:102270002A3001F0A1FEF2214DF22B3001F09CFE3C
:1022800002214DF22C3001F097FEFE214DF22D304F
:1022900001F092FE03214DF22E3001F08DFE10214F
:1022A0004DF22F3001F088FE03214DF2303001F065
:1022B00083FE33214DF2313001F07EFE03214DF2D9
:1022C000323001F079FE6D214DF2333001F074FEB1
:1022D00000214FF4544001F06FFE332100E080E311
:1022E0004DF2014001F068FE00214DF2024001F084
:1022F00063FE34214DF2034001F05EFE00214DF2F9
:10230000044001F059FE3A214DF2054001F054FE1F
:1023100000214DF2064001F04FFE4A214DF20740E8
:1023200001F04AFE00214DF2084001F045FE5C211B
:102330004DF2094001F040FE00214DF20A4001F04B
:102340003BFE81214DF20B4001F036FE00214DF2A3
:102350000C4001F031FEA6214DF20D4001F02CFEA3
:1023600000214DF20E4001F027FEE5214DF20F4015
:1023700001F022FE01214DF2104001F01DFE13215B
:102380004DF2114001F018FE01214DF2124001F012
:1023900013FE54214DF2134001F00EFE01214DF2C7
:1023A000144001F009FE82214DF2154001F004FEB7
:1023B00001214DF2164001F0FFFDCA214DF21740F8
:1023C00001F0FAFD02214DF2184001F0F5FD002167
:1023D0004DF2194001F0F0FD02214DF21A4001F0DA
:1023E000EBFD00E0FFE201214DF21B4001F0E4FDB6
:1023F00002214DF21C4001F0DFFD34214DF21D4061
:1024000001F0DAFD02214DF21E4001F0D5FD6721F9
:102410004DF21F4001F0D0FD02214DF2204001F0AD
:10242000CBFD84214DF2214001F0C6FD02214DF289
:10243000224001F0C1FDA4214DF2234001F0BCFD7A
:1024400002214DF2244001F0B7FDB7214DF22540A5
:1024500001F0B2FD02214DF2264001F0ADFDCF2189
:102460004DF2274001F0A8FD02214DF2284001F075
:10247000A3FDDE214DF2294001F09EFD02214DF227
:102480002A4001F099FDF2214DF22B4001F094FD1C
:1024900002214DF22C4001F08FFDFE214DF22D4026
:1024A00001F08AFD03214DF22E4001F085FD10213F
:1024B0004DF22F4001F080FD03214DF2304001F03C
:1024C0007BFD33214DF2314001F076FD03214DF2C9
:1024D000324001F071FD6D214DF2334001F06CFD91
:1024E00000214FF4554001F067FD33214DF20150BA
:1024F00001F062FD00214DF2025001F05DFD34213A
:102500004DF2035001F058FD00214DF2045001F04E
:1025100053FD3A214DF2055001F04EFD00214DF2E0
:10252000065001F049FD4A214DF2075001F044FDEB
:1025300000214DF2085001F03FFD5C214DF20950A1
:1025400001F03AFD00214DF20A5001F035FD8121E4
:102550004DF20B5001F030FD00214DF20C5001F016
:102560002BFDA6214DF20D5001F026FD00214DF26C
:102570000E5001F021FDE5214DF20F5001F01CFD40
:1025800001214DF2105001F017FD13214DF21150B1
:1025900001F012FD01214DF2125001F00DFD542108
:1025A0004DF2135001F008FD01214DF2145001F0DD
:1025B00003FD82214DF2155001F0FEFC01214DF288
:1025C000165001F0F9FCCA214DF2175001F0F4FC4D
:1025D00002214DF2185001F0EFFC00214DF219508C
:1025E00001F0EAFC02214DF21A5001F0E5FC012154
:1025F0004DF21B5001F0E0FC02214DF21C5001F0A5
:10260000DBFC34214DF21D5001F0D6FC02214DF2CD
:102610001E5001F0D1FC67214DF21F5001F0CCFC9F
:1026200002214DF2205001F0C7FC84214DF22150CF
:1026300001F0C2FC02214DF2225001F0BDFCA421A8
:102640004DF2235001F0B8FC02214DF2245001F06C
:10265000B3FCB7214DF2255001F0AEFC02214DF242
:10266000265001F0A9FCCF214DF2275001F0A4FC27
:1026700002214DF2285001F09FFCDE214DF229503D
:1026800001F09AFC02214DF22A5001F095FCF22152
:102690004DF22B5001F090FC02214DF22C5001F034
:1026A0008BFCFE214DF22D5001F086FC03214DF2F2
:1026B0002E5001F081FC10214DF22F5001F07CFCD6
:1026C00003214DF2305001F077FC33214DF23150AF
:1026D00001F072FC03214DF2325001F06DFC6D21CE
:1026E0004DF2335001F068FC00214FF4564001F0E8
:1026F00063FC33214DF2016001F05EFC00214DF2DC
:10270000026001F059FC34214DF2036001F054FCE9
:1027100000214DF2046001F04FFC3A214DF20560BA
:1027200001F04AFC00214DF2066001F045FC4A210F
:102730004DF2076001F040FC00214DF2086001F00D
:102740003BFC5C214DF2096001F036FC00214DF2AA
:102750000A6001F031FC81214DF20B6001F02CFC8C
:1027600000214DF20C6001F027FCA6214DF20D6016
:1027700001F022FC00214DF20E6001F01DFCE5216C
:102780004DF20F6001F018FC01214DF2106001F0D4
:1027900013FC13214DF2116001F00EFC01214DF2EA
:1027A000126001F009FC54214DF2136001F004FCA9
:1027B00001214DF2146001F0FFFB82214DF2156002
:1027C00001F0FAFB01214DF2166001F0F5FBCA2180
:1027D0004DF2176001F0F0FB02214DF2186001F09C
:1027E000EBFB00214DF2196001F0E6FB02214DF2F6
:1027F0001A6001F0E1FB01214DF21B6001F0DCFBEE
:1028000002214DF21C6001F0D7FB34214DF21D6016
:1028100001F0D2FB02214DF21E6001F0CDFB6721D9
:102820004DF21F6001F0C8FB02214DF2206001F063
:10283000C3FB84214DF2216001F0BEFB02214DF269
:10284000226001F0B9FBA4214DF2236001F0B4FB3A
:1028500002214DF2246001F0AFFBB7214DF225605B
:1028600001F0AAFB02214DF2266001F0A5FBCF2169
:102870004DF2276001F0A0FB02214DF2286001F02B
:102880009BFBDE214DF2296001F096FB02214DF207
:102890002A6001F091FBF2214DF22B6001F08CFBDC
:1028A00002214DF22C6001F087FBFE214DF22D60DC
:1028B00001F082FB03214DF22E6001F07DFB10211F
:1028C0004DF22F6001F078FB03214DF2306001F0F2
:1028D00073FB33214DF2316001F06EFB03214DF2A9
:1028E000326001F069FB6D214DF2336001F064FB51
:1028F0005521184601F060FBAA21284601F05CFB37
:102900005221304601F058FB0821384601F054FBB3
:102910000021484601F050FBCC21584601F04CFB09
:1029200000214BF2011001F047FB0521504601F058
:1029300043FB70214FF4374001F03EFB70214BF216
:10294000017001F039FB01214FF4384001F034FBF4
:1029500003214BF6010001F02FFB03214BF602008F
:1029600001F02AFB03214BF6030001F025FB0221B5
:102970004FF43C4001F020FB00214BF6014001F0F8
:102980001BFB00214BF6024001F016FBD0214FF457
:10299000494001F011FB02214CF6011001F00CFB43
:1029A00050214CF6021001F007FB50214CF60310A9
:1029B00001F002FB50214CF6041001F0FDFA002159
:1029C0004FF4545001F0F8FA55214FF4685001F0DB
:1029D000F3FA4FF488502080782002F0A9F94FF4E0
:1029E00024502080FEE3A0F513414FF4E06940F24B
:1029F000022A4FF4274B253924D040F20777C91E0D
:102A00007ED04FF4887B08317BD011397AD0A0F585
:102A1000A841083977D0A0F5A8514FF4407B05397B
:102A200072D0B1F5204170D0B1F580516ED0A0F5D3
:102A30008A4131396BD0091F6AD0A0F5C85163397A
:102A400067D0CFE747F6F001E52001F0B5FA31464F
:102A5000012001F0B1FA4946022001F0ADFA41F23D
:102A60003001032001F0A8FA0021042001F0A4FAAB
:102A70005146082001F0A0FA0021092001F09CFA3B
:102A800000210A2001F098FA00210C2001F094FAAC
:102A900000210D2001F090FA00210F2001F08CFAA6
:102AA0000021102001F088FA0721112001F084FA9A
:102AB0000021122001F080FA0021132001F07CFA9D
:102AC0000021072001F078FA41F29061102001F016
:102AD00073FA40F22721112001F06EFA9D21122095
:102AE00001F06AFA4FF4C851132001F065FA25216C
:102AF000292001F061FA0D212B2001F05DFA09E097
:102B000077E033E1D8E1AEE24AE3FDE3FDE3FDE344
:102B1000FDE3FDE30721302001F04EFA40F20331DE
:102B2000312001F049FA0321322001F045FA40F248
:102B30000621352001F040FA0821362001F03CFA48
:102B400040F20641372001F037FA4FF44171382046
:102B500001F032FA0721392001F02EFA40F2026129
:102B60003C2001F029FA08213D2001F025FA00213E
:102B7000502001F021FAEF21512001F01DFA00212F
:102B8000522001F019FA40F23F11532001F014FADB
:102B90005946602001F010FA0121612001F00CFA81
:102BA00000216A2001F008FA0021802001F004FAD7
:102BB0000021812001F000FA0021822001F0FCF9BF
:102BC0000021832001F0F8F90021842001F0F4F9BC
:102BD0000021852001F0F0F91021902001F0ECF99E
:102BE0004FF4C061922001F0E7F940F23311072061
:102BF000FDE341F28F01EC2001F0DEF941F23421D6
:102C0000EF2001F0D9F93146012001F0D5F949460C
:102C1000022001F0D1F941F23001032001F0CCF99A
:102C20000021042001F0C8F95146082001F0C4F940
:102C30000021092001F0C0F900210A2001F0BCF9AF
:102C400001210C2001F0B8F900210D2001F0B4F9A8
:102C500000210F2001F0B0F90021102001F0ACF9A3
:102C60000721112001F0A8F90021122001F0A4F998
:102C70000021132001F0A0F90121072001F09CF9A7
:102C8000322002F03BF841F29041102001F094F91B
:102C900040F22721112001F08FF9322002F02EF8A6
:102CA0008A21122001F088F9322002F027F84FF42F
:102CB000D051132001F080F90621292001F07CF980
:102CC0000D212B2001F078F9322002F017F80021B5
:102CD000202001F071F90021212001F06DF932204E
:102CE00002F00CF80021302001F066F940F2046196
:102CF000312001F061F940F20531322001F05CF938
:102D00000021352001F058F940F60941362001F044
:102D100053F94FF40171372001F04EF940F20131BF
:102D2000382001F049F93946392001F045F90021F0
:102D30003C2001F041F940F60A213D2001F03CF928
:102D4000322001F0DBFF0021502001F035F9EF21A6
:102D5000512001F031F90021522001F02DF940F20B
:102D60003F11532001F028F9594651E1002108464E
:102D700001F022F93146012001F01EF949460220F6
:102D800001F01AF941F23001032001F015F9002198
:102D9000042001F011F95146082001F00DF900213D
:102DA000092001F009F900210A2001F005F90121AB
:102DB0000C2001F001F900210D2001F0FDF80021A7
:102DC0000F2001F0F9F8322001F098FF40F20111D4
:102DD000072001F0F1F8322001F090FF4FF4865106
:102DE000102001F0E9F80721112001F0E5F85B4619
:102DF0005946122001F0E0F84FF43061132001F041
:102E0000DBF80021292001F0D7F844F210012B2033
:102E100001F0D2F80021502001F0CEF8EF2151202E
:102E200001F0CAF80021522001F0C6F840F23F112B
:102E3000532001F0C1F84FF41C51602001F0BCF8A0
:102E40000121612001F0B8F800216A2001F0B4F8F6
:102E50000021802001F0B0F80021812001F0ACF8C1
:102E60000021822001F0A8F80021832001F0A4F8BD
:102E70000021842001F0A0F80021852001F09CF8B9
:102E80001021902001F098F80021922001F094F890
:102E90000121932001F090F81946952001F08CF85B
:102EA0000021972001F088F80021982001F084F893
:102EB00040F27311072085E341F21401E72001F08D
:102EC0007BF83146012001F077F84FF400710220C1
:102ED00001F072F841F23801032001F06DF851461B
:102EE000082001F069F80021092001F065F80021AF
:102EF0000A2001F061F800210C2001F05DF80021AA
:102F00000D2001F059F800210F2001F055F80021A3
:102F1000102001F051F80721112001F04DF8002197
:102F2000122001F049F80021132001F045F8C820D3
:102F300001F0E4FE41F29061102001F03DF840F212
:102F40002721112001F038F8322001F0D7FE0C21A2
:102F5000122001F031F8322001F0D0FE4FF4006170
:102F6000132001F029F81121292001F025F80B2167
:102F70002B2001F021F8322001F0C0FE002120209A
:102F800001F01AF840F23F131946212001F014F81D
:102F90000021302001F010F84FF4837421463120D5
:102FA00001F00AF80021322001F006F84FF4017117
:102FB000352001F001F841F20A61362000F0FCFFF3
:102FC0003946372000F0F8FF2146382000F0F4FFA2
:102FD0003946392000F0F0FF40F202413C2000F079
:102FE000EBFF40F60F413D2000F0E6FF00215020AE
:102FF00000F0E2FFEF21512000F0DEFF002152201F
:1030000000F0DAFF1946532000F0D6FF4FF41C51B0
:10301000602000F0D1FF0121612000F0CDFF0021F0
:103020006A2000F0C9FF0021802000F0C5FF0021C8
:10303000812000F0C1FF0021822000F0BDFF0021AF
:10304000832000F0B9FF0021842000F0B5FF0021AB
:10305000852000F0B1FF1021902000F0ADFF4FF46B
:10306000C0619220FDE33146012000F0A5FF4946F2
:10307000022000F0A1FF41F23001032000F09CFF8C
:103080000021042000F098FF40F20721082000F002
:1030900093FF0021092000F08FFF00210A2000F09B
:1030A0008BFF00210C2000F087FF00210D2000F095
:1030B00083FF00210F2000F07FFF142001F01EFE8F
:1030C00041F2B061102000F077FF0121112000F0E3
:1030D00073FF0121172000F06FFF4FF49C71122045
:1030E00000F06AFF4FF40061132000F065FF092132
:1030F000292000F061FF09212A2000F05DFF002156
:10310000A42000F059FF0021502000F055FFEF21CE
:10311000512000F051FF0021522000F04DFF40F2FD
:103120003F11532000F048FF4FF41C51602000F085
:1031300043FF0121612000F03FFF00216A2000F0E1
:103140003BFF0021802000F037FF0021812000F0AC
:1031500033FF0021822000F02FFF0021832000F0A8
:103160002BFF0021842000F027FF0021852000F0A4
:1031700023FF1321902000F01FFF0021922000F078
:103180001BFF0321932000F017FF5946952000F004
:1031900013FF40F27311072000F00EFF322010E100
:1031A0000021072000F008FF322001F0A7FD4FF4B6
:1031B0008E71122000F000FF0121A42000F0FCFE1F
:1031C0000F21082000F0F8FE08210A2000F0F4FE8C
:1031D00008210D2000F0F0FE3946302000F0ECFE12
:1031E000072100E06FE3312000F0E6FE40F20361CA
:1031F000322000F0E1FE4C464946332000F0DCFE70
:103200005146342000F0D8FE0221352000F0D4FED3
:1032100041F60F71362000F0CFFE3946372000F01E
:10322000CBFE0021382000F0C7FE0021392000F03D
:10323000C3FE39463A2000F0BFFE00213B2000F0DB
:10324000BBFE07213C2000F0B7FE00213D2000F02E
:10325000B3FE322001F052FD0121072000F0ACFE48
:103260000121172000F0A8FE322001F047FD4FF4A5
:10327000BD51102000F0A0FE40F21721112000F0F7
:103280009BFE4FF48F71122000F096FE4FF4706198
:10329000132000F091FE00212A2000F08DFE0A216B
:1032A000292000F089FE4FF49F71122000F084FE67
:1032B0000021502000F080FEEF21512000F07CFE24
:1032C0000021522000F078FE40F23F11532000F020
:1032D00073FE4FF41C51602000F06EFE012161204E
:1032E00000F06AFE00216A2000F066FE00218020C6
:1032F00000F062FE0021812000F05EFE00218220AD
:1033000000F05AFE002104E05EE05CE125E2DBE231
:1033100082E3832000F050FE0021842000F04CFE68
:103320000021852000F048FE1321902000F044FE8B
:103330005946922000F040FE0521932000F03CFE0B
:103340000021952000F038FE0021972000F034FE87
:103350000021982000F030FE3146012000F02CFEC4
:103360002146022000F028FE41F23801032000F03F
:1033700023FE0021042000F01FFE00210C2000F09D
:103380001BFE00210F2000F017FE0021202000F07E
:1033900013FE0021212000F00FFE2121072000F064
:1033A0000BFE142001F0AAFC6121072000F004FEAE
:1033B000142001F0A3FC40F27311072000F0FCFD83
:1033C000142001F09BFCA1E30021084600F0F4FD6D
:1033D0000021084600F0F0FD0021084600F0ECFD59
:1033E0000021084600F0E8FD0121A42000E0E5E00E
:1033F00000F0E2FD142001F081FC4FF41C54214642
:10340000602000F0D9FD55465146082000F0D4FD5B
:103410004FF40571302000F0CFFD43F215713120DB
:1034200000F0CAFD40F20461322000F0C5FD40F614
:103430001661332000F0C0FD42F21121342000F06B
:10344000BBFD4FF4A851352000F0B6FD48F20751FE
:10345000362000F0B1FD41F20741372000F0ACFD0D
:1034600041F20341382000F0A7FD2021392000F06F
:10347000A3FD1A21902000F09FFD0021102000F0F4
:103480009BFD0721112000F097FD0021122000F084
:1034900093FD0021132000F08FFD142001F02EFC7D
:1034A0004FF4E661102000F087FD40F23711112043
:1034B00000F082FD142001F021FC4FF4DC71122099
:1034C00000F07AFD142001F019FC4FF47061132014
:1034D00000F072FD80212A2000F06EFD4821292095
:1034E00000F06AFD142001F009FC3146012000F0D3
:1034F00063FD4946022000F05FFD41F238010320E0
:1035000000F05AFD2946082000F056FD00210A204F
:1035100000F052FD00210C2000F04EFD00210D2096
:1035200000F04AFD30210E2000F046FD0021502021
:1035300000F042FDEF21512000F03EFD002152201D
:1035400000F03AFD40F23F11532000F035FD2146D6
:10355000602000F031FD0121612000F02DFD0021EF
:103560006A2000F029FD1121902000F025FD4FF484
:10357000C061922000F020FD40F20241932000F053
:103580001BFD0221942000F017FD142001F0B6FB72
:103590000121072000F010FD142001F0AFFB612194
:1035A000072000F009FD40F27311072000F004FD30
:1035B0000021202000F000FD0021212000F0FCFC73
:1035C000222100207DE10021084600F0F5FC0021C9
:1035D000084600F0F1FC142001F090FB00210846A1
:1035E00000F0EAFC0021084600F0E6FC0021084655
:1035F00000F0E2FC0021084600F0DEFC0121A420DE
:1036000000F0DAFC142001F079FB4FF41C5160202B
:1036100000F0D2FC40F60601082000F0CDFC40F29C
:1036200003731946302000F0C7FC0121312000F05F
:10363000C3FC0421322000F0BFFC4FF48171332021
:1036400000F0BAFC5C465946342000F0B5FC40F26C
:103650000311352000F0B0FC1F21362000F0ACFC37
:103660001946372000F0A8FC0121382000F0A4FC06
:103670000421392000F0A0FC1521902000F09CFCD2
:103680004FF48261102000F097FC40F24721112096
:1036900000F092FC4FF4DE71122000F08DFC4FF42C
:1036A0006061132000F088FC782001F027FB314690
:1036B000012000F081FC4FF40071022000F07CFC3E
:1036C00041F23001032000F077FC08210A2000F0CD
:1036D00073FC00210C2000F06FFC20210E2000F074
:1036E0006BFC00210F2000F067FC0021202000F07F
:1036F00063FC0021212000F05FFC3D212A2000F026
:103700005BFC142001F0FAFA2D21292000F054FC72
:103710000021502000F050FC4DF2EF01512000F04C
:103720004BFC0021522000F047FC40F23F11532097
:1037300000F042FC0021612000F03EFC00216A20E4
:1037400000F03AFC2146922000F036FC052193203F
:1037500000F032FC3146FFF7ADBB0121002000F044
:103760002BFC0A2001F0CAFA41F22861102000F077
:1037700023FC0E21122000F01FFC40F639211320FB
:1037800000F01AFC0A2001F0B9FA4021112000F0E3
:1037900013FC5021152000F00FFC0A2001F0AEFAB6
:1037A0001E21122000F008FC0A2001F0A7FA4FF4B5
:1037B000B151102000F000FC42F63921132000F036
:1037C000FBFB0A2001F09AFA3146012000F0F4FBDD
:1037D0005946022000F0F0FB41F23801032000F0CE
:1037E000EBFB5146082000F0E7FB08210A2000F01F
:1037F000E3FB0021302000F0DFFB40F202413120EA
:1038000000F0DAFB4FF48371322000F0D5FB40F278
:103810000351332000F0D0FB4FF48271342000F0CC
:10382000CBFB40F20131352000F0C6FB3946362093
:1038300000F0C2FB40F20531372000F0BDFB4FF431
:103840000271382000F0B8FB40F60B71392000F00F
:10385000B3FB0221412000F0AFFB4FF41C5160206C
:1038600000E0D4E000F0A8FB0121612000F0A4FBFF
:103870004FF40471902000F09FFB4FF4857192206B
:1038800000F09AFB0421932000F096FB3146A02023
:1038900000F092FB0121072000F08EFB2121072080
:1038A00000F08AFB2321072000F086FB332107204C
:1038B00000F082FB40F23311072000F07DFB002175
:1038C000A02000F079FB21E13021152000F074FBED
:1038D00010219A2000F070FB2021112000F06CFBD9
:1038E00043F22841102000F067FB0221122000F073
:1038F00063FB41F23801132000F05EFB282001F049
:10390000FDF91221084600F057FB282001F0F6F9D6
:1039100043F22041102000F04FFB43F23801132006
:1039200000F04AFB462001F0E9F90021302000F0C8
:1039300043FB40F20241312000F03EFB40F20731F0
:10394000322000F039FB4FF44171332000F034FB9A
:103950000421342000F030FB40F20141352000F01A
:103960002BFB3946362000F027FB40F2053137208B
:1039700000F022FB4FF4C2631946382000F01CFB14
:103980001946392000F018FB3146012000F014FBE5
:103990005946022000F010FB41F23001032000F0F4
:1039A0000BFB40F60801082000F006FB08210A2066
:1039B00000F002FB4FF41C51602000F0FDFA0121E1
:1039C000612000F0F9FA4FF49F71902000F0F4FAB2
:1039D0003146922000F0F0FA3146932000F0ECFAE4
:1039E0004FF44051A02000F0E7FA1021A32000F08E
:1039F000E3FA0121072000F0DFFA2121072000F07F
:103A0000DBFA2321072000F0D7FA3321072000F04A
:103A1000D3FA40F233119EE6E22020801D20288058
:103A20000220288004202880642001F081F9E02011
:103A30002080012028800A2001F060F9E020208009
:103A4000032028800C2001F059F9012020800A2051
:103A500001F054F9E62020802F202880FF202880C4
:103A60002880B0202080202028800020288003206B
:103A7000288040F21F3028800120288040F2DF108B
:103A8000288000202880B42020800420288040F254
:103A90001F402880002028802E2028800020288099
:103AA000288028802880B6202080022028804FF49B
:103AB0000370288000202880172028801520288067
:103AC000002028802880F0202080032028802920C2
:103AD0002080D020208000202880BE20208005204B
:103AE0002880FE202880012028800020288028802F
:103AF0002880B82020800320288001202880BA2038
:103B0000208001202880642000F026F80020FCF7A7
:103B1000D9FF05490120C1F880014046FCF79CFF10
:103B20001FB0BDE8F08F000000802142034808B5B7
:103B30000088ADF80000BDF8000008BD0008006C6A
:103B4000044910B50880052001F0F2F8BDE81040E6
:103B5000FFF7ECBFFE07006C0C4A10B5BE211180C8
:103B6000941C0521218002F034FA4FF06632084B94
:103B700002F042FA02F000FA208001202080FF20AB
:103B8000208000202080208010BD0000FE07006CF7
:103B900066660440F0B5674E00233146B2798988E5
:103BA00046F6040741F66314012A01D02AB11DE04C
:103BB000B9421BD0A14202D118E0A14216D1082877
:103BC00014D2DFE800F00406080A0C0E10120620DA
:103BD0000CE007200AE0042008E0052006E00120B0
:103BE00004E0002002E0032000E00220A1F5134CD5
:103BF00045F2103245F21055BCF1410C07D0B942E4
:103C000005D0914203D0A94201D0A14275D1082824
:103C100012D2DFE800F0110406080A0C0E1080230F
:103C20000AE0402308E0C02306E0202304E06023EC
:103C300002E0A02300E0E023A94202D14FF4585053
:103C400000E03620914205D0A94203D0A14201D024
:103C500043F00803B94201D143F00203194600F0D2
:103C6000ABF9B288A2420AD098063088718802D592
:103C7000884202D303E0884201D9318070802E4807
:103C8000811CAA427289028021D100230B80531C1F
:103C9000038000230B80931C038033885B1E1C0A67
:103CA0000C80D21C0280DAB20A80B2890280002322
:103CB0000B80531C038000230B80931C03807388AC
:103CC0005B1E1C0A0C80D21C0280D8B212E00022BB
:103CD0000A800A803288521E130A0B80D2B20A80F0
:103CE000B28902800020088008807088401E020A85
:103CF0000A80C0B20880F0BDFFE7082812D2DFE8D2
:103D000000F0040608110A0C0E1030230AE01023FC
:103D100008E0202306E0382304E0282302E01823EB
:103D200000E00823BDE8F040032043F4805100F098
:103D300043B900006CED0020FE07006C2DE9F04F48
:103D40004E4F0B463A46BD880C0ADFF834B19189D4
:103D50005289A5F513464FEA102C0BF1020A413E99
:103D60001DD0A5F5A646103E19D03E46BE4696F893
:103D700006903688A5F5D047A6EB0008A8F1010803
:103D8000043F17D0A5F5C857633F28D0A5F5AA472B
:103D90007646103F51D0B9F1010F63D064E0ABF823
:103DA00000205246AAF800C0C0B2AAF80000ABF842
:103DB00000100FE0B9F1010F01D11FFA88F0ABF844
:103DC0000020050A5246AAF80050C0B2AAF8000026
:103DD000ABF800101480D8B21080BDE8F08FB9F1B4
:103DE000000F1BD0ABF800205246AAF800C0C0B2AA
:103DF000AAF80000761E300AAAF80000F0B210807F
:103E0000ABF8001011461480D8B21080BEF8020042
:103E1000401E020A0A80C0B20880DEE71FFA88F05E
:103E2000ABF8002000265246AAF80060AAF800600D
:103E3000060AAAF80060C0B2E1E7ABF80020AAF8D1
:103E400000C0521CABF80020C0B2AAF80000ABF8CA
:103E50000010AAF80040491CABF80010D8B2AAF82C
:103E60000000BAE71FFA88F00146104600F0A4F8F7
:103E7000B089BDE8F04F194600F09EB86CED002007
:103E8000FE07006C2DE9F84F82461F460C468B4614
:103E9000580700D0012000EBD70079084843203AAA
:103EA000C0B202F0FF090026009041E00C2F10D0B4
:103EB000102F12D0182F3ED1204909EBC90001EB79
:103EC00080004FF00008855D28060AD51C4802884E
:103ED0000BE009EB49001B49F1E71B4901EB091015
:103EE000EFE70A9828B91648428821465046FCF761
:103EF00083FE6806050E1548641CA4B24088A042E3
:103F000019D9A4EB0B00B84209D10AF101001FFA3C
:103F100080FA0E485C46018851450CD906E008F14C
:103F2000010000F0FF08B8F1080FCDD3761CF6B2FF
:103F300000988642BAD3BDE8F88F0000586C00089C
:103F400014000020F4610008686600086CED002091
:103F50002DE9F84F044600F0FF0810190D46DDE981
:103F60000A761FFA80FA58191FFA80F94FF0000BF1
:103F700011E0544502D3E819444685B24D450FD2AD
:103F80003B4629462046CDF800B0FFF77BFF04EB07
:103F9000570084B2761C3278A2F120005E28E8D95E
:103FA000BDE8F88F02480349008908807047000087
:103FB0006CED0020FE07006C024A1080901C01800E
:103FC00070470000FE07006CFEE7704730B50F2316
:103FD000C27801780125F2B1144A126801F1E0219A
:103FE00002F4E062C2F5E062120AC2F10404D340B6
:103FF0004278A24084781C401443220181F80024B6
:10400000007800F01F018D404009800000F1E020A1
:10401000C0F8005130BD01F01F0085404809800004
:1040200000F1E020C0F8805130BD00000CED00E050
:104030000249084302490860704700000000FA0581
:104040000CED00E0F8B5012140F23D1000F02AF936
:104050004FF48074ADF8004048258DF803500320DC
:104060002C4E8DF8020069463046FCF777FC21465D
:104070003046FCF7EDFC1820ADF80000264E102469
:104080008DF8034069463046FCF768FC182130463D
:10409000FCF7DEFCFF20ADF800008DF80350694608
:1040A0001E48FCF75BFC4020ADF800001C4D8DF86D
:1040B000034069462846FCF751FC40212846FCF79E
:1040C000C7FC4FF44045ADF800508DF80340154C47
:1040D00069462046FCF742FC29462046FCF7B8FC1E
:1040E00001211148FCF788FC00F032F980211220F0
:1040F00000F064FA08B10120F8BD322000F0FEFDA6
:104100000B2000F0B7F9212801D00220F8BD0020D3
:10411000F8BD000000080140000C01400010014003
:104120000014014000200140000230002DE9F0475A
:104130000C4605464AB3C5F5207000EBD070C0F3BD
:104140004F07C4F5F07000EBD070C0F34F060621A6
:10415000122000F033FA2321172000F02FFAA021BB
:10416000182000F02BFA0721192000F027FAF0217F
:104170001A2000F023FA0021322000F01FFAA021BB
:10418000292000F01BFAF02128E0C5F5A07000EB13
:10419000D070C0F34F07C4F1F00000EBD070C0F353
:1041A0004F064621122000F009FA3F21172000F0A7
:1041B00005FA5021182000F001FA0321192000F01F
:1041C000FDF978211A2000F0F9F90021322000F0E1
:1041D000F5F95021292000F0F1F978212C2000F088
:1041E000EDF9172000F046F900EB9700C1B2172057
:1041F00000F0E4F9C5F387018A46182000F0DEF9E3
:10420000192000F037F900EB5600C1B2192000F078
:10421000D5F9C4F3470189461A2000F0CFF93220BE
:1042200000F028F98046F007400E07F0030104F083
:10423000010640EA011040EA860105F0030421432B
:1042400041EA0801322000F0B9F95146292000F076
:10425000B5F949462C2000F0B1F92A2000F00AF9FE
:1042600044EA080444EA8601BDE8F0472A2000F049
:10427000A5B97047044A0029516901D0014300E003
:10428000814351617047000000100240044A002938
:10429000D16901D0014300E08143D1617047000042
:1042A00000100240044A0029916901D0014300E056
:1042B00081439161704700000010024030B5204AF0
:1042C0005168204B11F00C0103D0042901D00829BA
:1042D00001D0036012E05168536801F470114FF08F
:1042E000020413F4803F04EB914102D053689B0316
:1042F00001D5154B00E0134B5943016051680F2362
:1043000003EA1111114B5C5C0168E14041605468A3
:10431000072505EA14241C5D21FA04F4846054681E
:1043200005EAD4241B5DD940C1605268032303EA27
:104330009232064B1B1F9A5CB1FBF2F1016130BD5A
:104340000010024000127A0000093D002C000020FD
:1043500038B501214FF49070FFF7A4FF4FF40055DA
:10436000ADF8005048208DF803000320114C8DF863
:10437000020069462046FCF7F1FA29462046FCF780
:1043800067FB0820ADF8000010200B4D8DF80300EE
:1043900069462846FCF7E2FA08212846FCF758FB54
:1043A000606820F470006060606840F440106060F5
:1043B00038BD0000002001400014014070B53220DB
:1043C00000F0B6FC0C4D0120C5F8B4010B4EC6F848
:1043D0008C01322005F5DA7506F5C67600F0A8FCEA
:1043E00000243460322000F0A3FC2C60BDE8704053
:1043F000322000F09DBC00000000244200802242D8
:104400002DE9F047184F0024786820F47000786098
:10441000786840F400007860DFF85090144E08256A
:104420004FF00108A246322000F082FCC6F88C81D1
:104430006006040ED9F8340108B1641CE4B23220DD
:1044400000F076FCC6F88CA16D1E15F0FF05EAD1D0
:10445000786820F470007860786840F440107860E4
:104460002046BDE8F0870000002001400000244203
:104470000080224210B5044600F022F8422000F0ED
:1044800055F8642000F054FC204600F04FF86420FA
:1044900000F04EFC00F02EF8642000F049FC00F023
:1044A0000FF8432000F042F8642000F041FCFFF7D1
:1044B000A7FF0446FFF782FF00F01CF8204610BD5E
:1044C00070B50A4E0120C6F8B401094DC5F88C013B
:1044D000322005F5C67506F5DA7600F029FC0024D1
:1044E0003460322000F024FC2C6070BD00002442B7
:1044F0000080224270B50B4C0020C4F8B401322079
:1045000004F5DA7400F014FC07480125C0F88C515A
:10451000322000F00DFC2560BDE87040322000F034
:1045200007BC000000002442008022422DE9F04731
:1045300000241F4E1F4F0546A0464FF001092806D4
:1045400001D5484600E04046C6F8B4016806050EAD
:10455000322000F0EDFBC7F88C91322000F0E8FB30
:10456000C7F88C81641CE4B2082CE8D3124C606854
:1045700020F470006060606840F4000060603220E9
:1045800000F0D6FBC7F88C91322000F0D1FBD6F8B2
:10459000340100B10120C7F88C81616821F47001F9
:1045A0006160616841F440116160BDE8F08700001E
:1045B00000002442008022420020014070B50D46D8
:1045C00006460024FFF77CFF4220FFF7AFFF00B153
:1045D0000124642000F0ACFB3046FFF7A7FF00B1D8
:1045E0000124642000F0A4FB2846FFF79FFF00B1E0
:1045F0000124FFF77FFF204670BD70470CB50022F5
:10460000264800920192016841F4803101604FF424
:10461000A063016801F4003101910099491C0091E7
:10462000019911B900999942F3D10168890333D5F1
:10463000012101911A490A6842F010020A600A68D1
:1046400022F003020A600A6842F002020A6041682E
:10465000416041684160416841F480614160416866
:1046600021F47C114160416841F4E8114160016826
:1046700041F08071016001688901FCD5416821F039
:1046800003014160416841F0020141604168C1F3AA
:1046900081010229FAD10CBD01920CBD001002402B
:1046A000002002404FF0E0210428086903D020F0E8
:1046B00004000861704740F00400FAE7704700000A
:1046C0000F4810B5016841F00101016041680D4AD1
:1046D0001140416001680C4A11400160016821F4F9
:1046E00080210160416821F4FE0141604FF41F0107
:1046F0008160FFF783FF05494FF00060086010BD3F
:10470000001002400000FFF8FFFFF6FE08ED00E099
:1047100010B50A4C0121204600F0E1F800280AD02B
:104720000121204600F0C3F80549D1F8940118B1E1
:104730000020C1F8940110BD0120FAE700040040F8
:10474000000023427FB50D46044601210220FFF7F9
:104750009DFDADF80440ADF800500024104DADF8BB
:104760000640ADF802406946284600F0D7F801221D
:104770004121284600F0BFF81D218DF80C108DF85E
:104780000D4003208DF80E0001208DF80F0003A8C6
:10479000FFF71CFC0121284600F08CF87FBD0000CB
:1047A0000004004010B50C4C0121204600F097F8A1
:1047B00001280AD10948016988470021204600F0F4
:1047C000AAF86421204600F0A4F82046BDE8104075
:1047D000012100F06CB800000008004088000020B3
:1047E00070B51F4C1F4D2078000633D40121284698
:1047F00000F075F838B12178480604D5C843800622
:1048000012D0491C21700221284600F068F808B334
:10481000217848060FD541F080002070284600F02E
:1048200053F86080002112E041F0800020704FF6C4
:10483000FF706080E7E70020207060800146284616
:1048400000F069F82078022140F0400020702846EE
:1048500000F059F82846BDE87040032100F027B861
:104860001A000020000C004070B5094D01212846B7
:1048700000F035F830B1074C07A06178FBF7F6FC83
:10488000002060702846BDE87040012100F00FB89C
:10489000001000401A0000206672616D653A2564C0
:1048A0006670730D0A000000C94301827047C94356
:1048B000018270470029018802D041F0010101E026
:1048C00021F0010101807047808E7047808C704715
:1048D00002460020128A0A4200D001207047024698
:1048E0000020138A92890B4202EA010202D0002AB8
:1048F00000D001207047002A828901D00A4300E0DD
:104900008A4382817047028C22F002020A430284A9
:1049100070478185704781847047000030B50288F8
:104920001B4C1C4DA0420DD0A8420BD0B0F1804FC3
:1049300008D0194B984205D0184B984202D0184B1A
:10494000984203D122F070034A881A43154B9842CB
:1049500006D0154B984203D022F44073CA881A43FC
:1049600002808A8882850A880285A0420AD0A842ED
:1049700008D00E4A904205D00D4A904202D00D4A0E
:10498000904201D1097A01860121818230BD000067
:10499000002C0140003401400004004000080040A9
:1049A000000C004000100040001400400040014096
:1049B00000440140004801407FB50D4604460121F6
:1049C0000420FFF763FCADF804400020ADF8005070
:1049D000104CADF80600ADF8020069462046FFF71E
:1049E0009DFF012241212046FFF785FF1E218DF802
:1049F0000C1003218DF80D108DF80E1001208DF88C
:104A00000F0003A8FFF7E2FA01212046FFF752FF4B
:104A10007FBD00000008004070B5154C40F22551E4
:104A2000204600F035F800280ED0204600F0BEF8F1
:104A3000104AC1B21088030406D444044FF00003A6
:104A400006D50A2901D0138070BD40F400400DE066
:104A50000D2909D0C0F30D04074D401C80B2295523
:104A60001080C728EFD870BD40F48040108070BD22
:104A700000380140220000207AED002000298189C1
:104A800002D041F4005101E021F4005181817047CE
:104A900070B501F01F0501260024C1F3421306FA88
:104AA00005F2012B0FD0022B0FD0838A4FEA112180
:104AB0000088134206FA01F600EA060001D000B1B0
:104AC0000124204670BD8389F0E7038AEEE710B524
:104AD000C1F3421301F01F040121A140012B07D0B3
:104AE000022B07D01430002A026805D00A4304E0E4
:104AF0000C30F8E71030F6E78A43026010BD000082
:104B000030B50446008A85B00D464CF6FF7108406A
:104B1000E98801432182A0894EF6F3110840A98853
:104B20002A8911436A8902431143A181A08A4FF661
:104B3000FF410840A9890143A1826846FFF7BEFBF7
:104B40001948844201D1039800E00298A189090420
:104B500000EBC00101EB0010296801D5490000E01D
:104B60008900B0FBF1F06422B0FBF2F109010B09FE
:104B70006FF018056B4300EB8300A3891D044FF011
:104B8000320306D503EBC000B0FBF2F000F00700E3
:104B900005E003EB0010B0FBF2F000F00F0008435B
:104BA000208105B030BD0000003801408088C0F38E
:104BB00008007047FEE730380A2801D2012070470C
:104BC00000207047704700002DE9FC41002400944C
:104BD00005200194FEF7DEFFFFF7E4F93448C0F842
:104BE000B841344D10242C602E1F34600121C0F8D0
:104BF000B8112C603460304F002000222C60B9685E
:104C00003460C9B22C603460602902D94FF6FF715C
:104C100000E00021032802D22DF8101024E0002328
:104C2000BDF802C0ADF800C0BDF804C05B1C9BB26B
:104C3000ADF802C0ADF80410032BF1D3BDF800109D
:104C4000BDF8023099420DD9ADF80610ADF800302C
:104C5000BDF80430ADF80210994203D9ADF8023026
:104C6000ADF80410BDF80210A2F16403602B11D25C
:104C700064280FD380280DD200EBC003DFF83CC0BE
:104C800003EB00130CEBC30303EB4203A3F5A043B8
:104C9000A3F81811521C92B2C02AAFD3401C80B2A4
:104CA0008028AAD34FF48070FBF782FDBDE8FC8119
:104CB00000002442140C0140001001407C0100203F
:104CC00010B56FF00400FFF7EDFC094809490068D2
:104CD000B0FBF1F00849C0B200EB40020870C2EB33
:104CE000C0104FF6FF7202EAC000488010BD0000FD
:104CF0000000002000127A001E0000200B494988A5
:104D000048434FF0E021486100238B61086940F07F
:104D1000010008610869C20701D0C003FAD508691B
:104D200020F0010008618B61704700001E00002028
:104D30000B49097848434FF0E021486100238B611B
:104D4000086940F0010008610869C20701D0C0038A
:104D5000FAD5086920F0010008618B6170470000F6
:104D60001E0000202DE9F04164254FF6FF766424F3
:104D7000324621462846FBF73FFF641CA4B2C82CEC
:104D8000F6D36D1CADB2C82DF1D31A4E002505EB3C
:104D9000C50000EB0510002406EBC007294637F8D4
:104DA00014202046FBF728FF641CA4B2642CF5D322
:104DB0006D1CADB2642DEAD300F088F80E4E0025CC
:104DC00005EBC50000EB0510002406EBC00704F15D
:104DD000640037F8142080B22946FBF70DFF641CED
:104DE000A4B2642CF3D36D1CADB2642DE8D3BDE83E
:104DF000F08100007C010020BC9D002004490A884D
:104E00005206FCD5024AC1B2121D11807047000043
:104E1000003801401CB5FFF753FF4FF4A060FFF7C7
:104E200007F94FF4165000F0F7F8FBF773FFFFF7A0
:104E300009F94FF6FF70FBF70FFE19480024102503
:104E4000048018A0CDE900502B46C822E6213C2062
:104E5000FFF77EF817A0CDE900501023C822E62105
:104E60003C20FFF775F800228021C020FFF75EF993
:104E70001448C0F8BC4141F61F414FF47A70FFF767
:104E800061FCFBF74FFC0020FBF7E6FD0E4D287898
:104E90000128FCD1FFF798FEFFF764FF2C70F6E7BE
:104EA000140000204F563737323520496E69742E72
:104EB0002E2E00004F563737323520496E69742048
:104EC0004F4B000000002442180000202DE9F84F4D
:104ED00000273D46BB4605EBC5024A4B02EB0518D1
:104EE00003EBC806484B002403EBC80A3AF8142029
:104EF0008A4227D0022C25D34FF6FF7126F81410D2
:104F00007F1CF9B2022918D1211A1E2915DA21189D
:104F10003E4A4808DFF8F8C022F815000CEBC80339
:104F200021F00101002723F801B0643080B23A4635
:104F300005F16401FBF760FE02E0012726F814B0DA
:104F4000204608E0324B4FF6FF7103EBC80222F80F
:104F5000141026F814B03AF81410641C2A4AE4B26B
:104F6000642CC3D36D1C0026EDB23746642DB2D33A
:104F700000249046002505EBC50000EB051008EB6A
:104F8000C007009937F814208A422CD0022D2AD36A
:104F90001C4A4FF6FF7102EBC000761C20F814107B
:104FA000F0B202281DD1A5EB09001E2819DA05EB85
:104FB0000900400800EBC00202EB0013144A134939
:104FC00002EBC30201EB440122F814B0A1F8C800BF
:104FD0006430002681B2324604F16400FBF70CFE17
:104FE00000E00126A9466D1C37F81400EDB20090D0
:104FF000642DC0D3641CE4B20026642CBAD3002014
:10500000BDE8F88F9C4F00207C010020DCEB0020E5
:10501000BC9D00200068704770B5054686B0012130
:1050200044F20400FFF73EF94FF40070ADF81000B1
:1050300003248DF8124018201D4E8DF8130004A98A
:105040003046FBF78BFC3015ADF8100004208DF8CE
:10505000130004A93046FBF781FC25208DF81400CD
:105060008DF815408DF8164001208DF8170005A821
:10507000FEF7ACFF0020ADF80400ADF80600ADF877
:105080000800ADF80C000C200A4CADF80A000095A1
:1050900069462046FFF734FD012240F225512046A3
:1050A000FFF715FD01212046FFF7E8FC06B070BDB3
:1050B000000801400038014070B594B0064613ABBB
:1050C00011AA694600F0D8F9002824D18DF84000D3
:1050D0001D4C042514E0206805EBC10113AB4058BA
:1050E00012AA08A900F0C8F9002814D1694608A836
:1050F00000F0EAFB88B19DF84000401C8DF84000AC
:10510000207D9DF840108842E5D8207D9DF8401014
:1051100088420ED1042014B070BD9DF848009DF85F
:105120004410884201D90220F5E79DF84000A0759F
:10513000EBE710A9304600F053FA0028EBD19DF8B8
:10514000400060750020E6E7880000202DE9F0416E
:105150007E4E9AB0B57D307DA8427CD9042130685E
:1051600001EBC50119AB405818AA10A900F084F949
:1051700010A977A0FBF77AF800240DF1180832E0A7
:10518000308B0121A140084217D0222172A0FBF7E9
:105190006DF8204600F08CFA811970A02431FBF7DD
:1051A00065F822216CA0FBF761F8204600F080FA38
:1051B0003044243048F824000BE0204600F078FA10
:1051C0003044416A48F82410F07D00B364A0FBF736
:1051D0004DF89DF86000401E844202D062A0FBF7AB
:1051E00045F8641CE4B29DF860008442C8D35FA017
:1051F000FBF73CF800F0A6FA707D0B2814D2DFE82C
:1052000000F0080D31384048525E6B78890058A094
:10521000DDE7306850F83500804704E0306850F82A
:10522000351006988847074600F054FA9DF8640048
:1052300001286ED04FA0FBF719F896F8EC00002873
:105240000DD0D6F8F0000A21B0FBF1F201FB1202FA
:10525000B0FBF1F100E002E047A0FBF707F81AB05D
:10526000BDE8F081306850F83520DDE9060190474F
:10527000D9E7306806AC50F8353094E80700984715
:10528000D1E7306806AF50F8354097E80F00A047E7
:10529000C9E70A980090306806AF50F8354097E8A3
:1052A0000F00A047BFE7DDE90A01CDE90001306842
:1052B00006AF50F8354097E80F00A047B3E70AABB8
:1052C00006AF93E807008DE80700306850F83540D6
:1052D00097E80F00A047A6E70AAC06AF94E80F00D6
:1052E0008DE80F00306850F8354097E80F00A04770
:1052F00099E70BAC06AF94E80F0001AC84E80F000F
:105300000A980090306850F8354097E80F00A047A1
:1053100089E711E00CAC06AF94E80F0002AC84E81A
:105320000F00DDE90A01CDE90001306850F8354091
:1053300097E80F00A04776E7F07D394618B116A030
:10534000FAF794FF79E717A0FAE700008800002039
:105350000D0A257328000000256300002573000056
:1053600030582558000000002C00000029000000E3
:10537000256C75003B0D0A0046756E6374696F6E8F
:105380002052756E2054696D653A25642E2531646E
:105390006D730D0A000000003D305825583B0D0A82
:1053A000000000003D256C753B0D0A00F0B500259E
:1053B0002E462F462C4603782C2B03D0292B04D0C5
:1053C0001BB103E014B9012600E05CB317B1222B36
:1053D00026D026E0A3F1300CBCF1090F15D9A3F1BA
:1053E000610CBCF1050F10D9A3F1410CBCF1050F04
:1053F0000BD9582B09D0782B07D0222B0CD0202B7F
:105400001ED02C2B1CD0FF270CE05EB9612B00D3E3
:10541000203B01F8013B13E026B901273C460FE091
:10542000002426B10020087017702846F0BD3CB15A
:105430005C2B02D16D1CEDB2401C037801F8013BDE
:105440006D1CEDB2401CB6E730B5002515700AE0C2
:1054500001F8014B1478401C641CE4B214709C42A7
:1054600001D3012030BD0478202C01D0002CEFD1D5
:105470000D70002030BD00002DE9FF4F002482B0E8
:1054800089469846A2462746012526462246EB46EF
:10549000029915E0202810D002F07F03052B0CD2D2
:1054A00002B9802202F07F03042B01D12A280AD1FD
:1054B000521C0BF80300D2B201E0852A04D0491C2B
:1054C00008780028E6D16AB102F07F0200200BF8CC
:1054D000020041A1584600F0F7F938B1012188F8DF
:1054E000001000224FF00008029B15E0002088F811
:1054F0000000F6E708F1010000F0FF0813F8010FC3
:10550000202801D02A2807D1184600F085F928283C
:1055100002D02A2800D0C2461878282801D00028B6
:10552000E8D10299BAF1000F01D05144491C4FF063
:1055300000084346087888B1282804D0292806D0D6
:10554000222810D011E083B9641CE4B20DE063B9E5
:1055500024B1641E14F0FF0402D00DE04FF00108E6
:10556000012F27D02FE04BB100234CB12C280CD0B9
:10557000202816D0282814D05AB110E00123F4E7CF
:10558000202815D009F8010B12E00125521CD2B2D7
:1055900007E0052E03D20BF80600761CF6B26D1C50
:1055A000EDB2012C04D1022D02D103257F1CFFB2E4
:1055B000491CBFE700200BF8060007A1684600F071
:1055C00083F900B9002704980770002089F80000CB
:1055D00006B04046BDE8F08F766F696400000000B9
:1055E0002DE9F04300248946304DB5B021462246CE
:1055F0006B18491CC9B29A760A29F9D302E010F84F
:10560000011F99B101782829F9D1461C4FF00108F2
:1056100033AA69463046FFF7C9FE06449DF8CC0020
:1056200040B1012824D0FF2836D10BE0012035B04D
:10563000BDE8F0839DF8000070B334A9684600F01F
:10564000F3F808B10220F2E7204600F031F82844D0
:1056500034994162298B08FA04F08143298304209C
:1056600029198876641CE4B20A2C15D90320DEE7D8
:10567000684600F03EF9471C204600F019F8411931
:105680006846243100F02CF9298B08FA04F0014314
:10569000281929838776E5E73078292801D0002862
:1056A000B6D189F800400020C1E700008800002042
:1056B000024610B500200146054B05E05C18491C68
:1056C000A47EC9B22044C0B29142F7D310BD0000FD
:1056D0008800002070B50B4D01212846FFF7F8F82F
:1056E000094C012806D1D4F8F0004FF6FF710844A8
:1056F000C4F8F0002846FFF7E9F854F8F01F084412
:10570000206070BD000800408800002000EBC00150
:1057100001EB00104FF0FF3101EB800010B581B2BA
:105720004FF47A70FFF748F901490120C87510BDA0
:10573000880000200346012000E05843491EC9B2FA
:10574000FBD2704710B5094C01212046FFF7ACF899
:105750004FF6FF712046FFF7DCF800212046FFF7E7
:10576000DAF803490020C1F8F00010BD000800403D
:10577000880000202DE9F041164E3088010426D51E
:105780001549C0B2154F00250D54B9681248884715
:1057900004000FD0104800F0B5F8012801D0040033
:1057A00014D0012C09D0022C09D0032C09D0042CD0
:1057B0000CD108E0F868804708E009A004E00BA0DD
:1057C00002E00DA000E00FA0FAF750FD3580BDE823
:1057D000F0810000220000207AED002088000020E7
:1057E000BAAFCAFDB4EDCEF3210D0A00B2CECAFDA8
:1057F000B4EDCEF3210D0A00B2CECAFDCCABB6E0BB
:10580000210D0A00CEB4D5D2B5BDC6A5C5E4B5C438
:10581000BAAFCAFD210D0A0010F8011F202901D1DD
:105820000028F9D1C8B270472DE9F041002488461C
:1058300005460A260C600178A1F13002092A0DD92B
:10584000113A052A0AD9582905D011F0FF0F0CD0BA
:105850000120BDE8F081012C02D0F9E7412900D3F5
:105860001026641CE4B2401CE5E7102E01D084B180
:1058700012E0032C01D20220EBE72878302802D175
:105880006878582801D00320E3E7A41EE4B2AD1CD9
:1058900001E00420DDE70CB1641EE4B22F78384645
:1058A000303F092F01D9A0F1370721463046FFF7D5
:1058B00041FFD8F8001007FB0011C8F8001015F8D8
:1058C000010F0028E7D1C4E702780B789A4201D093
:1058D0000120704712B1401C491CF5E700207047B9
:1058E00002780A700278002A02D0401C491CF7E7AF
:1058F0007047002102781AB1491CC9B2401CF9E76F
:1059000008467047F0B58DB004461E2308AA6946C4
:10591000FFF79AFD0990002872D19DF82000271802
:1059200000253E4C8DF820509DF8200054F82010A2
:105930006846FFF7C9FF38B19DF82000401CC0B28F
:105940008DF820000728EFD39DF820000426344C62
:10595000072855D2DFE800F00404395A605F5E0082
:1059600030A0FAF783FC30A0FAF780FC3EA0FAF7EB
:105970007DFC4DA0FAF77AFC5BA0FAF777FC6AA0F1
:10598000FAF774FC78A0FAF771FC85A0FAF76EFCC0
:105990008AA0FAF76BFC8FA0FAF768FC93A0FAF7DD
:1059A00065FC98A0FAF762FC9DA0FAF75FFCA3A043
:1059B000FAF75CFCAFA0FAF759FCBCA0FAF756FC6A
:1059C000C7A0FAF753FCD3A01BE016A0FAF74EFCD1
:1059D000E0A0FAF74BFC8DF820500BE0216806EBB5
:1059E000C0000958EBA0FAF741FC9DF82000401CCC
:1059F0008DF82000217D9DF820008142EED84EE2F6
:105A00004FE2FAF733FC00200DB0F0BD05A0FAF725
:105A10002DFCC3E124E204E2E3E100003C000020AD
:105A2000880000200D0A00002D2D2D2D2D2D2D2D4F
:105A30002D2D2D2D2D2D2D2D2D2D2D2D2D2D2D2D96
:105A400055534D4152542056332E312D2D2D2D2D91
:105A50002D2D2D2D2D2D2D2D2D2D2D2D2D2D2D2D76
:105A60002D2D2D200D0A00002020202055534D41C2
:105A70005254CAC7D3C9414C49454E54454BBFAA9D
:105A8000B7A2B5C4D2BBB8F6C1E9C7C9B5C4B4AEF4
:105A9000BFDAB5F7CAD4BBA5BDBBD7E9BCFE2CCDD8
:105AA000A8B9FD200D0A0000CBFC2CC4E3BFC9D26D
:105AB000D4CDA8B9FDB4AEBFDAD6FACAD6B5F7D3FD
:105AC000C3B3CCD0F2C0EFC3E6B5C4C8CEBACEBA29
:105AD000AFCAFD2CB2A2D6B4D0D02ED2F2B4CB2C09
