:020000040800F2
:10000000601B002045010008AD2D0008AF2D000841
:10001000B32D0008B72D0008BB2D0008000000001C
:10002000000000000000000000000000BF2D0008DC
:10003000C12D000800000000CB2D0008CD2D0008C8
:100040005F0100085F0100085F0100085F01000810
:100050005F0100085F0100085F0100085F01000800
:100060005F0100085F0100085F0100085F010008F0
:100070005F0100085F0100085F0100085F010008E0
:10008000C32D00085F0100085F0100085F01000840
:100090005F0100085F0100085F0100085F010008C0
:1000A0005F0100085F0100085F0100085F010008B0
:1000B0005F010008F52C00084F5F00085F01000891
:1000C0005F0100085F0100085F0100085F01000890
:1000D0005F0100087F4A00085F0100085F01000817
:1000E0005F0100085F0100085F0100085F01000870
:1000F0005F0100085F0100085F0100085F01000860
:100100005F0100085F0100085F0100085F0100084F
:100110005F0100085F0100085F0100085F0100083F
:100120005F0100085F0100085F0100085F0100082F
:10013000DFF80CD009F0BCFE00480047BD2C0008D9
:10014000601B00200648804706480047FEE7FEE7A0
:10015000FEE7FEE7FEE7FEE7FEE7FEE7FEE7FEE777
:1001600047020008310100080CB500200190009002
:100170006C48006840F480306A49086000BF6948F4
:10018000006800F4003000900198401C0190009835
:1001900018B90198B0F5A06FF1D16248006800F479
:1001A000003010B10120009001E000200090009884
:1001B000012843D15C48006840F010005A490860AB
:1001C0000846006820F0030008600846006840F018
:1001D0000200086053484068524948600846406839
:1001E00048600846406840F48060486008464068BF
:1001F00020F47C1048600846406840F4E8104860ED
:100200000846006840F08070086000BF45480068FC
:1002100000F000700028F9D04248406820F0030048
:10022000404948600846406840F00200486000BF0E
:100230003C48406800F00C000828F9D10CBD10B50E
:10024000FFF792FF10BD10B53648006840F001007E
:1002500034490860084640683449084031494860DC
:1002600008460068324908402E4908600846006880
:1002700020F4802008600846406820F4FE004860B2
:100280004FF41F008860FFF7DAFF4FF00060294944
:10029000086010BD10B5002100200022214B5B68D2
:1002A00003F00C0121B1042906D0082928D107E068
:1002B000214B224C236027E01F4B204C236023E07E
:1002C000184B5B6803F47010164B5B6803F48032C4
:1002D000022303EB904022B9194B4343174C236090
:1002E0000DE0104B5B6803F4003323B1144B434320
:1002F000124C236003E0104B4343104C236003E097
:100300000D4B0E4C236000BF00BF064B5B68C3F370
:1003100003130C4CE15C094B1B68CB40074C23607A
:1003200010BD000000100240002002400000FFF855
:10033000FFFFF6FE08ED00E000127A00000000204A
:1003400000093D000400002031490143314A116099
:10035000704770B5002100230F22C47804B32D4CE0
:10036000246804F4E064C4F5E064210AC1F10403E4
:10037000CA40447804FA03F1847814402143090107
:10038000254C0678A155047804F01F050124AC40E3
:1003900005786D11AD0005F1E025C5F8004109E0D3
:1003A000047804F01F050124AC401C4D067876113A
:1003B00045F8264070BD1A4A0A400243154B1B1FE0
:1003C0001A60704739B1134A121D12680243114B6B
:1003D0001B1D1A6006E00F4A121D126882430D4B66
:1003E0001B1D1A607047042808D14FF0E0210969ED
:1003F00041F004014FF0E022116107E04FF0E021ED
:10040000096921F004014FF0E022116170470000FA
:100410000000FA050CED00E000E400E080E100E0FF
:1004200080FFFF1F10B50446FA48844208D101211D
:10043000401501F061F90021601501F05DF917E048
:10044000F548844208D10121001501F055F9002139
:10045000201501F051F90BE0F048844208D1012148
:10046000C80301F049F900214FF4004001F044F9BC
:1004700010BD30B50246002000235068E84C2040F3
:100480000D790C6844EA0524204350609068E54CDF
:100490002040D1E902542C434D7944EA45042043DD
:1004A0009060D06A20F470000C7C641EE4B2234398
:1004B00040EA0350D06230BD0021016001714171FA
:1004C0008160C16001210174704721B1826842F0EE
:1004D0000102826003E0826822F0010282607047BC
:1004E00021B1826842F48072826003E0826822F463
:1004F00080728260704710B50023CBB21AB1446895
:100500001C43446002E044689C43446010BD816821
:1005100041F0080181607047014600208A6802F0BE
:1005200008020AB1012000E000207047816841F014
:10053000040181607047014600208A6802F00402CD
:100540000AB1012000E00020704721B1826842F426
:10055000A002826003E0826822F4A00282607047F9
:10056000014600208A6802F480020AB1012000E0FE
:100570000020704710B50A4600210023416821F48D
:100580006041531E41EA4331416010BD21B14268D0
:1005900042F40062426003E0426822F4006242607A
:1005A0007047F0B504460D4600200021092D11DDED
:1005B000E068A5F10A0606EB4607072606FA07F1EA
:1005C0008843A5F10A0606EB460603FA06F108433E
:1005D000E0600CE0206905EB4507072606FA07F105
:1005E000884305EB450603FA06F108432061072A14
:1005F0000FDA606B561E06EB86071F2606FA07F118
:100600008843561E06EB860605FA06F1084360632A
:1006100022E00D2A0FDA206BD61F06EB86071F2675
:1006200006FA07F18843D61F06EB860605FA06F19F
:100630000843206310E0E06AA2F10D0606EB86078E
:100640001F2606FA07F18843A2F10D0606EB86067F
:1006500005FA06F10843E062F0BD21B1826842F478
:100660008012826003E0826822F480128260704708
:100670000146C86C80B2704766484C3000687047CD
:1006800021B1426842F48062426003E0426822F491
:1006900080624260704721B1426842F480524260F9
:1006A00003E0426822F48052426070470A4600210B
:1006B000816821F4E04111438160704721B1826873
:1006C00042F40042826003E0826822F400428260C9
:1006D000704721B1826842F40212826003E08268AE
:1006E00022F4021282607047014600208A6802F4F8
:1006F00000120AB1012000E000207047F0B5044666
:100700001546002000220026092911DDE068A1F12C
:100710000A0707EB470C072707FA0CF29043A1F1F1
:100720000A0707EB470703FA07F21043E0600CE003
:10073000206901EB410C072707FA0CF2904301EB0B
:10074000410703FA07F210432061A06BC0F3015682
:10075000EF1C06F1010CA7EB0C0707EB870C1F271A
:1007600007FA0CF29043EF1C06F1010CA7EB0C0703
:1007700007EB870701FA07F21043A063F0BD10B53D
:100780000A4600210023816B21F44011531E41EAE7
:100790000351816310BD08B5002300930090009BB6
:1007A0000B440093009B1A6008BD08B50246002068
:1007B0000090009201F12800009B184400900098DE
:1007C000006880B208BD0A4600214168164B1940F6
:1007D0001143416070474162826270470A460021BE
:1007E000416821F01F0111434160704740B1094940
:1007F0000831096841F40001064A0832116007E037
:1008000004490831096821F40001024A08321160E4
:10081000704700000024014000280140003C0140D6
:10082000FFFEF0FFFDF7F1FFFFFD3FFF0246002056
:1008300013680B400BB1012000E000207047CA4351
:100840000260704770B502460020002300240B129E
:100850005568CEB205EA060415681D4015B10CB105
:10086000012000E0002070BD00220A12D343036083
:100870007047000001684FF6FE72114001600021D0
:10088000016041608160C1608D49884208D18C4916
:100890000839496841F00F01894A083A51608AE0F5
:1008A00087491431884208D185490839496841F09F
:1008B000F001834A083A51607DE08149283188423D
:1008C00008D17F490839496841F470617C4A083A87
:1008D000516070E07A493C31884208D17849083942
:1008E000496841F47041764A083A516063E07449BE
:1008F0005031884208D172490839496841F4702161
:100900006F4A083A516056E06D496431884208D117
:100910006B490839496841F47001694A083A5160E5
:1009200049E067497831884208D165490839496802
:1009300041F07061624A083A51603CE06149884286
:1009400006D1011F096841F00F01021F116032E05A
:100950005C491431884208D15A49091F096841F09D
:10096000F001584A121F116025E05649283188428B
:1009700008D15449091F096841F47061514A121F96
:10098000116018E04F493C31884208D14D49091F98
:10099000096841F470414B4A121F11600BE049494C
:1009A0005031884207D14749091F096841F4702135
:1009B000444A121F1160704710B50022026847F6C2
:1009C000F0739A430C6A8B6823430C6923434C6988
:1009D00023438C692343CC6923434C6A23438C6AA9
:1009E00023431A430260CB6843600B6883604B6803
:1009F000C36010BD0021016041608160C160016180
:100A000041618161C161016241628162704721B1CE
:100A1000026842F00102026004E002684FF6FE73D1
:100A20001A40026070471AB103680B43036002E08A
:100A300003688B4303607047416070470146486814
:100A400080B2704701460020002201F080531BB1A4
:100A50001C4B083B1A6802E0194B083B1A6802EA73
:100A600001030BB1012000E00020704700F080512D
:100A700019B11449091F086002E01149083948609A
:100A8000704701460020002201F080531BB10D4B3E
:100A9000083B1A6802E00A4B083B1A6802EA0103A5
:100AA0000BB1012000E00020704700F0805119B127
:100AB0000449091F086002E001490839486070478D
:100AC000080002400804024001460020FE4A106867
:100AD00000F03800084310607047FB49096821F0B6
:100AE0000801F94A11601146096801431160704715
:100AF000F549096821F01001F34A116011460968AF
:100B0000014311607047F148EF494860F048486080
:100B10007047EE48EC494860ED4848607047EA4845
:100B2000006940F08000E84908617047E6480069C4
:100B300040F08000E449086170470420E249C96838
:100B400001F0010109B101200EE0DF49C96801F09F
:100B5000040109B1022007E0DB49C96801F0100176
:100B600009B1032000E00420704700B502460423C9
:100B7000FFF7E3FF034603E0FFF7DFFF0346521EE4
:100B8000012B01D1002AF7D102B90523184600BD77
:100B900030B5044604254FF43020FFF7E6FF054644
:100BA000042D17D1C848006940F00200C649086109
:100BB00008464461006940F0400008614FF430206D
:100BC000FFF7D3FF0546C048006941F6FD710840B4
:100BD000BD490861284630BD10B504244FF43020CB
:100BE000FFF7C3FF0446042C16D1B748006940F054
:100BF0000400B54908610846006940F040000861FA
:100C00004FF43020FFF7B1FF0446AF48006941F6CA
:100C1000FB710840AC490861204610BD00B5024692
:100C20000423FFF78AFF034603E0FFF786FF03462E
:100C3000521E012B01D1002AF7D102B90523184613
:100C400000BD10B504244FF43020FFF7E7FF044641
:100C5000042C16D19C48006940F004009A490861B0
:100C60000846006940F0400008614FF43020FFF76B
:100C7000D5FF04469448006941F6FB71084092494B
:100C80000861204610BD00208F49C96901F00201AA
:100C900009B1012000E00020704730B5A5250424EB
:100CA000FFF7F1FF00B100254FF43020FFF75DFFA3
:100CB0000446042C3AD1854883498860844888607A
:100CC0000846006940F0200008610846006940F0CD
:100CD000400008614FF43020FFF747FF0446042C22
:100CE0001BD17948006941F6DF71084076490861F7
:100CF0000846006940F01000086176480580E0026F
:100D0000FFF733FF0446052C10D06F48006941F609
:100D1000EF7108406C49086108E0052C06D06A486C
:100D2000006941F6EF71084067490861204630BD0F
:100D300078B506460C46042500200090E802FFF72F
:100D400014FF0546042D24D15F48006940F00100DE
:100D50005D4908613480E802FFF707FF0546042D6E
:100D600010D1B01C0090200C00990880E802FFF719
:100D7000FCFE05465448006941F6FE7108405249A0
:100D8000086106E05048006941F6FE7108404E498E
:100D90000861284678BD70B504460D460426F00269
:100DA000FFF7E3FE0646042E11D14748006940F0E4
:100DB0000100454908612580F002FFF7D6FE06468E
:100DC0004148006941F6FE7108403F4908613046DC
:100DD00070BD70B505460E460424E002FFF7C5FE5F
:100DE0000446042C17D13948374988603848886050
:100DF0000846006940F0100008612E80E002FFF70D
:100E0000B4FE0446052C06D02F48006941F6EF7168
:100E100008402D490861204670BD2DE9F043044685
:100E20004FF6FF763746B046B1460425E443E6B2B6
:100E3000C4F30727C4F307484FEA1469E802FFF731
:100E400094FE0546042D49D120481F49886020485A
:100E500088600846006940F010000861FF2E06D047
:100E60001C4808300680E802FFF77FFE0546042D87
:100E700008D1FF2F06D017480A300780E802FFF795
:100E800074FE0546042D0AD1B8F1FF0F07D01148B2
:100E90000C30A0F80080E802FFF767FE0546042D3D
:100EA0000AD1B9F1FF0F07D00A480E30A0F8009020
:100EB000E802FFF75AFE0546052D0FD002480069EB
:100EC00041F6EF71084007E000200240230167452A
:100ED000AB89EFCD00F8FF1F664908612846BDE8E1
:100EE000F08330B5054604244FF43020FFF73DFE73
:100EF0000446042C41D160485E4988605F488860A0
:100F00000846006940F0200008610846006940F08A
:100F1000400008614FF43020FFF727FE0446042C00
:100F200022D15448006941F6DF71084051490861F7
:100F30000846006940F0100008611DB100205049CA
:100F4000088002E0A5204E4908804FF43020FFF7CA
:100F50000CFE0446052C10D04648006941F6EF719E
:100F600008404449086108E0052C06D04148006962
:100F700041F6DF7108403F490861204630BDF0B5B9
:100F800005460E46174604243B483A4988603B48CC
:100F90008860E002FFF7E9FD0446042C19D13548CA
:100FA000006940F010003349086147F0F800304311
:100FB00028433349891C0880E002FFF7D6FD044628
:100FC000052C06D02B48006941F6EF7108402949ED
:100FD00008612046F0BD2748C06980087047254851
:100FE000006A704700202349096801F0200109B117
:100FF000012000E00020704729B11E4A1269024317
:101000001C4B1A6104E01B4A12698243194B1A6196
:10101000704701460020012908D1164AD26902F022
:1010200001020AB1012008E0002006E0114AD2685E
:101030000A400AB1012000E0002070470D49C86055
:10104000704704200B49C96801F0010109B1012072
:101050000EE00849C96801F0040109B1022007E067
:101060000449C96801F0100109B1032000E004201F
:10107000704700000020024023016745AB89EFCD97
:1010800000F8FF1F10B50446CE48844208D1012164
:10109000042000F031FB0021042000F02DFB46E08D
:1010A000C948844208D10121082000F025FB002115
:1010B000082000F021FB3AE0C448844208D1012115
:1010C000102000F019FB0021102000F015FB2EE08D
:1010D000BF48844208D10121202000F00DFB0021EF
:1010E000202000F009FB22E0BA48844208D1012107
:1010F000402000F001FB0021402000F0FDFA16E046
:10110000B548844208D10121802000F0F5FA002181
:10111000802000F0F1FA0AE0B048844207D10121B2
:10112000801500F0E9FA0021A01500F0E5FA10BDE5
:1011300010B50121084600F0DFFA0021012000F07F
:10114000DBFA10BD2DE9F041024600250026002003
:1011500000230024002791F803C00CF00F0591F83C
:1011600003C00CF0100CBCF1000F03D091F802C0CA
:101170004CEA050591F800C0BCF1000F31D01468AD
:1011800000202BE04FF0010C0CFA00F3B1F800C086
:101190000CEA03069E4220D183004FF00F0C0CFA9C
:1011A00003F7BC4305FA03FC4CEA040491F803C0BE
:1011B000BCF1280F06D14FF0010C0CFA00FCC2F86C
:1011C00014C00AE091F803C0BCF1480F05D14FF0FC
:1011D000010C0CFA00FCC2F810C0401C0828D1D346
:1011E0001460B1F800C0BCF1FF0F34DD546800207A
:1011F0002EE000F1080C4FF0010808FA0CF3B1F8EA
:1012000000C00CEA03069E4221D183004FF00F0C70
:101210000CFA03F7BC4305FA03FC4CEA040491F80A
:1012200003C0BCF1280F05D100F1080C08FA0CF836
:10123000C2F8148091F803C0BCF1480F07D100F147
:10124000080C4FF0010808FA0CF8C2F81080401C96
:101250000828CED35460BDE8F0814FF6FF710180BD
:10126000022181700421C1707047024600209368FA
:101270000B400BB1012000E0002070470146886858
:1012800080B2704702460020D3680B400BB10120AA
:1012900000E0002070470146C86880B270470161D5
:1012A0007047C2684A40C2607047416170470AB1E6
:1012B000016100E041617047C16070474FF48032C6
:1012C0000A43826181618261826982697047024654
:1012D0000020434B18684FF68073184040EA021014
:1012E00008433F4B186070473E49C8617047F0B5EE
:1012F0000A46002300240021002500F00046B6F134
:10130000004F02D1364EF16901E0354E7168C0F3ED
:10131000034583B200F44016B6F5401F08D121F012
:1013200070612F4E766826F070662D4F7E6012E059
:1013300000F48016B6F5801F06D1032606FA05F4E0
:10134000A14341F0706106E0460D360103FA06F64E
:10135000B14341F0706122B1460D360103FA06F641
:10136000314300F00046B6F1004F02D11C4EF1614E
:1013700001E01B4E7160F0BD30B500228B071C0FE1
:101380000F2303FA04F2164B08338C1053F8243061
:101390009343134C08348D1044F8253023468C10A9
:1013A00053F824308C07240F00FA04F423430C4C28
:1013B00008348D1044F8253030BD0A49DC3108600E
:1013C0007047000000080140000C0140001001407F
:1013D0000014014000180140001C014000200140A1
:1013E0000000014000002042DF48006840F001009A
:1013F000DD49086008464068DC490840DA49486031
:1014000008460068DA490840D7490860084600687D
:1014100020F4802008600846406820F4FE00486000
:101420004FF41F0088607047CF49096821F480316C
:10143000CD4A11601146096821F480211160B0F590
:10144000803F03D0B0F5802F0ED106E0C649096871
:1014500041F48031C44A116007E0C349096841F48E
:10146000A021C14A116000E000BF00BF704710B565
:1014700001460022002300204A11012A02D1BA4C61
:10148000236806E0022A02D1B74C236A01E0B64C79
:10149000636A01F01F02012494401C400CB101203A
:1014A00000E0002010BD38B5002000900024002589
:1014B00000BF3120FFF7DBFF05460098401C00907D
:1014C0000098B0F5A06F01D0002DF2D03120FFF7C9
:1014D000CEFF08B1012400E00024204638BD0146BB
:1014E0000020A14A106820F0F80040EAC100106016
:1014F0007047A04908607047024600209A4B586820
:1015000020F47C1042EA01031843974B586070475F
:1015100098490866704701460020934A506820F0B9
:1015200003000843506070478F48406800F00C008B
:101530007047014600208C4A506820F0F0000843B4
:101540005060704701460020874A506820F4E060F0
:1015500008435060704701460020834A506820F4D9
:10156000605040EAC1005060704729B17E4A527A0B
:1015700002437D4B5A7204E07B4A527A82437A4B93
:101580005A7270477B49D831086070470146002085
:10159000754A506820F4404008435060704700216D
:1015A000714A20321170704A82F82010012802D04E
:1015B00004280AD104E001216B4A2032117005E0B1
:1015C0000521694A2032117000E000BF00BF70475A
:1015D0006949086070476449096A0143624A1162B7
:1015E0007047654944390860704730B500210022D2
:1015F000002400235C4D6D6805F00C0121B1042925
:1016000005D0082923D105E05C4D056022E05B4D43
:1016100005601FE0544D6D6805F47012524D6D6801
:1016200005F48034022505EB92421CB9544D554314
:1016300005600BE04C4D6D6805F400351DB1504D53
:101640005543056002E04D4D5543056002E04B4DAA
:10165000056000BF00BF444D6D6805F0F001090949
:10166000484D6B5C0568DD4045603F4D6D6805F495
:10167000E061090A434D6B5C4568DD4085603A4D89
:101680006D6805F46051C90A3E4D6B5C4568DD40EC
:10169000C560354D6D6805F44041890B3A4D6B5C72
:1016A000C568B5FBF3F5056130BD29B12E4A526915
:1016B00002432D4B5A6104E02B4A526982432A4B64
:1016C0005A61704729B1284A92690243264B9A61B0
:1016D00004E0254A92698243234B9A61704729B1FD
:1016E000214AD2690243204BDA6104E01E4AD269E2
:1016F00082431D4BDA61704729B11B4AD26802430D
:10170000194BDA6004E0184AD2688243164BDA605B
:10171000704729B1144A12690243134B1A6104E05D
:10172000114A12698243104B1A61704712494039BD
:10173000086070470F49C86470470B49C87170470B
:101740000948406A40F08070074948627047014686
:101750000020054A92680A400AB1012000E00020FA
:101760007047014988727047001002400000FFF87E
:10177000FFFFF6FE000042428004424200127A005F
:1017800000093D00140000202400002010B504468C
:10179000BE48844208D101218014FFF7ADFF00212B
:1017A000A014FFF7A9FF16E0B948844208D101212F
:1017B0000014FFF7AEFF00212014FFF7AAFF0AE094
:1017C000B448844207D10121C013FFF7A2FF0021D2
:1017D000E013FFF79EFF10BD10B50022028802F44F
:1017E00041520B884C8823438C882343CC88234365
:1017F0000C8923434C8923438C892343CC8923437D
:101800001A430280838B4FF2FF74234083830B8A39
:10181000038210BD2DE9F04F85B005460C464FF010
:10182000000902274FF000084FF0010B0026B246D6
:10183000A88B4FF240010840A88302202884B5F805
:101840001C90A068022801D100BF38E0A08810B920
:101850004FF0010B01E04FF0020B8D48854200D1A3
:1018600000E000BF6846FFF7C0FEDDF800A0E0889A
:10187000B0F5007F0AD14FEA1A2000EB800040004B
:10188000A168B0FBF1F0401D86B20BE04FEA4B10AF
:10189000BAFBF0F000EB80004000A168B0FBF1F073
:1018A000401D86B20A20B6FBF0F606F00108A6EB52
:1018B0000800C0F34F074FF6FF7000EA0828022F18
:1018C00001DBFF2F02DD02274FF00008E08840EA2D
:1018D000080038432884A088A18908436188084308
:1018E0002188084340F4006040EA0909A5F81C90EB
:1018F00005B0BDE8F08F0021018041808180C1806A
:10190000018141818181C1810721018270470021CC
:10191000018041808180C18002218160002181811C
:10192000704721B1028842F04002028004E0028840
:101930004FF6BF731A400280704721B1828B42F488
:101940008062828304E0828B4FF6FF331A408283E9
:10195000704730B5002400230C110125A540ABB21F
:101960001AB185881D43858002E085889D43858066
:1019700030BD1AB183880B43838002E083888B4398
:1019800083807047818170470146888970474FF690
:10199000FF62914204D0028842F48072028004E027
:1019A00002884FF6FF631A400280704721B1828897
:1019B00042F00402828004E082884FF6FB731A40F2
:1019C0008280704702884FF2FF731A4002800288BB
:1019D0000A4302807047018841F4805101807047BA
:1019E00021B1028842F40052028004E002884DF6E0
:1019F000FF731A400280704702460020012901D07F
:101A0000108B00E0908A70470146088A7047B1F554
:101A1000804F04D1028842F48042028004E00288B0
:101A20004BF6FF731A40028070470246002013896C
:101A30000B400BB1012000E000207047CA43028137
:101A40007047F0B50246002000240023002501F075
:101A50000F070126BE40B4B20B1101269E40B3B25F
:101A6000968806EA03051689264016B10DB10120B5
:101A700000E00020F0BD10B5002201F00F040123AA
:101A8000A3409AB2D343038110BD0000003001404F
:101A900000380040003C004010B50446FE48844237
:101AA00008D10121C014FFF727FE0021E014FFF741
:101AB00023FEC4E0B4F1804F08D101210846FFF7AE
:101AC00028FE00210120FFF724FEB8E0F3488442FD
:101AD00008D101210220FFF71CFE00210220FFF7A0
:101AE00018FEACE0EE48844208D101210420FFF743
:101AF00010FE00210420FFF70CFEA0E0E94884421C
:101B000008D101210820FFF704FE00210820FFF77B
:101B100000FE94E0E448844208D101211020FFF740
:101B2000F8FD00211020FFF7F4FD88E0DF48844233
:101B300008D101212020FFF7ECFD00212020FFF734
:101B4000E8FD7CE0DA48844208D101214014FFF727
:101B5000D3FD00216014FFF7CFFD70E0D54884422B
:101B600009D10121C804FFF7C7FD00214FF400206F
:101B7000FFF7C2FD63E0D048844209D10121080586
:101B8000FFF7BAFD00214FF48010FFF7B5FD56E0D6
:101B9000CA48844209D101214805FFF7ADFD002163
:101BA0004FF40010FFF7A8FD49E0C548844208D172
:101BB00001214020FFF7ADFD00214020FFF7A9FDE6
:101BC0003DE0C048844208D101218020FFF7A1FDFB
:101BD00000218020FFF79DFD31E0BB48844208D101
:101BE00001218015FFF795FD0021A015FFF791FD5C
:101BF00025E0B648844209D101210804FFF77CFDA5
:101C000000214FF48030FFF777FD18E0B0488442A0
:101C100009D101214804FFF76FFD00214FF4003086
:101C2000FFF76AFD0BE0AB48844208D1012188042C
:101C3000FFF762FD00214FF48020FFF75DFD10BD2E
:101C400000220288944B98420ED0994B98420BD0B8
:101C5000B0F1804F08D0914B984205D0904B9842FC
:101C600002D0904B984204D14FF68F731A404B88A4
:101C70001A438D4B984207D08C4B984204D04FF6B4
:101C8000FF431A40CB881A4302808B8883850B88D8
:101C90000385814B98420BD0854B984208D08B4BE3
:101CA000984205D08A4B984202D08A4B984201D183
:101CB0000B7A038601238382704770B500240022CB
:101CC0000023058C4FF6FE7635400584028C838810
:101CD000048B4FF68F752C40B51E2C400D882C437D
:101CE000751E2A400D892A434D882A436A4DA84211
:101CF0000BD06F4DA84208D0744DA84205D0744D4A
:101D0000A84202D0734DA84213D14FF6F7752A406E
:101D10004D892A434FF6FB752A408D882A434FF69A
:101D2000FF652B404FF6FF552B408D892B43CD8906
:101D30002B4383800483CD888586028470BD70B573
:101D4000002400220023058C4FF6EF7635400584F1
:101D5000028C8388048B48F6FF752C404FF6FF45B4
:101D60002C400D884FF6FF7606EA05252C434FF6EA
:101D7000DF752A400D8906EA05152A434D8806EAD3
:101D800005152A43444DA84202D0494DA8421DD111
:101D90004FF67F752A404D894FF6FF7606EA051506
:101DA0002A434FF6BF752A408D8806EA05152A4357
:101DB0004FF6FF352B404FF2FF752B408D8906EA19
:101DC00085052B43CD8906EA85052B438380048353
:101DD000CD880587028470BD70B5002400220023E1
:101DE000058C4FF6FF6635400584028C8388848B12
:101DF0004FF68F752C404FF6FC752C400D882C4308
:101E00004FF6FF552A400D894FF6FF7606EA052565
:101E10002A434D8806EA05252A431F4DA84202D0D1
:101E2000234DA8421DD14FF2FF752A404D894FF630
:101E3000FF7606EA05252A434FF6FF352A408D88AE
:101E400006EA05252A434EF6FF752B404DF6FF7531
:101E50002B408D8906EA05152B43CD8906EA051529
:101E60002B4383808483CD888587028470BD70B5C1
:101E7000002200230024058C4EF6FF7635400584B1
:101E8000038C8488828B48F6FF752A404FF6FF4505
:101E90002A400D8820E00000002C01400004004092
:101EA00000080040000C00400010004000140040FA
:101EB00000340140004C01400050014000540140FA
:101EC00000180040001C004000200040004001407D
:101ED00000440140004801404FF6FF7606EA052520
:101EE0002A434DF6FF752B400D8906EA05352B4335
:101EF0004D8806EA05352B43FA4DA84202D0FA4D2B
:101F0000A84208D14BF6FF752C408D894FF6FF761D
:101F100006EA85152C4384808283CD88A0F8405042
:101F2000038470BD828B4FF2FF331A408283828B11
:101F30004FF6FF7303EA01231A4382837047F0B51B
:101F40000C461546002200210026078C4EF6FF7C29
:101F500007EA0C070784828B018C4FF6FF7707EAAC
:101F6000043640F6FF473A404FF6FF7707EA052769
:101F70003A434FF6FF7707EA03373A43D94FB8425F
:101F80000ED0D94FB8420BD0B0F1804F08D0D74F08
:101F9000B84205D0D64FB84202D0D64FB84206D18B
:101FA0004DF6FF77394046F48057394305E047F650
:101FB000FF57394044F48057394382830184F0BD90
:101FC000828B4FF6F3731A408283828B0A4382839B
:101FD0007047F0B50C461546002200210026078CFC
:101FE0004FF6FF6C07EA0C070784828B018C4FF6D3
:101FF000FF7707EA04264FF60C773A404FF6FF7753
:1020000007EA03172F433A43B64FB8420ED0B64FF4
:10201000B8420BD0B0F1804F08D0B44FB84205D0D1
:10202000B34FB84202D0B34FB84206D14FF6FF5774
:10203000394046F48077394305E04FF2FF57394085
:1020400044F48077394382830184F0BD028B4FF2E0
:10205000FF331A400283028B4FF6FF7303EA01231A
:102060001A4302837047F0B50C4615460022002142
:102070000026078C4FF6EF7C07EA0C070784028BDB
:10208000018C4FF6FF7707EA041640F6FF473A4007
:102090004FF6FF7707EA03373A434FF6FF7707EA31
:1020A00005273A438F4FB8420ED08F4FB8420BD01E
:1020B000B0F1804F08D08D4FB84205D08C4FB84258
:1020C00002D08C4FB84206D14FF6DF77394046F048
:1020D0001007394305E04FF65F77394044F01007A9
:1020E000394302830184F0BD028B4FF6F3731A402B
:1020F0000283028B0A4302837047F0B50C461546F3
:1021000000220021068C4FF6FE773E400684028BAB
:10211000018C4FF60C7632407E1C06EA03162E43E5
:102120003243704EB0420ED06F4EB0420BD0B0F181
:10213000804F08D06D4EB04205D06D4EB04202D0F7
:102140006C4EB04206D14FF6FD76314044F00106A8
:10215000314305E04FF6F576314044F00106314356
:1021600002830184F0BD70B505460C465D4885428A
:102170000ED05D4885420BD0B5F1804F08D05B484A
:10218000854205D05A48854202D05A48854200D13E
:1021900000E000BF208850B92389A28861882846C2
:1021A000FFF7ABFFE1882846FFF79EFF25E0208878
:1021B00004280AD12389A28861882846FFF753FFA3
:1021C000E1882846FFF742FF17E0208808280AD157
:1021D0002389A28861882846FFF7FBFEE18828460C
:1021E000FFF7EEFE09E02389A28861882846FFF701
:1021F000A6FEE1882846FFF795FE70BD2DE9F04167
:1022000005460C4600260127608808B9022600E032
:102210000026A088012801D1022700E0012720889C
:10222000A0B92389A28861882846FFF766FFE18864
:102230002846FFF759FF23893A4631462846FFF7DB
:1022400012FFE1882846FFF701FF13E02389A288E7
:1022500061882846FFF707FFE1882846FFF7F6FE6A
:1022600023893A4631462846FFF747FFE18828464A
:10227000FFF73AFFBDE8F0810A884B881A438B8844
:102280001A43CB881A430B891A434B891A438B890B
:102290001A43A0F8442070474FF6FF718180002157
:1022A0000180C1804180017270470021018041801E
:1022B0008180C180018141818181C181704700217C
:1022C00001804180012181800021C180018170470E
:1022D0000021018041808180C18001814181818113
:1022E00070470000002C0140003401400004004011
:1022F00000080040000C004021B1028842F00102B9
:10230000028004E002884FF6FE731A400280704794
:1023100031B1B0F8442042F40042A0F8442005E076
:10232000B0F84420C2F30E02A0F8442070471AB15E
:1023300083890B43838102E083898B4383817047C8
:102340008182704741EA0203A0F8483070471AB111
:1023500083890B43838102E083898B4383817047A8
:1023600001894FF6F8721140018170470A46002139
:1023700001894FF68F73194011430181704730B5C1
:1023800004460D4629462046FFF7F0FF208940F01D
:102390000700208130BD2DE9F04104460D46164668
:1023A0001F46602D06D13B46012231462046FFF7ED
:1023B0005AFE05E03B46012231462046FFF79DFECE
:1023C00029462046FFF7D2FF208940F007002081F0
:1023D000BDE8F08130B50C4600210189C9B24FF645
:1023E000FF7505EA0325154325432943018130BDC7
:1023F0002DE9F04105460E4617469846002443460F
:102400003A4631462846FFF7E5FF2C894FF6F8702B
:10241000044044F007044FF68F70044044F0700409
:102420002C81BDE8F081F0B504460D4616461F46E6
:102430003B46324629462046FFF7CCFF208940F430
:1024400080402081F0BD0185828270470A460021CC
:1024500001884FF68F731940114301807047F0B522
:102460000C4615461E460021002200230189028BDE
:10247000038C4FF6F877394021434FF6FC473A403A
:1024800040F201173A434FF6DD773B404FF6FF77B6
:1024900007EA06172F433B43018102830384F0BD03
:1024A0000A460021018B4FF68F73194011430183B7
:1024B00070470A460021018B48F6FF7319404FF61A
:1024C000FF7303EA02231943018370470A46002180
:1024D000818B4FF68F7319401143818370470A46F1
:1024E0000021818B48F6FF7319404FF6FF7303EA12
:1024F000022319438183704721B1028842F0800290
:10250000028004E002884FF67F731A400280704711
:1025100021B1828842F00402828004E082884FF672
:10252000FB731A408280704721B1828842F0080212
:10253000828004E082884FF6F7731A4082807047E9
:1025400021B1828842F00102828004E082884FF645
:10255000FE731A40828070470A460021018B4FF6B5
:10256000F77319401143018370470A460021018B1C
:102570004FF2FF7319404FF6FF7303EA022319432A
:10258000018370470A460021818B4FF6F77319408B
:102590001143818370470A460021818B4FF2FF73FC
:1025A00019404FF6FF7303EA0223194381837047F2
:1025B0000A460021018B4FF6FB731940114301833A
:1025C00070470A460021018B4FF6FF3319404FF642
:1025D000FF7303EA02231943018370470A4600216F
:1025E000818B4FF6FB7319401143818370470A4674
:1025F0000021818B4FF6FF3319404FF6FF7303EA3A
:1026000002231943818370470A460021018B4FF64C
:102610007F7319401143018370470A460021018BE3
:10262000C1F30E014FF6FF7303EA0223194301833E
:1026300070470A460021818B4FF67F731940114382
:10264000818370470A460021818BC1F30E014FF64A
:10265000FF7303EA02231943818370470A4600216E
:10266000018C4FF6FD7319401143018470470A46EF
:102670000021018C4FF6F773194011430184704714
:102680000A460021018C4FF6DF7319404FF6FF73A5
:1026900003EA02131943018470470A460021018CA2
:1026A0004FF67F7319404FF6FF7303EA0213194385
:1026B000018470470A460021018C4FF6FF531940F0
:1026C0004FF6FF7303EA02231943018470470A4659
:1026D0000021018C4FF2FF7319404FF6FF7303EA9C
:1026E00002231943018470470A460021018C4DF6EC
:1026F000FF7319404FF6FF7303EA02331943018455
:10270000704730B5002301248C40A3B2048C9C4355
:102710000484048C02FA01F5ADB22C43048430BD6C
:1027200030B5002304248C40A3B2048C9C43048461
:10273000048C02FA01F5ADB22C43048430BD70B5AF
:102740000346002000241846183001258D40ACB205
:102750001D8CA5431D8409B1082909D100EB610036
:10276000056825F0700505600568154305600EE0F5
:102770000D1FC5F34E052844056825F4E0450560A6
:1027800005684FF6FF7606EA02263543056070BD00
:1027900021B1028842F00202028004E002884FF672
:1027A000FD731A400280704721B1028842F0040292
:1027B000028004E002884FF6FB731A4002807047E3
:1027C00021B1828842F08002828004E082884FF644
:1027D0007F731A408280704702884FF6F7731A4061
:1027E000028002880A430280704782884FF68F7306
:1027F0001A40828082880A438280704702894FF69D
:10280000F8731A40028102890A43028170470289E3
:102810004FF67F731A40028102890A430281704792
:102820008184704781857047818670470187704732
:1028300081877047A0F84010704702884FF6FF4329
:102840001A40028002880A43028070470146888E3F
:1028500070470146088F70470146888F70470146D0
:10286000B1F8400070470146888C70470146088DDA
:10287000704702460020138A0B400BB1012000E094
:1028800000207047CA430282704730B502460020DC
:1028900000230024158A05EA0103958905EA01044D
:1028A00013B10CB1012000E0002030BDCA43028208
:1028B0007047000010B50446FB48844209D101214D
:1028C0008803FEF719FF00214FF48040FEF714FF44
:1028D00032E0F648844209D101214804FEF719FF8D
:1028E00000214FF40030FEF714FF25E0F048844249
:1028F00009D101218804FEF70CFF00214FF480204C
:10290000FEF707FF18E0EB48844209D10121C80413
:10291000FEF7FFFE00214FF40020FEF7FAFE0BE069
:10292000E548844208D101210805FEF7F2FE0021A6
:102930004FF48010FEF7EDFE10BD2DE9F04786B094
:1029400005460E460024A24600BFA1460027B089D6
:1029500000B100BF2F462C8A4CF6FF700440F0886F
:1029600004432C82AC894EF6F3100440B0883189C0
:102970000843718908430443AC81AC8A4FF6FF4099
:102980000440B0890443AC8201A8FEF72EFEC6487D
:10299000874202D1DDF810A001E0DDF80CA0A88983
:1029A00000F4004040B10AEBCA0000EB0A103168A5
:1029B0004900B0FBF1F807E00AEBCA0000EB0A108F
:1029C00031688900B0FBF1F86420B8FBF0F0040135
:1029D0002009642101FB1089A88900F4004040B15E
:1029E000322000EBC900B0FBF1F000F00700044317
:1029F00008E0322000EB09106421B0FBF1F000F098
:102A00000F0004432C8106B0BDE8F0874FF4165147
:102A1000016000218180C18001810C214181002160
:102A20008181704710B502460020108A4FF2FF03E3
:102A300018400B884C8823438C882343CC8823433D
:102A40001843108210BD0021018041808180C18027
:102A5000704721B1828942F40052828104E0828968
:102A60004DF6FF731A4082817047F0B5034600248B
:102A700000260025002040F66A17B94200D100BFA9
:102A80001846C1F3421401F01F06012707FA06F5A4
:102A9000012C01D10C3004E0022C01D1103000E0F7
:102AA00014301AB107682F43076002E00768AF438C
:102AB0000760F0BD1AB1838A0B43838202E0838AE8
:102AC0008B4383827047028A4FF6F0731A4002826A
:102AD000028A0A430282704782894FF2FF731A40CA
:102AE000828182890A438281704721B1828942F0C2
:102AF0000202828104E082894FF6FD731A408281CE
:102B00007047028A4FF6DF731A400282028A0A4334
:102B10000282704721B1028A42F48042028204E0BC
:102B2000028A4BF6FF731A4002827047C1F3080213
:102B30008280704701468888C0F308007047818909
:102B400041F0010181817047028BD2B20283028B76
:102B500042EA012202837047028B02F47F42028321
:102B6000028B0A430283704721B1828A42F020021D
:102B7000828204E0828A4FF6DF731A4082827047B5
:102B800021B1828A42F01002828204E0828A4FF6EA
:102B9000EF731A408282704721B1828A42F00802A4
:102BA000828204E0828A4FF6F7731A40828270476D
:102BB00021B1828942F40042828103E08289C2F31A
:102BC0000E028281704721B1828A42F400628282C1
:102BD00004E0828A4FF2FF731A4082827047828A31
:102BE0004FF6FB731A408282828A0A4382827047C0
:102BF00021B1828A42F00202828204E0828A4FF688
:102C0000FD731A408282704702460020B1F5007FB2
:102C100000D100BF13880B400BB1012000E0002061
:102C2000704701F40072B2F5007F00D100BFCA43C3
:102C30000280704770B50246002400230025002062
:102C400040F66A16B14200D100BFC1F3421501F04F
:102C50001F03012606FA03F3012D02D196893340A2
:102C600006E0022D02D1168A334001E0968A3340F5
:102C70000C12012606FA04F41688344013B10CB184
:102C8000012000E0002070BD10B50022002340F6B6
:102C90006A14A14200D100BF0A1201249440A3B2D9
:102CA000DC43048010BD00000038014000440040B7
:102CB00000480040004C00400050004002F01CFE64
:102CC00000200A4981F8300005F09CFA05F0BEFAB0
:102CD00005F06EFF05F0D1FA06F047FB012104482C
:102CE000FFF70AFB01E005F00BFBFCE7180A0020E8
:102CF0000004004010B53648008800F001000028AC
:102D000053D04FF6FE703249088032480088401C8C
:102D10003049088030480088401C2F49088004F062
:102D2000D9FC05F022FA2D480068012802D12C4870
:102D300005F07EFF2B4A51681068002205F0E0FF85
:102D400024480088082815D100202249088006F070
:102D500066FB2548007810B1052000F040FA0120FC
:102D6000224908702248007820B121480078401E8E
:102D70001F490870184800880A2801D103F0C4FBD5
:102D8000154800880B2801D103F027FC1248008861
:102D90000C2801D103F035FD0F4800880D2804D11F
:102DA00003F0B4FC00200C49088010BD704700BF40
:102DB000FEE700BFFEE700BFFEE700BFFEE770478B
:102DC000704710B503F077FA10BD704770470000E8
:102DD000100400403C0000203E000020280000209D
:102DE000CDCCCC3E181500203C0500202C00002046
:102DF000E904002000B585B001212020FEF762FC27
:102E000001214804FEF76BFC01210846FEF75AFC3D
:102E100001210820FEF76BFA2020ADF810001820E1
:102E20008DF8130003208DF8120004A98048FEF7E6
:102E300089F94020ADF8100004208DF8130004A992
:102E40007B48FEF77FF94FF4165000900020ADF854
:102E50000400ADF80600ADF80800ADF80C000C2039
:102E6000ADF80A0069467348FFF767FD012240F29A
:102E700025517048FFF7F9FD01216E48FFF7E9FD84
:102E800005B000BDF0B503460D461646002729469D
:102E90000A2E03D0002008702846F0BD33B9302038
:102EA00001F8010B002008702846F6E7002B03DA32
:102EB0002D2001F8010B5B4242F210720DE093FBF2
:102EC000F2F404B937B104F1300001F8010B04FB4E
:102ED000123301270A2092FBF0F2002AEFDC0020D7
:102EE00008702846D9E710B553480078FF2811DA52
:102EF00040F225514F48FFF79DFE58B14D48FFF76E
:102F000019FE4E494C4A127888544B480078401CB0
:102F10004949087010BD0146474800780870474885
:102F2000704700204449087070470FB470B586B0F0
:102F300006460CA8019073E00B9800785C281CD121
:102F40000B98401C0B9000786E2809D072280FD186
:102F50000D213046FFF7EAFD0B98401C0B900BE06B
:102F60000A213046FFF7E2FD0B98401C0B9003E06E
:102F70000B98401C0B9000BF4BE00B980078252865
:102F800040D10B98401C0B900078642818D073280F
:102F900033D1019810C801900BE021783046FFF73B
:102FA000C5FD00BF80213046FFF72EFE0028F9D076
:102FB000641C20780028F0D10B98401C0B9020E076
:102FC000019820C801900A2202A92846FFF75AFF5B
:102FD00002AC0BE021783046FFF7A8FD00BF80214E
:102FE0003046FFF711FE0028F9D0641C2078002835
:102FF000F0D10B98401C0B9003E00B98401C0B90F9
:1030000000BF06E00B9810F8011B0B903046FFF74D
:103010008DFD00BF80213046FFF7F6FD0028F9D076
:103020000B980078002887D106B070BC5DF814FBBF
:10303000001401400044004040000020BC05002076
:1030400008B501210846FEF730FB01214FF401705D
:10305000FEF738FB1020ADF8000000208DF80300CB
:1030600069463948FEF76EF808BD00B591B037489B
:10307000FDF700FC3648069036480790002008907F
:103080000120099000200A900B904FF480700C9062
:1030900080000D9020200E9000020F9000201090D4
:1030A00006A92A48FDF788FC01212848FDF7AFFC56
:1030B000002001908DF8080001208DF809004FF4E0
:1030C000602003900020049001208DF8140001A9D5
:1030D0001F484C38FDF7CDF94FF44040FEF756FA43
:1030E000052301220A211A484C38FDF75AFA01211A
:1030F00017484C38FDF7F4F9012115484C38FDF715
:10310000E4F913484C38FDF702FA00BF10484C3878
:10311000FDF702FA0028F9D10D484C38FDF706FA00
:1031200000BF0B484C38FDF706FA0028F9D1012101
:1031300007484C38FDF709FA11B000BD10B5FFF78C
:103140007FFFFFF792FF10BD00080140080002401A
:103150004C2401404200002008B501211020FEF758
:10316000B1FA01210820FEF7ADFA3020ADF80000D9
:1031700010208DF8030003208DF8020069463748BF
:10318000FDF7E0FF0320ADF8000010208DF80300EC
:1031900003208DF8020069463148FDF7D3FF302146
:1031A0002E48FEF77CF803212D48FEF778F808BD7D
:1031B00008B501210420FEF785FA0F20ADF80000C4
:1031C00010208DF8030003208DF802006946254881
:1031D000FDF7B8FF0F212348FEF761F808BD10B5D1
:1031E000044621480088012806D0022809D0032877
:1031F0000CD0042814D10EE002211948FEF755F82E
:1032000013E002211648FEF74AF80EE002211448A6
:10321000FEF74BF809E002211148FEF740F804E000
:1032200002210F48FEF73BF800BF00BF0F4800889F
:10323000401C0E49088008460088A04206DD002098
:10324000088009480088401C074908800648008813
:10325000192802DD00200449088010BD001001403B
:10326000000C0140000801404400002046000020FE
:1032700070B50546002405E0601CC4B2C82C01DD11
:10328000002070BD02214D48FEF7CFFB0028F3D08F
:1032900029464A48FEF776FB002405E0601CC4B2CC
:1032A000C82C01DD0020ECE701214448FEF7BDFBFE
:1032B0000028F3D04148FEF767FBC0B2E1E700B554
:1032C00087B0012141F21500FEF7FCF9A020ADF80E
:1032D000180003208DF81A0018208DF81B0006A98D
:1032E0003748FDF72FFF4020ADF8180004208DF877
:1032F0001B0006A93248FDF725FF1020ADF8180085
:1033000003208DF81A0010208DF81B0006A92C4808
:10331000FDF718FF0420ADF8180003208DF81A00FF
:1033200010208DF81B0006A92648FDF70BFF08208A
:10333000ADF8180003208DF81A0048208DF81B0006
:1033400006A92048FDF7FEFE0020ADF804004FF46A
:103350008270ADF806000020ADF80800ADF80A0054
:10336000ADF80C004FF40070ADF80E001020ADF871
:1033700010000020ADF812000720ADF8140001A9DC
:103380000E48FEF729FA01210C48FEF7CAFAFF2081
:10339000FFF76EFF07B000BD10B504460748008870
:1033A0004FF6C77108400549088008460088204349
:1033B000088001210148FEF7B4FA10BD0030014039
:1033C000000801400010014008B501210820FEF767
:1033D00079F94020ADF8000003208DF80200142098
:1033E0008DF803006946BA48FDF7ACFE8020ADF8C1
:1033F000000003208DF8020014208DF803006946B8
:10340000B348FDF79FFE08BD00BF704741F288300A
:1034100000E0401E0028FCD1704700B58020AC4978
:103420001031086040200860FFF7EEFFA848083020
:10343000006808B9012000E0002000F0800008B119
:10344000002000BD8020A24914310860FFF7DCFF96
:103450009F480830006800F0800008B10020F0E7C5
:1034600080209B4914310860FFF7CEFF0120E8E778
:1034700000B54020964914310860FFF7C5FF802051
:10348000934914310860FFF7BFFF40209049103185
:103490000860FFF7B9FF80208D4910310860FFF701
:1034A000B3FF00BD00B54020894914310860FFF723
:1034B000ABFF8020864914310860FFF7A5FF40204C
:1034C000834910310860FFF79FFF40208049143185
:1034D0000860FFF799FF00BD00B540207C4914311A
:1034E0000860FFF791FF8020794910310860FFF7ED
:1034F0008BFF4020764910310860FFF785FF4020A0
:10350000734914310860FFF77FFF00BD00B540200C
:103510006F4914310860FFF777FF80206C49103144
:103520000860FFF771FF4020694910310860FFF71C
:103530006BFF67480830006800F0800038B1402019
:10354000634914310860FFF75FFF002000BD402091
:103550005F4914310860FFF757FF0120F6E700B517
:1035600008211BE040225A4B14331A60FFF74CFF2E
:1035700000F0800222B18022554B10331A6003E024
:103580008022534B14331A604206100EFFF73CFFA3
:1035900040224F4B10331A60FFF736FF0A00A1F1AB
:1035A0000103D9B2DED14022494B14331A6000BD69
:1035B00000B5082100208022454B10331A6015E029
:1035C0004206100E4022424B14331A60FFF71CFFD4
:1035D00040223F4B10331A60FFF716FF3C4A083277
:1035E000126802F080020AB140F001000A00A1F165
:1035F0000103D9B2E4D14022354B14331A6000BD27
:1036000070B506460C461546FFF707FF08B90020BF
:1036100070BD3046FFF7A3FFFFF778FF18B9FFF73B
:1036200027FF0020F4E72046FFF799FFFFF76EFF22
:103630002846FFF794FFFFF769FFFFF719FFFFF731
:10364000E5FE0120E4E730B505460C46FFF7E5FE50
:1036500008B9002030BD2846FFF781FFFFF756FF6D
:1036600018B9FFF705FF0020F4E72046FFF777FFC2
:10367000FFF74CFFFFF7FCFEFFF7C8FE0120E9E76C
:1036800070B504460D46FFF7C8FE08B9002070BDAE
:103690002046FFF764FFFFF739FF18B9FFF7E8FE90
:1036A0000020F4E72846FFF75AFFFFF72FFFFFF748
:1036B000B4FE611CC8B2FFF752FFFFF727FFFFF708
:1036C00077FF0646FFF708FFFFF7D2FE3046DEE73A
:1036D000000C014001B502E00098401E00900098E7
:1036E0000028F9D108BD08B501214020FDF7EAFF07
:1036F00049F28050ADF8000003208DF80200482008
:103700008DF8030069464948FDF71CFD08BD10B55A
:103710004FF400414548FDF7A8FD012814D14FF4AE
:103720007A60FFF7D7FF4FF400414048FDF79DFD59
:10373000012879D100BF4FF400413C48FDF795FDC9
:103740000128F8D0022010BD4FF480513748FDF712
:103750008CFD012814D14FF47A60FFF7BBFF4FF4C2
:1037600080513248FDF781FD01285DD100BF4FF443
:1037700080512E48FDF779FD0128F8D00320E2E7BB
:103780004FF480612948FDF770FD012814D14FF4F2
:103790007A60FFF79FFF4FF480612448FDF765FDD5
:1037A000012841D100BF4FF480612048FDF75DFD45
:1037B0000128F8D00420C6E74FF480711B48FDF7BC
:1037C00054FD012814D14FF47A60FFF783FF4FF4C2
:1037D00080711648FDF749FD012825D100BF4FF43F
:1037E00080711248FDF741FD0128F8D00520AAE7B5
:1037F00080210E48FDF739FD012813D14FF47A607E
:10380000FFF768FF80210948FDF72FFD01280BD144
:1038100000BF80210548FDF728FD0128F9D00620CA
:1038200091E701E000208EE700BF8CE7001801401F
:1038300070B5044608250121FE48FDF730FD00BFA4
:103840000821FC48FDF731FD00BF16E004F08000C0
:1038500020B10421F748FDF722FD03E00421F548DB
:10386000FDF723FD0821F348FDF719FD00BF0821EE
:10387000F048FDF71AFD6006040E2800A5F10101CD
:10388000CDB2E3D170BD70B5044608250121E948E9
:10389000FDF70BFD0821E748FDF707FD00BF16E027
:1038A00004F0800020B10421E248FDF7F8FC03E0B9
:1038B0000421E048FDF7F9FC0821DE48FDF7EFFCA4
:1038C00000BF0821DB48FDF7F0FC6006040E28006D
:1038D000A5F10101CDB2E3D170BD70B504460D462E
:1038E00005F1B001C8B2FFF7CEFF102141EA141074
:1038F000FFF7C9FF04F00F00FFF7C5FF70BD70B5FB
:103900000646002415E004F1B001C8B2FFF7BBFF82
:103910000120FFF7B8FF1020FFF7B5FF002504E0F6
:103920003046FFF785FF681CC5B2802DF8DB601CB0
:10393000C4B2082CE7DB70BD70B5002415E004F1BB
:10394000B001C8B2FFF79FFF0120FFF79CFF1020D6
:10395000FFF799FF002504E00020FFF769FF681CCE
:10396000C5B2802DF8DB601CC4B2082CE7DB70BD4B
:1039700007E040F2375100BF0A00A1F10101FBD17D
:10398000401E0028F5D1704710B504462046FFF7C9
:103990007AFF10BD70B504462546E11704EB11719E
:1039A0000911A4EB0111C8B2FFF76DFF2546E1171D
:1039B00004EB117109111031C8B2FFF764FF70BD3B
:1039C00010B504462020FFF75EFF2046FFF75BFF9F
:1039D00010BD70B505460C462120FFF754FF284660
:1039E000FFF751FF2046FFF74EFF70BD70B505464B
:1039F0000C462220FFF747FF2846FFF744FF2046EA
:103A0000FFF741FF70BD10B5044644F04000FFF7DA
:103A10003AFF10BD10B504468120FFF734FF204661
:103A2000FFF731FF10BD10B504468D20FFF72BFFC7
:103A300044F01000FFF727FF10BD10B5044644F016
:103A4000A000FFF720FF10BD10B5044644F0A4000D
:103A5000FFF719FF10BD10B5044644F0A600FFF7AC
:103A600012FF10BD10B50446A820FFF70CFF20463A
:103A7000FFF709FF10BD10B5044644F0AE00FFF794
:103A800002FF10BD10B5044644F0B000FFF7FBFE86
:103A900010BD10B5044644F0C000FFF7F4FE10BDA1
:103AA00010B50446D320FFF7EEFE2046FFF7EBFEED
:103AB00010BD10B50446D520FFF7E5FE2046FFF700
:103AC000E2FE10BD10B50446D920FFF7DCFE20460B
:103AD000FFF7D9FE10BD10B50446DA20FFF7D3FE7C
:103AE00044F00200FFF7CFFE10BD10B50446DB2006
:103AF000FFF7C9FE2046FFF7C6FE10BD10B5E32054
:103B0000FFF7C1FE10BD08B501212020FDF7DAFD49
:103B10000F20ADF8000003208DF8020010208DF872
:103B2000030069464348FDF70DFB08214148FDF7B6
:103B3000B6FB02213F48FDF7B8FB3220FFF718FF24
:103B400002213C48FDF7ABFBAE20FFF79CFED520E1
:103B5000FFF799FE8020FFF796FEA820FFF793FE5F
:103B60003F20FFF790FED320FFF78DFE0020FFF7E8
:103B70008AFE4020FFF787FE8D20FFF784FE142089
:103B8000FFF781FE2020FFF77EFE0220FFF77BFE7D
:103B9000A120FFF778FEC820FFF775FEDA20FFF7B7
:103BA00072FE1220FFF76FFE8120FFF76CFECF2020
:103BB000FFF769FED920FFF766FEF120FFF763FEED
:103BC000DB20FFF760FE4020FFF75DFEA420FFF73B
:103BD0005AFEA620FFF757FEAF20FFF754FE002045
:103BE000FFF78DFE00210846FFF777FE08BD70B590
:103BF00005460C4621462846FFF76FFE2046E11792
:103C000004EB5171C910A4EBC10201219140CEB265
:103C1000B02101EBE401C8B2FFF735FE102141EA03
:103C20001510FFF730FE05F00F00FFF72CFE3046B1
:103C300002E0000000140140FFF7FAFD70BD2DE91D
:103C4000F04105460E464FF4047095FBF0F005B2C6
:103C50004FF4047096FBF0F006B201276CE007F118
:103C6000B001C8B2FFF70FFE0120FFF70CFE1020D5
:103C7000FFF709FEDDB9002404E00020FFF7D8FDBE
:103C8000601CC4B23E2CF8DB3E2404E0FF20FFF7AA
:103C9000CFFD601CC4B2402CF8DB402404E00020BF
:103CA000FFF7C6FD601CC4B27F2CF8DB42E0002D9C
:103CB00016DD002404E00020FFF7BAFD601CC4B24A
:103CC000C5F13E00A042F6DCC5F13E00C4B204E0FE
:103CD000FF20FFF7ADFD601CC4B23E2CF8DB29E0ED
:103CE000002D27DA002404E00020FFF7A1FD601C6E
:103CF000C4B23E2CF8DB3E2404E0FF20FFF798FD21
:103D0000601CC4B2402CF8DB402404E0FF20FFF725
:103D10008FFD601CC4B2C5F14000A042F6DCC5F1C5
:103D20004000C4B204E00020FFF782FD601CC4B272
:103D30007F2CF8DB781CC7B2032F90DB05276CE0E3
:103D400007F1B001C8B2FFF79EFD0120FFF79BFD10
:103D50001020FFF798FDDEB9002404E00020FFF7F3
:103D600067FD601CC4B23E2CF8DB3E2404E0FF205B
:103D7000FFF75EFD601CC4B2402CF8DB402404E079
:103D80000020FFF755FD601CC4B27F2CF8DB42E039
:103D9000002E16DD002404E00020FFF749FD601C22
:103DA000C4B2C6F13E00A042F6DCC6F13E00C4B289
:103DB00004E0FF20FFF73CFD601CC4B23E2CF8DBA2
:103DC00029E0002E27DA002404E00020FFF730FD70
:103DD000601CC4B23E2CF8DB3E2404E0FF20FFF759
:103DE00027FD601CC4B2402CF8DB402404E0FF2017
:103DF000FFF71EFD601CC4B2C6F14000A042F6DC15
:103E0000C6F14000C4B204E00020FFF711FD601CC1
:103E1000C4B27F2CF8DB781CC7B2072F90DBBDE85B
:103E2000F0812DE9F0470446884615464FF0000919
:103E30000026002741462046FFF74FFD1CE0E85DC5
:103E4000203800F0FF097E2C04DD002408F1010079
:103E500000F0FF08002609E009EB4901FE4A02EBE9
:103E60004101885DFFF7E4FC701CC6B2062EF3DB4F
:103E7000A01DC4B2781CC7B2E85D0028DFD1BDE840
:103E8000F0872DE9F04706460F46904600250024AE
:103E9000A14631E018F809002038C5B2782E02DDBD
:103EA0000026781CC7B239463046FFF716FD0024BD
:103EB00007E004EB0511E94A505CFFF7B9FC601C10
:103EC000C4B2082CF5DB781CC1B23046FFF705FD03
:103ED000002408E004EB05110831E04A505CFFF7CC
:103EE000A7FC601CC4B2082CF4DB06F10800C6B2C3
:103EF00009F1010000F0FF0918F809000028C9D1F4
:103F0000BDE8F0872DE9F04781460F469046002432
:103F1000002601256BE00024012513E0D048005D58
:103F200018F8061088420BD1CD49601C095C701C42
:103F300018F80000814203D1C4EBC400450005E03D
:103F4000A01CC4B2C648005D7F28E7DC00BFB9F101
:103F5000760F03DD4FF00009781CC7B2394648469A
:103F6000FFF7BBFC012D1FD039464846FFF7B5FCD3
:103F7000002406E0BB49485DFFF75AFC6D1C601C3D
:103F8000C4B20E2CF6DB781CC1B24846FFF7A5FC84
:103F9000002406E0B349485DFFF74AFC6D1C601C35
:103FA000C4B20E2CF6DB1CE0701CC6B23946484683
:103FB000FFF793FC002404E00020FFF739FC601CAD
:103FC000C4B2102CF8DB781CC1B24846FFF785FC60
:103FD000002404E00020FFF72BFC601CC4B2102C6E
:103FE000F8DB09F10E0000F0FF09B01CC6B218F8AA
:103FF000060000288FD1BDE8F087F8B506460F46C9
:104000001546002427E0285D7F2814DD285D8DF803
:104010000000601C285C8DF8010000208DF8020073
:104020006A4639463046FFF76DFF06F10E00C6B20C
:10403000A01CC4B20FE0285D8DF8000000208DF8B0
:1040400001006A4639463046FFF71BFF06F10800BB
:10405000C6B2601CC4B2285D0028D4D1F8BDF8B542
:1040600005460C461646E006040E8DF8006000205A
:104070008DF801006A4629462046FFF7D2FEF8BDBA
:10408000F8B507460E4615460024F006060E27E052
:10409000285D7F2814DD285D8DF80000601C285CF9
:1040A0008DF8010000208DF802006A46394630463E
:1040B000FFF728FF06F10E00C6B2A01CC4B20FE045
:1040C000285D8DF8000000208DF801006A46394611
:1040D0003046FFF7D6FE06F10800C6B2601CC4B237
:1040E000285D0028D4D1F8BD2DE9FC4107460E46D5
:1040F000144698460025002000900190F006060E18
:1041000042F21070B4FBF0F00A21B0FBF1F201FBB7
:1041100012008DF800004FF47A70B4FBF0F0B0FBA1
:10412000F1F201FB12008DF801006420B4FBF0F005
:10413000B0FBF1F201FB12008DF802000A20B4FB83
:10414000F0F0B0FBF1F201FB12008DF803000A2041
:10415000B4FBF0F100FB11408DF8040000BF07E054
:104160001DF805003030C0B20DF80500681CC5B25E
:10417000052DF5DBC8F10500694642183946304681
:10418000FFF77FFEBDE8FC812DE9FF5F86B0144696
:104190001D464FF0010A00200390049005904FF057
:1041A0000109002600BF8346002213462046294607
:1041B00005F008FD09D285F00040CDE90040204619
:1041C000019905F0B3FC064604E02046294605F0B7
:1041D000ADFC0646304605F052FC22462B46CDE9A2
:1041E000000105F04CFB0746884600221E4B38466E
:1041F000414605F047FBCDE9000105F0B6FC8346DA
:1042000007E009EB89004FEA40090AF1010000F0DC
:10421000FF0A0A2096FBF0F090FBF9F00028F0D19D
:1042200042F2107096FBF0F00A2190FBF1F201FBD4
:104230001200C0B28DF80C004FF47A7096FBF0F0CB
:1042400090FBF1F201FB1200C0B28DF80D0064206A
:1042500096FBF0F00AE00000ACA6000897AA000860
:10426000D4A80008F3A800080088C34090FBF1F22E
:1042700001FB1200C0B28DF80E000A2096FBF0F090
:1042800090FBF1F201FB1200C0B28DF80F000A2082
:1042900096FBF0F100FB1160C0B28DF810002E20EB
:1042A0008DF811004FF47A70BBFBF0F00A21B0FBDF
:1042B000F1F201FB12008DF812006420BBFBF0F05C
:1042C000B0FBF1F201FB12008DF813000A20BBFBDA
:1042D000F0F0B0FBF1F201FB12008DF814000A209F
:1042E000BBFBF0F100FB11B08DF815000021149814
:1042F000801D03AA1154894608E003A810F809009C
:10430000303003A901F8090009F10109B9F10A0FD8
:10431000F3DB002213462046294605F053FC08D261
:104320000AF1010000F0FF0A2D20CAF1050103AADD
:1043300050542E208DF8110000211498801D03AADE
:104340001154CAF1050003A94218DDE90610FFF770
:1043500068FD0AB0BDE8F09F2DE9F04F89B08246B4
:10436000894617469846DDF84CB00120079000209A
:104370000490059006900124002500BF00264FEA16
:10438000C9604FEA10693846414605F0CFFB054643
:10439000284605F085FB3A464346CDE9000105F085
:1043A0006EFACDE902010022FE4BDDE9020105F0C3
:1043B00069FACDE9000105F0D8FB064606E004EBFA
:1043C000840044000798401CC0B207900A20B5FB47
:1043D000F0F0B0FBF4F00028F1D142F21070B5FB20
:1043E000F0F00A21B0FBF1F201FB12008DF8100091
:1043F0004FF47A70B5FBF0F0B0FBF1F201FB120064
:104400008DF811006420B5FBF0F0B0FBF1F201FB78
:1044100012008DF812000A20B5FBF0F0B0FBF1F2AB
:1044200001FB12008DF813002E208DF815004FF4BB
:104430007A70B6FBF0F0B0FBF1F201FB12008DF8E0
:1044400016006420B6FBF0F0B0FBF1F201FB1200A5
:104450008DF817000A20B6FBF0F0B0FBF1F201FB7B
:1044600012008DF818000A20B6FBF0F100FB116075
:104470008DF8190000210BF1060004AA1154002444
:1044800005E004A8005D303004A90855641C0A2C1E
:10449000F7DB2E208DF8150000210BF1060004AA91
:1044A00011541298C0F1050004A94218514648461B
:1044B000FFF7E7FC09B0BDE8F08F2DE9F05F064695
:1044C0000F4690461C46DDF828A04FF0000BE11780
:1044D00004EB5171C910A4EBC10131B92046E117B9
:1044E00004EB5171C1F3C70506E02046E11704EB68
:1044F0005171C910491CCDB23D4614E029463046E1
:10450000FFF7EBF9B1460AE059460BF1010B1AF837
:104510000100FFF78DF909F1010000F0FF09C14525
:10452000F2DB681CC5B2A542E8DDBDE8F09F70B5BE
:104530000026002411E021461020FFF7CEF91025B7
:1045400007E03146761C984A505CFFF771F9681C09
:10455000C5B2702DF5DB601CC4B2082CEBDB70BD5E
:1045600070B50026002411E021461C20FFF7B5F9A4
:104570001C2507E03146761C8C4A505CFFF758F941
:10458000681CC5B2582DF5DB601CC4B2082CEBDBEF
:1045900070BDF8B506460F4614460020009002256F
:1045A0000DE00A2094FBF0F100FB11403030C0B266
:1045B0000DF805000A2094FBF0F0C4B26D1E002D2A
:1045C000EFDA6A4639463046FFF75BFCF8BDF8B5CE
:1045D00006460F4614460020009002250DE00A20F2
:1045E00094FBF0F100FB11403030C0B20DF8050033
:1045F0000A2094FBF0F0C4B26D1E002DEFDA6A467B
:1046000039463046FFF70DFCF8BD2DE9F04105466F
:104610000F46164600BF05EB45014906080E394610
:10462000FFF75BF900240AE006F1100101EB4101FC
:104630005F4A02EB4101085DFFF7FAF8641C062CA3
:10464000F2DBBDE8F0812DE9F04705460E46144641
:104650000A2094FBF0F100FB1140C7B20A2094FB42
:10466000F0F00A2190FBF1F201FB120000F0FF08CC
:10467000642094FBF0F000F0FF09A91CC8B23A4690
:104680003146FFF7C2FF691CC8B242463146FFF708
:10469000BCFF4A4631462846FFF7B7FFBDE8F08722
:1046A0002DE9F05F05468B4616463446002C00DAAD
:1046B00064424FF47A7094FBF0F0C7B24FF47A7012
:1046C00094FBF0F100FB1140642190FBF1F000F04D
:1046D000FF08642094FBF0F100FB11400A2190FBDD
:1046E000F1F000F0FF090A2094FBF0F100FB11400B
:1046F00000F0FF0A3A4659462846FFF786FF691C34
:10470000C8B242465946FFF780FFA91CC8B24A46C4
:104710005946FFF77AFFE91CC8B252465946FFF7DF
:1047200074FFBDE8F09F2DE9F05F05460E46144684
:1047300042F21070B4FBF0F0C7B242F21070B4FB5A
:10474000F0F100FB11404FF47A71B0FBF1F000F092
:10475000FF080846B4FBF0F100FB11406421B0FBF8
:10476000F1F000F0FF096420B4FBF0F100FB114010
:104770000A21B0FBF1FA0A20B4FBF0F100FB114B67
:104780003A4631462846FFF740FF691CC8B2424608
:104790003146FFF73AFFA91CC8B24A463146FFF737
:1047A00034FF07E00088C3404800002087B00008BD
:1047B000ACA60008E91CC8B252463146FFF725FFF7
:1047C000291DC8B25A463146FFF71FFFBDE8F09FCA
:1047D00000B587B001210846FCF781FF40F6C31001
:1047E000ADF814004720ADF810000020ADF8160019
:1047F000ADF8120004A93E48FDF722FA04A94FF0D3
:104800008040FDF71DFA6020ADF800000120ADF8F2
:1048100002004FF49660ADF806000020ADF80800E5
:1048200069464FF08040FDF748FA0821C806FDF7B9
:1048300093FE69464FF08040FDF781FA0821C806D3
:10484000FDF793FE69464FF08040FDF7C5FA082159
:10485000C806FDF797FE69464FF08040FDF707FB5D
:104860000821C806FDF797FE01218807FDF744FEE1
:1048700001218807FDF740FD07B000BD08B5012103
:104880000420FCF71FFF0F20ADF8000018208DF862
:10489000030003208DF8020069461648FCF752FC1D
:1048A000FFF796FF08BD30B540F21454A04200DD7A
:1048B000204640F21454A14200DD214640F2145437
:1048C000A24200DD224640F21454A34200DD2346FA
:1048D00000F57A744FF08045AC8601F57A742C8728
:1048E00002F57A74AC8703F57A74034D2C8030BDE1
:1048F0000034014000080140400000403EB504463D
:1049000001210220FCF7EBFE2E48FDF7C5F8ADF8BB
:1049100004404720ADF800000020ADF80600ADF8D7
:10492000020069462748FDF78BF901212548FDF76C
:10493000A9FF012211462348FDF7F9FC0021214877
:10494000FDF7DAFC3EBD08B54FF4A060FBF7FCFCB8
:104950001D208DF8000002208DF8010000208DF848
:10496000020001208DF803006846FBF7F2FC1E20D0
:104970008DF8000000208DF801008DF80200012064
:104980008DF803006846FBF7E4FC27208DF8000053
:1049900001208DF8010000208DF8020001208DF823
:1049A00003006846FBF7D5FC26208DF800000120A7
:1049B0008DF801008DF802008DF803006846FBF7C2
:1049C000C8FC08BD00040040014600BF704700BF9E
:1049D000654A128802F04002002AF9D0C2B2624B46
:1049E0001B1D1A80704710B586B00446012144F2A1
:1049F0000400FCF767FE4FF40070ADF814000320CC
:104A00008DF8160018208DF8170005A95748FCF7F7
:104A100099FB4FF48060ADF8140004208DF8170066
:104A200005A95248FCF78EFB25208DF800000320D5
:104A30008DF801008DF8020001208DF80300684612
:104A4000FBF787FC01940020ADF80800ADF80A00E0
:104A5000ADF80C00ADF810000C20ADF80E0001A967
:104A60004148FDF76AFF012240F225513E48FDF71B
:104A7000FCFF01213C48FDF7ECFF06B010BD10B56E
:104A80003948008800F0080018B13748001D008838
:104A9000C4B240F225513448FEF7CCF858B140F288
:104AA00025513148FEF7F0F82F48001D0088C4B2A8
:104AB000204602F0BAFA40F227712B48FEF7BAF806
:104AC000C0B12B4801780078401C294A1070294851
:104AD000405C2549091D0880104600782649097860
:104AE000884207D120480C30008820F080001E4901
:104AF0000C31088010BD10B5044600BF80211A4853
:104B0000FEF782F80028F9D021461748FEF70EF884
:104B100010BD10B5044603E014F8010BFFF7EBFFDE
:104B200020780028F8D110BD70B505460E46002447
:104B30000AE0295D104802780078401C0E4B18707E
:104B40000C488154601CC4B2B442F2DB06480C30FD
:104B5000008800F0800028B9012240F22771024845
:104B6000FDF783FF70BD00000038014000080140E0
:104B70005603002083070020570300204FF0E02158
:104B8000096921F004014FF0E0221161C21700EB26
:104B90005272C2F3C702294B1A701946097801EB09
:104BA0004102C2EBC1114FF6FF7202EAC101244A71
:104BB000118070470146224A12884A434FF0E02391
:104BC0005A6100229A6101221A6100BF4FF0E0226F
:104BD000106900F001021AB100F48032002AF5D009
:104BE00000224FF0E0231A619A6170470146134A90
:104BF00012784A434FF0E0235A6100229A61012261
:104C00001A6100BF4FF0E022106900F001021AB1F2
:104C100000F48032002AF5D000224FF0E0231A6120
:104C20009A617047002106E0002200E0521CB2F5B4
:104C3000FA7FFBD3491C8142F6D37047580300200A
:104C40005A030020034606210622F9480188F94844
:104C50000288ABB1012B1BD13AB94EF6EE6081420E
:104C600001D1002070470120FCE739B94EF6EE6013
:104C7000824201D10120F5E70020F3E7AB20F1E704
:104C800009B90020EEE70AB90120EBE7AB20E9E71C
:104C90000020E7E770B5042600240120FFF7D2FFCB
:104CA0000446AB2C06D1E24800EBC420E249086080
:104CB000AB2070BDDE4800EBC420DF490860601CFB
:104CC000DB49891E01EBC0250CE0DB480068006869
:104CD000401C10B904263046EBE7D7480068001D99
:104CE000D5490860D4480068A842EED38020E0E7A8
:104CF00010B50424CE48FBF74BFF0446042C01D02A
:104D0000204610BD0021CA48FCF745F80446042C93
:104D100001D02046F5E7C748FBF73AFF0446204696
:104D2000EFE72DE9F04104460F4604250026DFF8A1
:104D30000483A8F101080120FFF784FF0646AB2E8B
:104D400001D1BDE8F081701CB949891E01EBC02872
:104D500021E0B94800680068401CB8B93946B64837
:104D60000068FCF718F80546042D01D02846E8E74E
:104D70002146B1480068801CFCF70DF80546AE4896
:104D80000068001DAC4908602846DAE7AA480068B8
:104D9000001DA9490860A84800684045D9D3802073
:104DA000CFE72DE9F04706460F46002545F2555856
:104DB0004FF001099E4CA2460020FFF743FF054635
:104DC000AB2D01D1BDE8F087994800EBC52A9A4880
:104DD0000068841E0BE0B4F80080B04506D134F8BA
:104DE000020C00B238804FF0000904E0241F0AF1E1
:104DF00002008442EFD800BF4846E3E72DE9F047C0
:104E00004FF0060A062600250027A8464FF0FF3976
:104E10008748B0F800A0874806885FEA0A0076D085
:104E2000A0F56E40EE3858B3A0F588501138002830
:104E30006ED146B97E48FBF7ABFE0446042C1ED06B
:104E40002046BDE8F0874EF6EE60864210D17848E5
:104E5000FBF79EFE0446042C01D02046F1E700211A
:104E60007448FBF798FF0446042C08D02046E8E776
:104E7000FFF73EFF0446042C01D02046E1E7B0E0F6
:104E800086BB002523E06A48C0886C4931F81510BC
:104E9000884201D10FFA85F94D4516D0674931F89E
:104EA00015006749FFF77DFF8046B8F1010F0CD070
:104EB000634A128891B2614A32F81500FFF731FF58
:104EC0000746042F01D03846BBE7681C85B20F2D7A
:104ED000D9DB00215648FBF75EFF0446042C02D0C4
:104EE0002046AEE707E05348FBF752FE0446042C89
:104EF0001FD02046A5E74FF6FF70864212D14D48DD
:104F0000FBF746FE0446042C03D0204699E711E047
:104F10005FE000214648FBF73EFF0446042C08D022
:104F200020468EE7FFF7E4FE0446042C01D020461D
:104F300087E756E036B9FFF7DBFE0446042C47D07E
:104F400020467EE74FF6FF70864207D13948FBF7CF
:104F50001FFE0446042C3BD0204672E7002524E0C7
:104F60003448801D0088354931F81510884201D138
:104F70000FFA85F94D4516D0304931F81500304902
:104F8000FFF70FFF8046B8F1010F0CD02C4A1288B2
:104F900091B22A4A32F81500FFF7C3FE0746042FE4
:104FA00001D038464DE7681C85B20F2DD8DB0021B3
:104FB0002048FBF7F0FE0446042C01D0204640E7D1
:104FC0001B48FBF7E5FD0446042C01D0204638E7DA
:104FD00007E0FFF78DFE0446042C01D0204630E7A1
:104FE00000BF00BF04202CE710B5FFF707FF044601
:104FF000FFF750FE204610BD2DE9F84F07468946C1
:105000000425DFF840A00A4800904FF00008002473
:1050100000264FF0000B0020FFF714FE8046B8F189
:10502000010F11D1DFF808A00248009017E000003E
:10503000000001080008010860030020EA040020C5
:105040005C030020FF030108B8F1000F04D1DFF872
:10505000C8A03248009002E0AB20BDE8F88F4EF6C1
:10506000EE615046FBF797FE0546042D01D0284619
:10507000F3E7FFF70FFE49463846FFF752FE0646B4
:10508000042E01D03046E8E700241DE0244830F823
:105090001400B84216D0224931F814002149FFF714
:1050A00080FE8346BBF1010F0CD01E4A128891B2DC
:1050B0001B4A32F81400FFF734FE0646042E01D0D6
:1050C0003046CAE7601C84B20F2CDFDB0098FBF788
:1050D0005FFD0546042D01D02846BEE7002150465D
:1050E000FBF759FE0546042D01D02846B5E72846B2
:1050F000B3E770B506460C460025A1B23046FFF76F
:1051000010FE0546802D04D1A1B23046FFF774FF92
:105110000546284670BD000000080108000001088F
:10512000EA0400205C03002010B5FEF776F9EE20BB
:10513000FEF715FAFEF7EAF91E20FEF710FAFEF761
:10514000E5F9FEF795F910BD70B5FFF7EDFF1420F6
:10515000FFF730FD012432E0FEF75FF9EE20FEF7A5
:10516000FEF9FEF7D3F9A02101EB4401C8B2FEF726
:10517000F6F9FEF7CBF9FEF77BF90120FFF71AFDF0
:10518000FEF74BF9EF20FEF7EAF9FEF7BFF9FEF75D
:105190000FFA0546FEF786F9FEF70AFA0646FEF70D
:1051A0009BF9FEF765F9FEF72FF946EA0520F64967
:1051B00041F824000A20FFF7FDFC601CC4B2062C55
:1051C000CADDF148006808B9012070BD0020FCE785
:1051D00010B50446FEF721F9EE20FEF7C0F9FEF700
:1051E00095F92046FEF7BBF9FEF790F9FEF740F976
:1051F00010BD2DE9F0410025FEF70FF9EE20FEF776
:10520000AEF9FEF783F90020FEF7A9F9FEF77EF963
:10521000FEF72EF9FEF701F9EF20FEF7A0F9FEF7F1
:1052200075F9FEF7C5F90646FEF73CF9FEF7C0F939
:105230000446FEF737F9FEF7BBF90746FEF74CF9CF
:10524000FEF716F9C6EB064000EB0420C519284608
:10525000BDE8F0812DE9F04700240025DFF82C831C
:10526000FFF7C7FFCA49CB4A127841F82200C94864
:105270000078401CC749087008460078642801D1AE
:10528000002008700020C449087023E0C048C249CB
:10529000097850F82100A84205D9BD48BE490978CF
:1052A00050F821500BE0BA48BB49097850F821006A
:1052B000404504D2B648B849097850F82180B4482E
:1052C000B549097850F821000444B3480078401CDF
:1052D000B1490870B04800780A28D7DB601BA0EB02
:1052E0000800C008AD490860A74840690968A1EBFB
:1052F00000200021AA4A03C2A34880690022A849CD
:10530000D1E9003CA0FB036902FB039200FB0C21E6
:105310004FF400020023304604F002F94FF4FA6320
:10532000C01841F100019F4A03C2BDE8F0872DE992
:10533000F04F87B000240025DFF86C82FFF759FF9B
:105340009A490860FEF760F88F4800690023944985
:10535000D1E90021A0FB026B03FB02B201FB00219B
:105360008022304604F0DCF8874A1289120410EBE0
:10537000020941F10001484604F09FFB8C4A03C238
:105380008148C06800238649D1E90021A0FB026959
:1053900003FB029201FB00214FF48072304604F0BF
:1053A000BFF8794A5268D203801841F10001814A5E
:1053B00003C27C48D0E900104FF4FA62891A70F1F8
:1053C00000004AD2774903C9A0FB002701FB007700
:1053D00001FB0071104604F044FB77490860084661
:1053E000006804F0DBFB81460022744B04F04AFAAB
:1053F000064604F0BAFB724908606F48006804F082
:10540000CDFB064600226F4B04F03CFA814604F0C7
:10541000ACFB6D4908606348D0E900306B4909680E
:10542000591A60F100005F4AC2E900106448006840
:1054300004F036FB06465E480CC8304604F01FFAFE
:105440005B4A03C25B48D0E900305F490968591ADA
:1054500060F10000574AC2E9001054480068002378
:105460005449D1E90021A0FB026B03FB02B201FB0E
:1054700000214FF40012304604F052F8CDE900014B
:1054800004F01BFB81464A480CC8484604F0F4F976
:1054900000224F4BCDE9020104F066FACDE9040188
:1054A00004F063FB4B4908604B494C4A127841F8C1
:1054B00022004A480078401C484908700846007895
:1054C000142801D10020087000203349087023E01F
:1054D00041483149097850F82100A84205D93E4891
:1054E0002D49097850F821500BE03B482A490978AA
:1054F00050F82100404504D237482749097850F830
:10550000218035482449097850F821000444224874
:105510000078401C204908701F4800781428D7DB09
:10552000601BA0EB08001221B0FBF1F02C490860D1
:1055300007B0BDE8F08F10B52A480078012802D0E6
:10554000022817D10BE02848007808B1FFF7EFFEDA
:105550005820FFF73DFE02202249087011E0FFF7B6
:1055600079FE4820FFF734FE01201F4908701D49CD
:10557000087006E001201B49087000201A490870D5
:1055800000BF00BF10BD00008409002000C2EB0B6B
:10559000F0090020D1030020D0030020CC0300201C
:1055A000A8030020B0030020400D0300C803002022
:1055B00098030020C0030020A00300200000044046
:1055C000840300200000F43F880300207C030020B7
:1055D0000000E04070030020A0090020D20300205A
:1055E00068030020D3030020D403002010B500225C
:1055F0006B21D020FEF704F8C4B207221921D02075
:10560000FDF7FEFF2044C4B203221A21D020FDF78B
:10561000F7FF2044C4B210221B21D020FDF7F0FF79
:105620002044C4B209221C21D020FDF7E9FF204408
:10563000C4B242223721D020FDF7E2FF2044C4B299
:1056400040226A21D020FDF7DBFF2044C4B220466F
:1056500010BD10B53B21D020FEF712F8D0490870DC
:105660003C21D020FEF70CF8CD4948703D21D020D8
:10567000FEF706F8CA4988703E21D020FEF700F8F0
:10568000C749C8703F21D020FDF7FAFFC44908710F
:105690004021D020FDF7F4FFC14948714321D020BB
:1056A000FDF7EEFFBE4908724421D020FDF7E8FF68
:1056B000BB4948724521D020FDF7E2FFB849887206
:1056C0004621D020FDF7DCFFB549C8724721D02024
:1056D000FDF7D6FFB24908734821D020FDF7D0FF6F
:1056E000AF49487310BD10B54FF4FA640020AD49BE
:1056F00048620021AB488162C16241878187C187CE
:1057000031E0FFF7A6FFA6484078A549097840EAAE
:10571000012000B2A3490880A148C078A049897837
:1057200040EA012000B29F4948809D4840799C4949
:10573000097940EA012000B29A4988800846406A07
:10574000B1F900100844974948620846806AB1F9E7
:105750000210014493488162C06A9249B1F9041071
:1057600001449048C1622000A4F101018CB2C8D16B
:105770004FF4FA648B48406A90FBF4F000B2894918
:1057800048820846806A90FBF4F001B28548818225
:10579000C06A90FBF4F001B28248C18210BD2DE9CD
:1057A000F05FFFF756FF7E4840787D49097840EA70
:1057B00001207C49498A401A00B27A490880784819
:1057C000C0787749897840EA01217648808A081AAA
:1057D00000B274494880724840797149097940EAB9
:1057E000012000B26F4988806D48407A6C49097A7F
:1057F00040EA012000B26B4988866948C07A68494E
:10580000897A40EA012001B26648C1866448407B3B
:105810006349097B40EA012001B2624801870146E1
:10582000B1F9460004F02BF906465F4A5F4B04F0DD
:1058300029F8804689465B49B1F9340004F01FF924
:105840000646594A594B04F01DF8824642464B46DB
:1058500004F012F8044604F0CDF95249C864B1F9D5
:10586000480004F00CF906464F4A504B04F00AF881
:1058700004460D464B49B1F9360004F000F90646DE
:10588000494A4A4B03F0FEFF804622462B4603F06E
:10589000F3FF824604F0AEF9014642480165014635
:1058A000B1F94A0004F0EBF806463F4A3F4B03F0DB
:1058B000E9FF04460D463B49B1F9380004F0DFF832
:1058C0000646394A394B03F0DDFF804622462B4617
:1058D00003F0D2FF824604F08DF90146314841655C
:1058E00090F83000012805D1FFF7FDFE00202D497A
:1058F00081F83000BDE8F09F2DE9F0414FF4FA67E0
:105900000024002500260021264841878187C18781
:1059100027E0FFF79EFE2248407A2149097A40EAB3
:10592000012000B21F4988861D48C07A1C49897A27
:1059300040EA012001B21B48C1861948407B184942
:10594000097B40EA012001B216480187B0F9340012
:1059500004441448B0F9360005441248B0F9380040
:1059600006443800A7F10107D3D14FF4FA6094FB45
:10597000F0F001B20B48A0F846104FF4FA6095FB26
:10598000F0F001B20748A0F848104FF4FA6096FB17
:10599000F0F001B20348A0F84A10BDE8F081000021
:1059A000800A0020180A00201BE20E8A9C74413FE6
:1059B00010B5002202213C20FDF722FEC4B2204691
:1059C00010BD2DE9FC5F00250026A946FDF725FD49
:1059D0003C20FDF7C4FDFDF799FD0320FDF7BFFD59
:1059E000FDF794FDFDF719FD3D20FDF7B8FDFDF72E
:1059F0008DFD00240CE0FDF7DBFD0DF80400052C07
:105A000002D1FDF769FD01E0FDF74CFD601CC4B259
:105A1000062CF0DBFDF72CFDFDF7F6FC9DF80100F0
:105A20009DF8001040EA012000B23E493E4A12783B
:105A300021F812009DF805009DF8041040EA0120AD
:105A400000B23A49384A127821F812009DF8030052
:105A50009DF8021040EA012000B23549324A12781E
:105A600021F8120000240DE02E4830F914000544FE
:105A70002E4830F9140006442D4830F914008144B2
:105A8000601CC4B20A2CEFDB0A2095FBF0F000B2D8
:105A9000284908800A2096FBF0F000B226490880C9
:105AA0000A2099FBF0F000B2244908801E480078D3
:105AB000401C1D490870084600780A2801D10020C2
:105AC00008701C4800881E490988084400B21D4916
:105AD00008801949B1F900101B4AB2F90020881852
